:020000040800F2
:100000005004002045010008210C0008C306000828
:100010001D0C00081B040008CD0D000800000000A6
:100020000000000000000000000000007D0C00083F
:100030001F04000800000000230C0008690D0008E0
:100040005F0100085F0100085F0100085F01000810
:100050005F0100085F0100085F0100085F01000800
:100060005F0100085F0100085F0100085F010008F0
:100070005F0100085F0100085F0100085F010008E0
:100080005F0100085F0100085F0100085F010008D0
:100090005F0100085F0100085F0100085F010008C0
:1000A0005F0100085F0100085F0100085F010008B0
:1000B0005F0100085F0100085F0100085F010008A0
:1000C0005F0100085F0100085F0100085F01000890
:1000D0005F0100085F0100085F0100085F01000880
:1000E0005F0100085F0100085F0100085F01000870
:1000F0005F0100085F0100085F0100085F01000860
:100100005F0100085F0100085F0100085F0100084F
:100110005F0100085F0100085F0100085F0100083F
:100120005F0100085F0100085F0100085F0100082F
:10013000DFF80CD000F04AF800480047E51000084E
:10014000500400200648804706480047FEE7FEE7C7
:10015000FEE7FEE7FEE7FEE7FEE7FEE7FEE7FEE777
:100160006D0D0008310100082DE9F05F0546002003
:1001700092469B4688460646814640241BE0284618
:1001800041464746224600F042F853465A46C01AB6
:10019000914110D311461846224600F029F82D1A35
:1001A00067EB01084F4622460120002100F020F8AD
:1001B00017EB00094E41201EA4F10104DFDC484684
:1001C00031462A464346BDE8F09F0000064C074DE5
:1001D00006E0E06840F0010394E807009847103417
:1001E000AC42F6D3FFF7A8FF4017000860170008DD
:1001F000202A04DB203A00FA02F1002070479140E7
:10020000C2F1200320FA03F3194390407047202ADB
:1002100004DB203A21FA02F00021704721FA02F3B0
:10022000D040C2F12002914008431946704721B1E5
:10023000826842F00102826003E0826822F00102DB
:100240008260704710B50121480200F007FD0020D0
:1002500017490860087148714FF4602088600020D9
:10026000C86001200874134800F03EF84FF40040C5
:1002700000F0D8FC052301220E210E4800F05CF8A6
:1002800001210C48FFF7D3FF0A4800F0B1F800BF86
:10029000084800F01FF80028FAD1064800F0B8F826
:1002A00000BF044800F008F80028FAD110BD000093
:1002B0000400002000240140014600208A6802F06A
:1002C00004020AB1012000E0002070470146C86C1A
:1002D00080B27047014600208A6802F008020AB125
:1002E000012000E00020704730B5024600200023C6
:1002F00050680F4C20400D790C6844EA05242043D7
:10030000506090680B4C2040D1E902542C434D7949
:1003100044EA450420439060D06A20F470000C7CCD
:10032000641EE4B2234340EA0350D06230BD0000B3
:10033000FFFEF0FFFDF7F1FFF0B504460D4600208B
:100340000021092D11DDE068A5F10A0606EB46073C
:10035000072606FA07F18843A5F10A0606EB4606CA
:1003600003FA06F10843E0600CE0206905EB45075D
:10037000072606FA07F1884305EB450603FA06F15E
:1003800008432061072A0FDA606B561E06EB8607CA
:100390001F2606FA07F18843561E06EB860605FA65
:1003A00006F10843606322E00D2A0FDA206BD61FA6
:1003B00006EB86071F2606FA07F18843D61F06EBD1
:1003C000860605FA06F10843206310E0E06AA2F110
:1003D0000D0606EB86071F2606FA07F18843A2F1F1
:1003E0000D0606EB860605FA06F10843E062F0BD4D
:1003F000816841F008018160704721B1826842F450
:10040000A002826003E0826822F4A002826070474A
:10041000816841F004018160704700BFFEE77047CA
:1004200001B502E00098401E009000980028F9D124
:1004300008BD07E0022100E000BF0A1EA1F1010192
:10044000FAD100BF011EA0F10100F3D170470000F6
:1004500051B18200A2F1C042126842F00103820051
:10046000A2F1C042136009E08200A2F1C04212680A
:10047000034B1A408300A3F1C0431A607047000089
:10048000FEFF0F00D0E901121143C2681143026957
:1004900011434269114382691143C2691143026ADF
:1004A0001143426A1143826A1143C26A1143026BCB
:1004B000114302689200A2F1C042116081680829CC
:1004C0000BD101688900A1F1C041096841F04002E7
:1004D00001688900A1F1C0410A60416B0968426B63
:1004E000526841EA0211426B926841EA0221426B72
:1004F000928941EA0241426B128A41EA0251426BFF
:10050000127D41EA0261426B926911430268521CFA
:100510009200A2F1C0421160C16AB1F5804F1BD1B7
:10052000816B0968826B526841EA0211826B9268A2
:1005300041EA0221826B128A41EA0251826B127DEA
:1005400041EA0261826B9269114302689200A2F152
:10055000C042C2F8041107E06FF0704201688900E0
:10056000A1F1C041C1F804217047000010B501217C
:10057000052000F073FB00200849C8700320887034
:1005800010200880064800F00DF804200349C870C8
:1005900001200880024800F005F810BD000000208E
:1005A000000801402DE9F041024600250026002008
:1005B00000230024002791F803C00CF00F0591F8E8
:1005C00003C00CF0100CBCF1000F03D091F802C076
:1005D0004CEA050591F800C0BCF1000F31D0146859
:1005E00000202BE04FF0010C0CFA00F3B1F800C032
:1005F0000CEA03069E4220D183004FF00F0C0CFA48
:1006000003F7BC4305FA03FC4CEA040491F803C069
:10061000BCF1280F06D14FF0010C0CFA00FCC2F817
:1006200014C00AE091F803C0BCF1480F05D14FF0A7
:10063000010C0CFA00FCC2F810C0401C0828D1D3F1
:100640001460B1F800C0BCF1FF0F34DD5468002025
:100650002EE000F1080C4FF0010808FA0CF3B1F895
:1006600000C00CEA03069E4221D183004FF00F0C1C
:100670000CFA03F7BC4305FA03FC4CEA040491F8B6
:1006800003C0BCF1280F05D100F1080C08FA0CF8E2
:10069000C2F8148091F803C0BCF1480F07D100F1F3
:1006A000080C4FF0010808FA0CF8C2F81080401C42
:1006B0000828CED35460BDE8F081416170470161E4
:1006C000704700BFFEE7000010B504462CB14FF4A0
:1006D00080510548FFF7F1FF04E04FF480510248D4
:1006E000FFF7EDFF10BD0000001401402DE9F05FA1
:1006F00081468A4614461D46DDF828B02B46224620
:100700005146484600F023F904FB05F65F464FF0DA
:1007100000082C2000F078FA00BF04E0384600F012
:1007200077FA08F10108B045F8D300BFBDE8F09FA3
:100730002DE9F047804689461546A5F1200000F0D6
:10074000FF0A102308224946404600F000F92C20F9
:1007500000F05AFA002417E00D4800EB0A10065D7D
:1007600000270DE006F0010018B11F2000F050FA3C
:1007700003E04FF6FF7000F04BFA7610781CC7B21A
:10078000082FEFDB601CC4B2102CE5DBBDE8F0875E
:100790005011000870B505460E46144617E028466D
:1007A0000830F02803DD002506F1100086B230463F
:1007B0001030B0F5A07F01DD0025002622783146FB
:1007C0002846FFF7B5FF641C05F1080085B22078C4
:1007D0000028E4D170BD00B597B00121080200F0F7
:1007E0002DFA0220019000200290052003900020A5
:1007F0000490059006904FF08050079000200890DC
:10080000099008200A9010200B9000200C900E9068
:100810000F9010904FF48050119000201290139080
:10082000149001A81590169008A8FFF72BFE01213F
:100830000020FFF70DFE17B000BD000008B5012134
:10084000084600F00BFA0121602000F007FA0320AF
:100850008DF8020018208DF803004CF20370ADF8FB
:10086000000069462C48FFF79DFE4FF68070ADF8FA
:10087000000069462948FFF795FE03208DF8020025
:1008800018208DF803001020ADF8000069462248BA
:10089000FFF788FE2020ADF8000069461E48FFF7EC
:1008A00081FE0121202000F0D9F98020ADF8000060
:1008B00069461948FFF776FE0121202000F0CEF9A5
:1008C0004FF40060ADF8000069461348FFF76AFE78
:1008D00010208DF8030003208DF802000121402034
:1008E00000F0BCF90220ADF8000069460B48FFF7A4
:1008F00059FE10208DF8030003208DF8020001211D
:10090000202000F0ABF94FF48050ADF800006946AC
:100910000148FFF747FE08BD0014014000180140E0
:1009200008B5FFF78BFFFFF756FF0120FFF7CCFE5E
:1009300000F056F900F03CF84FF6FF704FF4A0734A
:10094000F022002100900846FFF7D0FE08BD2DE9F7
:10095000F04104460D4616461F462A2000F054F981
:10096000201200F055F9E0B200F052F9A119491E29
:10097000C1F30F2000F04CF9A119491EC8B200F0D4
:1009800047F92B2000F040F9281200F041F9E8B2B5
:1009900000F03EF9E919491EC1F30F2000F038F9C3
:1009A000E919491EC8B200F033F9BDE8F081000032
:1009B00010B5CF2000F028F9002000F029F981209F
:1009C00000F026F9302000F023F9ED2000F01CF9AA
:1009D000642000F01DF9032000F01AF9122000F045
:1009E00017F9812000F014F9E82000F00DF98520B6
:1009F00000F00EF9102000F00BF9782000F008F953
:100A0000CB2000F001F9392000F002F92C2000F091
:100A1000FFF8002000F0FCF8342000F0F9F8022084
:100A200000F0F6F8F72000F0EFF8202000F0F0F8E2
:100A3000EA2000F0E9F8002000F0EAF8002000F0D9
:100A4000E7F8B12000F0E0F8002000F0E1F81B200A
:100A500000F0DEF8B62000F0D7F80A2000F0D8F851
:100A6000A22000F0D5F8C02000F0CEF8352000F02C
:100A7000CFF8C12000F0C8F8112000F0C9F8C52057
:100A800000F0C2F8452000F0C3F8452000F0C0F89F
:100A9000C72000F0B9F8A22000F0BAF8F22000F068
:100AA000B3F8002000F0B4F8262000F0ADF80120E3
:100AB00000F0AEF8E02000F0A7F80F2000F0A8F852
:100AC000262000F0A5F8242000F0A2F80B2000F06A
:100AD0009FF80E2000F09CF8092000F099F85420AF
:100AE00000F096F8A82000F093F8462000F090F867
:100AF0000C2000F08DF8172000F08AF8092000F093
:100B000087F80F2000F084F8072000F081F800201B
:100B100000F07EF8E12000F077F8002000F078F88F
:100B2000192000F075F81B2000F072F8042000F086
:100B30006FF8102000F06CF8072000F069F82A2008
:100B400000F066F8472000F063F8392000F060F804
:100B5000032000F05DF8062000F05AF8062000F0AF
:100B600057F8302000F054F8382000F051F80F20EA
:100B700000F04EF8362000F047F8C82000F048F8A2
:100B80002A2000F041F8002000F042F8002000F098
:100B90003FF8002000F03CF8EF2000F039F82B205F
:100BA00000F032F8002000F033F8002000F030F8B8
:100BB000012000F02DF83F2000F02AF83A2000F044
:100BC00023F8552000F024F8112000F01DF8034808
:100BD000FFF726FC292000F017F810BDFCBF02002B
:100BE00010B502210648FFF768FD0648FFF718FC1C
:100BF00002210348FFF763FD0248FFF711FC10BD17
:100C000000180140FCBF02004FF0C041088070474F
:100C100001490880704700000000026000BFFEE745
:100C20007047704701460020034A506820F4404056
:100C300008435060704700000010024029B1064A86
:100C400052690243044B5A6104E0034A52698243E9
:100C5000014B5A61704700000010024029B1064A5A
:100C600092690243044B9A6104E0034A9269824309
:100C7000014B9A617047000000100240704710B5A8
:100C800000F002F810BD00000CB5002001900090AB
:100C90003348006840F480303149086000BF304874
:100CA000006800F4003000900198401C019000980A
:100CB00018B90198B0F5A06FF1D12948006800F487
:100CC000003010B10120009001E000200090009859
:100CD000012843D12348006840F0100021490860F2
:100CE0000846006820F0030008600846006840F0ED
:100CF000020008601A484068194948600846406880
:100D000048600846406840F4806048600846406893
:100D100020F47C1048600846406840F4E8104860C1
:100D20000846006840F08070086000BF0C4800680A
:100D300000F000700028F9D00948406820F0030056
:100D4000074948600846406840F00200486000BF1C
:100D50000348406800F00C000828F9D10CBD0000E1
:100D600000100240002002407047000010B51348F8
:100D7000006840F0010011490860084640681049C9
:100D800008400E494860084600680E4908400B4973
:100D900008600846006820F4802008600846406823
:100DA00020F4FE0048604FF41F008860FFF767FFE3
:100DB0004FF000600449086010BD000000100240C0
:100DC0000000FFF8FFFFF6FE08ED00E000BFFEE7C1
:100DD0000FB4084B10B504A902AA039800F01CF840
:100DE000044602A9002000F077F9204610BC5DF807
:100DF00014FB0000D910000802E008C8121F08C147
:100E0000002AFAD170477047002001E001C1121F8B
:100E1000002AFBD1704700002DE9FF4F8DB09B46A3
:100E20000F460446002606E025280BD05A460F99A7
:100E30009047641C761C20780028F5D111B030460C
:100E4000BDE8F08F0025A8460122984900E005433F
:100E500014F8013F203B02FA03F00842F7D1207852
:100E60002E2817D114F8010F45F004052A280ED0BA
:100E70006FF02F022078A0F1300109290AD808EB81
:100E8000880102EB410100EB0108641CF2E757F80E
:100E9000048B641C20786C280DD004DC4C2812D004
:100EA0006A2811D104E074280DD07A280CD10AE008
:100EB00045F4001507E0617845F48015814202D1C0
:100EC000641C05F58015641C2278692A45D008DC6D
:100ED000002AB3D0582A69D0632A10D0642A08D1D6
:100EE0003BE0702A67D0732A13D0752A5CD0782A29
:100EF0005CD010465A460F999047761CD3E017F8FD
:100F0000040B8DF8000000208DF80100E946012057
:100F100003E057F8049B4FF0FF3069074FF00005DE
:100F200001D40AE06D1C45450DDA8542FADB19F85B
:100F300005100029F6D106E06D1C8542FCDB19F88E
:100F400005100029F8D12E4404E019F8010B5A4687
:100F50000F9990476D1EF8D2A5E00A200021CDE937
:100F60000801C5F3025002280DD001CFC117031E9E
:100F700071F100030DDA4FF0000CD0EB0C006CEBBC
:100F800001012D2308E0FF1D27F00707F7E8020104
:100F9000EDE72B0504D52B238DF8283001233BE00A
:100FA000EB0739D02023F7E70A2000E010200021CA
:100FB000CDE9080107E01020002145F00405CDE946
:100FC00008014FF00808C5F3025002280FD001CFE6
:100FD00000214FF0000A2B071FD5702A0DD0DDE944
:100FE00008C38CF0100C5CEA030C0CD015E0FF1D5C
:100FF00027F00707F7E80201EBE740228DF82820E9
:101000004FF0010A0BE050EA010306D030238DF8BF
:1010100028308DF8292002239A46582A04D024A289
:101020000DF120090B9209E026A2F9E7DDE908237A
:10103000FFF79AF80B9B9B5C09F8013D50EA01020F
:10104000F4D1ADEB090020300890680701D44FF0CF
:1010500001080899884502DDA8EB010000E00020A6
:101060008046002506E00AA85A46405D0F99904741
:101070006D1C761C5545F6DB04E030205A460F996E
:101080009047761CB8F10001A8F10108F5DC05E0F5
:1010900019F8010B5A460F999047761C0899481E7B
:1010A00008900029F4DC641CC5E600000928010052
:1010B00030313233343536373839616263646566CE
:1010C0000000000030313233343536373839414290
:1010D00043444546000000000A68531C0B60107032
:1010E00070470000FFF71CFCFFF740FAFFF7AAF873
:1010F0000DA20A210846FFF74DFB14E0012110481C
:10110000FFF77BF90120FFF794F90D48FFF7DEF8B0
:10111000044622460BA10D48FFF75AFE0B4A1A213E
:101120000A20FFF737FBE9E7546865204144432074
:1011300076616C7565206D656173757265643A00E2
:1011400000240140307825580000000018000020DD
:10115000000000000000000000000000000000008F
:10116000000000183C3C3C18180018180000000053
:10117000000000666666000000000000000000003D
:101180000000006C6CFE6C6C6CFE6C6C000000006F
:101190000018183C66060C183060663C18180000F1
:1011A00000000E1B5B6E30180C76DAD87000000061
:1011B0000000001C36361C06F66666DC00000000E7
:1011C00000000018181800000000000000000000D7
:1011D0000000003018180C0C0C0C0C181830000013
:1011E0000000000C1818303030303018180C000097
:1011F00000000000006C38FE386C000000000000A9
:10120000000000000018187E181800000000000000
:101210000000000000000000000038383018000016
:10122000000000000000007E000000000000000040
:10123000000000000000000000003838000000003E
:101240000000006060303018180C0C06060000002A
:1012500000000078CCECECCCDCDCCC7800000000AA
:1012600000000030383E30303030303000000000B8
:101270000000003C66666030180C067E000000002E
:101280000000003C666660386066663C0000000056
:101290000000000C0C6C6C6C66FE606000000000CE
:1012A0000000007E0606063E6060301E0000000062
:1012B00000000038180C3E666666663C00000000C0
:1012C0000000007E60303018180C0C0C000000008C
:1012D0000000003C66666E3C7666663C00000000DE
:1012E0000000003C666666667C30181C000000004A
:1012F000000000000038380000003838000000000E
:1013000000000000003838000000383830180000B5
:101310000000006030180C060C183060000000005F
:101320000000000000007E007E00000000000000C1
:10133000000000060C18306030180C060000000099
:101340000000003C66663018180018180000000005
:101350000000007EC3C3F3DBDBF303FE00000000EC
:10136000000000183C6666667E6666660000000047
:101370000000003E6666663E6666663E000000004F
:101380000000003C666606060666663C000000003B
:101390000000001E366666666666361E00000000A7
:1013A0000000007E0606063E0606067E00000000DF
:1013B0000000007E0606063E060606060000000047
:1013C0000000003C666606067666667C000000004B
:1013D000000000666666667E66666666000000005F
:1013E0000000003C181818181818183C00000000DD
:1013F00000000060606060606066663C00000000A5
:10140000000000666636361E36366666000000004E
:1014100000000006060606060606067E000000001E
:10142000000000C6C6EED6D6D6C6C6C6000000006E
:10143000000000C6C6CEDEF6E6C6C6C60000000046
:101440000000003C666666666666663C000000005A
:101450000000003E6666663E0606060600000000C6
:101460000000003C666666666666663C30600000AA
:101470000000003E6666663E366666660000000056
:101480000000003C66060C183060663C000000005E
:101490000000007E1818181818181818000000000E
:1014A00000000066666666666666663C00000000D0
:1014B000000000666666666666663C18000000000E
:1014C000000000C6C6C6D6D6D66C6C6C0000000004
:1014D00000000066662C181834666666000000007E
:1014E000000000666666663C1818181800000000C8
:1014F0000000007E606030180C06067E00000000D0
:101500000000003C0C0C0C0C0C0C0C0C0C0C3C00EB
:1015100000000006060C0C18183030606000000057
:101520000000003C303030303030303030303C0063
:1015300000183C66000000000000000000000000F1
:101540000000000000000000000000000000FF009C
:10155000001C183000000000000000000000000027
:1015600000000000003C60607C66667C00000000BB
:1015700000000006063E66666666663E00000000E5
:1015800000000000003C66060606663C0000000005
:1015900000000060607C66666666667C0000000095
:1015A00000000000003C66667E06063C000000006D
:1015B000000000780C0C0C7E0C0C0C0C00000000E1
:1015C00000000000007C66666666667C60603E0027
:1015D00000000006063E666666666666000000005D
:1015E00000001818001E18181818187E00000000B7
:1015F00000003030003C30303030303030301E00B1
:1016000000000006066666361E36666600000000AC
:101610000000001E181818181818187E0000000086
:1016200000000000007ED6D6D6D6D6C60000000048
:1016300000000000003E6666666666660000000008
:1016400000000000003C66666666663C0000000024
:1016500000000000003E66666666663E06060600FE
:1016600000000000007C66666666667C6060600064
:10167000000000000066760E060606060000000068
:1016800000000000007C06063C60603E0000000098
:101690000000000C0C7E0C0C0C0C0C780000000000
:1016A00000000000006666666666667C000000005A
:1016B000000000000066666666663C1800000000D8
:1016C0000000000000C6D6D6D6D66C6C0000000024
:1016D000000000000066663C183C666600000000E2
:1016E00000000000006666666666663C30180F0003
:1016F00000000000007E6030180C067E0000000034
:10170000000000301818180C060C181818300000CB
:1017100000000018181818181818181818181800A9
:101720000000000C1818183060301818180C000051
:101730000000008EDB7100000000000000000000CF
:10174000601700080000002004000000F80D0008E9
:1017500064170008040000204C040000080E000874
:041760000000000085
:0400000508000131BD
:00000001FF
