:020000040800F2
:1000000020040020450100087F0200083302000898
:100010007D0200088D010008250500080000000091
:10002000000000000000000000000000B502000811
:100030008F01000800000000810200086103000831
:100040005F0100085F0100085F0100085F01000810
:100050005F0100085F0100085F0100085F01000800
:100060005F0100085F0100085F0100085F010008F0
:100070005F0100085F0100085F0100085F010008E0
:100080005F0100085F0100085F0100085F010008D0
:100090005F0100085F0100085F0100085F010008C0
:1000A0005F0100085F0100085F0100085F010008B0
:1000B0005F0100085F0100085F0100085F010008A0
:1000C0005F0100085F0100085F0100085F01000890
:1000D0005F0100085F0100085F0100085F01000880
:1000E0005F0100085F0100085F0100085F01000870
:1000F0005F0100085F0100085F0100085F01000860
:100100005F0100085F0100085F0100085F0100084F
:100110005F0100085F0100085F0100085F0100083F
:100120005F0100085F0100085F0100085F0100082F
:10013000DFF80CD000F018F800480047450500082B
:10014000200400200648804706480047FEE7FEE7F7
:10015000FEE7FEE7FEE7FEE7FEE7FEE7FEE7FEE777
:100160006503000831010008064C074D06E0E06811
:1001700040F0010394E8070098471034AC42F6D3EE
:10018000FFF7DAFF2C0600084C060008FEE7704770
:10019000F0B5CA78002502F00F03D20601D58A789F
:1001A00013430A784FF00F0E12F0FF0F4FF00102C9
:1001B0001CD004680F8802FA05F63740B74211D107
:1001C0004FEA850C0EFA0CF724EA070703FA0CF441
:1001D0003C43CF78282F02D0482F02D002E046615E
:1001E00000E006616D1C082DE4D304600C88FF2C30
:1001F0001ED944685FF0000606F1080702FA07F509
:100200000F882F40AF420FD14FEA860C0EFA0CF741
:10021000BC4303FA0CF73C43CF78282F00D145614B
:10022000CF78482F00D10561761C082EE4D34460B6
:10023000F0BDFEE708B50121042000F02FF80121F0
:10024000102000F02BF80120ADF8000004208DF8FC
:10025000030003208DF8020069460648FFF798FF67
:100260004FF40050ADF8000069460348FFF790FFD7
:1002700008BD00000008014000100140FEE7704783
:1002800070470000044A0029D16901D0014300E011
:100290008143D1617047000000100240044A0029E8
:1002A000916901D0014300E08143916170470000F2
:1002B00000100240704700000CB500212648019153
:1002C0000091026842F4803202604FF4A063026839
:1002D00002F400320092019A521C0192009A12B963
:1002E000019A9A42F3D10268920333D50121009119
:1002F0001A490A6842F010020A600A6822F00302F2
:100300000A600A6842F002020A604168416041687E
:100310004160416841F480614160416821F47C1191
:100320004160416841F4E8114160016841F0807129
:10033000016001688901FCD5416821F00301416039
:10034000416841F0020141604168C1F38101022925
:10035000FAD10CBD00910CBD0010024000200240FB
:10036000704700000F4810B5016841F001010160BD
:1003700041680D4A1140416001680C4A114001601A
:10038000016821F480210160416821F4FE0141608F
:100390004FF41F018160FFF78FFF05494FF00060A8
:1003A000086010BD001002400000FFF8FFFFF6FEDD
:1003B00008ED00E00029018802D041F0010101E0D0
:1003C00021F001010180704730B5028C22F001025A
:1003D0000284028C8388048B22F0020224F07305CD
:1003E0000C882C430D8915434A882A43114DA84295
:1003F0000BD0114DA84208D0104DA84205D0104D89
:10040000A84202D00F4DA8420DD122F008054A891A
:1004100023F440732A4322F004058A882A438D89F5
:100420001D43CB892B4383800483C9888186028442
:1004300030BD0000002C014000340140004001406C
:100440000044014000480140028922F070020A4342
:1004500002817047028922F08002028102890A43E8
:1004600002817047828822F07002828082880A436B
:1004700082807047028922F00702028102890A43C2
:10048000028170478186704730B502881B4B1C4C37
:1004900098420DD0A0420BD0B0F1804F08D0194D3A
:1004A000A84205D0184DA84202D0184DA84203D149
:1004B00022F070054A882A43154DA84206D0154DF2
:1004C000A84203D022F44075CA882A4302808A8851
:1004D00082850A88028598420AD0A04208D00E4A36
:1004E000904205D00D4A904202D00D4A904201D16F
:1004F000097A01860121818230BD0000002C014073
:10050000003401400004004000080040000C00409E
:100510000010004000140040004001400044014031
:1005200000480140FEE702E008C8121F08C1002A87
:10053000FAD170477047002001E001C1121F002A64
:10054000FBD17047FFF776FE01210620FFF79AFEE8
:1005500001210920FFF7A2FE2D484021018018212A
:10056000C1700321817001462A48FFF711FE2A4C11
:100570004FF434700025A0802580284EE5806580EA
:1005800021463046FFF780FF01213046FFF712FF7A
:1005900080213046FFF75EFF20213046FFF762FFE3
:1005A0004FF4FA60A0802580E580658021461C4CD0
:1005B0002046FFF769FF184960200A3108800120B2
:1005C00048809620C8800D812046FFF7FDFE05215A
:1005D0002046FFF74FFF20212046FFF735FF01217E
:1005E0002046FFF7E7FE0F4E0F4D3068C007A868A2
:1005F0004FEA804005D0002801DA962104E07521F9
:1006000002E00028F1DAB7212046FFF73BFFECE7D4
:1006100000000020000C0140040000200004004005
:100620000008004008080140001001404C06000886
:100630000000002004000000260500085006000805
:10064000040000201C040000360500080000000023
:0400000508000131BD
:00000001FF
