:020000040800F2
:100000000804002045010008010F0008B508000899
:10001000FD0E0008630600089510000800000000AF
:10002000000000000000000000000000450F000874
:100030006706000800000000030F000831100008E8
:100040005F0100085F0100085F0100085F01000810
:100050005F0100085F0100085F0100085F01000800
:100060005F0100085F0100085F0100085F010008F0
:100070005F0100085F0100085F0100085F010008E0
:100080005F0100085F0100085F0100085F010008D0
:100090005F0100085F0100085F0100085F010008C0
:1000A0005F0100085F0100085F0100085F010008B0
:1000B0005F0100085F0100085F0100085F010008A0
:1000C0005F0100085F0100085F0100085F01000890
:1000D0005F0100085F0100085F0100085F01000880
:1000E0005F0100085F0100085F0100085F01000870
:1000F0005F0100085F0100085F0100085F01000860
:100100005F0100085F0100085F0100085F0100084F
:100110005F0100085F0100085F0100085F0100083F
:100120005F0100085F0100085F0100085F0100082F
:10013000DFF80CD000F0A4F900480047C917000808
:10014000080400200648804706480047FEE7FEE70F
:10015000FEE7FEE7FEE7FEE7FEE7FEE7FEE7FEE777
:1001600035100008310100082DE9FE4F81EA030433
:1001700004F0004421F0004100944FF0000B23F004
:10018000004350EA01045ED052EA03045BD0C3F39B
:100190000A54C1F30A552C44A4F2F3340194A0FB91
:1001A0000254C1F3130141F48011C3F3130343F468
:1001B000801301FB024400FB034E840A970A44EAC1
:1001C000815447EA8357A4FB076802958D0A05FB13
:1001D00007854FEA932C04FB0C542705029D4FEA38
:1001E000065847EA1637B5EB08056EEB070C870E85
:1001F000920E47EA811742EA8312A7FB0201B6EB8F
:100200000B0164EB00042B0D43EA0C335E1844EB46
:100210001C50DA465146E7FB0201C5F313044FEACE
:100220000B3343EA14534FEA0432019C43EA0603BA
:10023000A4F10C040294009CCDE900B400F0D1F8C4
:1002400003B0BDE8F08F00200146F9E72DE9F04D3D
:1002500081EA030404F0004B21F0004514464FF0FE
:10026000000A23F0004150EA050220D054EA0102BE
:100270001DD0C5F30A570246C5F31303C1F313009B
:10028000C1F30A5640F4801543F48013A7EB060827
:10029000101BD64608F2FD3873EB050002D308F1B7
:1002A000010801E092185B41B8F1000F03DA002069
:1002B0000146BDE8F08D00204FF4801106468446CB
:1002C0000EE0171B73EB050705D3121B63EB050349
:1002D00006434CEA010C49084FEA300092185B4192
:1002E00050EA0107EDD152EA030012D082EA04007D
:1002F00083EA0501084305D0101BAB4106D2012259
:10030000002306E000224FF0004302E06FF00102FC
:1003100053101AEB06004CEB085110EB0A0041EBAE
:100320000B01BDE8F04D00F04DB80EB5C10F80EAED
:10033000E0700844CA07002140F233438DE80E0004
:100340000A460B4600F04DF803B000BD0EB540F272
:10035000334102910021CDE900110A460B4600F01D
:1003600040F803B000BD70B5C1F30A5201F000457A
:100370000024C1F3130140F2FF3341F480119A428B
:1003800001DA002070BD40F233439A42A2F23342B8
:1003900003DC524200F006F800E090402C43F1D01C
:1003A000404270BD202A04DB203A21FA02F00021ED
:1003B000704721FA02F3D040C2F120029140084375
:1003C0001946704710B5141E73F1000408DA401C7A
:1003D00041F1000192185B411A4301D120F0010064
:1003E00010BD2DE9F04D92469B4611B1B1FA81F254
:1003F00002E0B0FA80F22032904600F053F8044652
:100400000F4640EA0A0041EA0B0153465A460843A8
:1004100013D0114653EA010019D0C8F140025046EA
:10042000FFF7C0FF05460E4650465946424600F0CB
:1004300039F8084305D0012004E020463946BDE8DC
:10044000F08D0020054346EAE0762C4337430A98B6
:100450006305E40AA0EB08000022FD0A44EA4754C1
:100460000A3002D500200146E9E70105101969416B
:10047000DDE9084500196941BDE8F04DA2E700003B
:10048000064C074D06E0E06840F0010394E80700E1
:1004900098471034AC42F6D3FFF74EFE20200008F8
:1004A00040200008202A04DB203A00FA02F1002054
:1004B00070479140C2F1200320FA03F319439040A2
:1004C00070472DE9FE4F804681EA0300C00F0C46BD
:1004D000009021F0004123F00045B8EB0200A94153
:1004E00005D24046214690461C460B46024623F064
:1004F0000040104347D0270DC7F30A00C3F30A5149
:100500000290401A019040286BDAC3F3130040F4C4
:10051000801B0098924620B10023D2EB030A63EBC4
:100520000B0B01985946C0F140025046FFF7BAFF45
:1005300006460D4650465946019A00F080F810EBE9
:1005400008006141002487EA115284EAE7731A43E4
:1005500040D0009A62B3019A012A4FEA075215DC93
:10056000001B61EB02014FF0004202EA0752CDE9A5
:100570000042001C41F5801132462B46FFF731FF47
:1005800003B0BDE8F08F40462146F9E7001B61EB60
:100590000201001C41F5801300185B412018A2F5F0
:1005A000001747EB030140EAD570B6196D4111E021
:1005B0006D084FEA360645EAC0754FEA0752001B40
:1005C00061EB0201001C41F5801149084FEA30003F
:1005D0000019514132462B4603B0BDE8F04FFFF7FA
:1005E000F1BE0098012240000023D0EB020263EB31
:1005F000E073009821464FEAE074B8EB000061EB2D
:100600000401E9E783F000435BE781F0004158E72C
:1006100070B521F0004303430CD0C1F30A55002408
:10062000D5EB040564EB0403D617AD1AB34102DB26
:100630000020014670BD201841EB025170BD202AF8
:1006400006DBCB17203A41FA02F043EAE07306E0FA
:1006500041FA02F3D040C2F120029140084319460A
:10066000704700BFFEE7704701B502E00098401EEA
:10067000009000980028F9D108BD000051B1820017
:10068000A2F1C042126842F001038200A2F1C0420E
:10069000136009E08200A2F1C0421268034B1A40C5
:1006A0008300A3F1C0431A6070470000FEFF0F00F3
:1006B000D0E901121143C268114302691143426932
:1006C000114382691143C2691143026A1143426AAC
:1006D0001143826A1143C26A1143026B11430268DB
:1006E0009200A2F1C0421160816808290BD1016813
:1006F0008900A1F1C041096841F040020168890008
:10070000A1F1C0410A60416B0968426B526841EA3D
:100710000211426B926841EA0221426B928941EADE
:100720000241426B128A41EA0251426B127D41EA58
:100730000261426B926911430268521C9200A2F15D
:10074000C0421160C16AB1F5804F1BD1816B09684D
:10075000826B526841EA0211826B926841EA02217F
:10076000826B128A41EA0251826B127D41EA026178
:10077000826B9269114302689200A2F1C042C2F8F2
:10078000041107E06FF0704201688900A1F1C041D7
:10079000C1F8042170472DE9F041024600250026EA
:1007A000002000230024002791F803C00CF00F055F
:1007B00091F803C00CF0100CBCF1000F03D091F8BD
:1007C00002C04CEA050591F800C0BCF1000F31D021
:1007D000146800202BE04FF0010C0CFA00F3B1F884
:1007E00000C00CEA03069E4220D183004FF00F0C9C
:1007F0000CFA03F7BC4305FA03FC4CEA040491F835
:1008000003C0BCF1280F06D14FF0010C0CFA00FC1C
:10081000C2F814C00AE091F803C0BCF1480F05D13A
:100820004FF0010C0CFA00FCC2F810C0401C082864
:10083000D1D31460B1F800C0BCF1FF0F34DD5468AF
:1008400000202EE000F1080C4FF0010808FA0CF32C
:10085000B1F800C00CEA03069E4221D183004FF09C
:100860000F0C0CFA03F7BC4305FA03FC4CEA040432
:1008700091F803C0BCF1280F05D100F1080C08FA6B
:100880000CF8C2F8148091F803C0BCF1480F07D1EE
:1008900000F1080C4FF0010808FA0CF8C2F81080BB
:1008A000401C0828CED35460BDE8F08141617047F8
:1008B0000161704700BFFEE710B504462CB14FF44C
:1008C00080510548FFF7F2FF04E04FF480510248E1
:1008D000FFF7EEFF10BD0000001401402DE9F041CC
:1008E00006460F4614461D46DDF818802B46224664
:1008F0003946304600F09BF904FB05F0414600F014
:10090000FDF8BDE8F08100002DE9F04780468946FA
:100910001546A5F1200000F0FF0A102308224946E1
:10092000404600F084F92C2000F0DEFA002417E0A5
:100930000D4800EB0A10065D00270DE006F00100EF
:1009400018B11F2000F0D4FA03E04FF6FF7000F05A
:10095000CFFA7610781CC7B2082FEFDB601CC4B248
:10096000102CE5DBBDE8F0870C1900082DE9F047F5
:100970008CB005460E461746984600244FE02046A8
:10098000FFF7D3FC294A2A4BCDE90001FFF7ECFB26
:100990000022284BCDE90201FFF758FCCDE9040104
:1009A00000F0C4FECDE908013846FFF7CFFCCDE9E1
:1009B0000601DDE90823FFF7D7FBCDE90A01FFF7C0
:1009C000D2FC00EB05092046FFF7AFFC174A184B95
:1009D000CDE90001FFF7C8FB0022164BCDE902016B
:1009E000FFF734FCCDE9040100F040FFCDE9080138
:1009F0003846FFF7ABFCCDE90601DDE90823FFF738
:100A0000B3FBCDE90A01FFF7AEFC00EB060A1FFAC3
:100A10008AF11FFA89F0424600F00EF8A41CB4F5E2
:100A2000B47FACDB0CB0BDE8F0870000F1D4C85354
:100A3000FB2109400080664070B505460E4614460D
:100A400001231A463146284600F0F1F821460120DC
:100A500000F054F870BD70B505460E46144617E018
:100A600028460830F02803DD002506F1100086B284
:100A700030461030B0F5A07F01DD00250026227839
:100A800031462846FFF740FF641C05F1080085B297
:100A900020780028E4D170BD00B597B0012108028C
:100AA00000F030FA0220019000200290052003900F
:100AB00000200490059006904FF080500790002091
:100AC0000890099008200A9010200B9000200C90AC
:100AD0000E900F9010904FF48050119000201290C3
:100AE0001390149001A81590169008A8FFF7E0FD48
:100AF00001210020FFF7C2FD17B000BD70B504460C
:100B00000D4600262C2000F0EFF900BF03E0284638
:100B100000F0EEF9761CA642F9D370BD08B50121AC
:100B2000084600F0FFF90121602000F0FBF90320E6
:100B30008DF8020018208DF803004CF20370ADF818
:100B4000000069462C48FFF726FE4FF68070ADF88E
:100B5000000069462948FFF71EFE03208DF80200B9
:100B600018208DF803001020ADF8000069462248D7
:100B7000FFF711FE2020ADF8000069461E48FFF780
:100B80000AFE0121202000F0CDF98020ADF8000000
:100B900069461948FFF7FFFD0121202000F0C2F946
:100BA0004FF40060ADF8000069461348FFF7F3FD0D
:100BB00010208DF8030003208DF802000121402051
:100BC00000F0B0F90220ADF8000069460B48FFF7CD
:100BD000E2FD10208DF8030003208DF802000121B2
:100BE000202000F09FF94FF48050ADF800006946D6
:100BF0000148FFF7D0FD08BD001401400018014076
:100C000008B5FFF78BFFFFF747FF0120FFF754FE02
:100C100000F056F900F03CF84FF6FF704FF4A07367
:100C2000F022002100900846FFF758FE08BD2DE98C
:100C3000F04104460D4616461F462A2000F054F99E
:100C4000201200F055F9E0B200F052F9A119491E46
:100C5000C1F30F2000F04CF9A119491EC8B200F0F1
:100C600047F92B2000F040F9281200F041F9E8B2D2
:100C700000F03EF9E919491EC1F30F2000F038F9E0
:100C8000E919491EC8B200F033F9BDE8F08100004F
:100C900010B5CF2000F028F9002000F029F98120BC
:100CA00000F026F9302000F023F9ED2000F01CF9C7
:100CB000642000F01DF9032000F01AF9122000F062
:100CC00017F9812000F014F9E82000F00DF98520D3
:100CD00000F00EF9102000F00BF9782000F008F970
:100CE000CB2000F001F9392000F002F92C2000F0AF
:100CF000FFF8002000F0FCF8342000F0F9F80220A2
:100D000000F0F6F8F72000F0EFF8202000F0F0F8FF
:100D1000EA2000F0E9F8002000F0EAF8002000F0F6
:100D2000E7F8B12000F0E0F8002000F0E1F81B2027
:100D300000F0DEF8B62000F0D7F80A2000F0D8F86E
:100D4000A22000F0D5F8C02000F0CEF8352000F049
:100D5000CFF8C12000F0C8F8112000F0C9F8C52074
:100D600000F0C2F8452000F0C3F8452000F0C0F8BC
:100D7000C72000F0B9F8A22000F0BAF8F22000F085
:100D8000B3F8002000F0B4F8262000F0ADF8012000
:100D900000F0AEF8E02000F0A7F80F2000F0A8F86F
:100DA000262000F0A5F8242000F0A2F80B2000F087
:100DB0009FF80E2000F09CF8092000F099F85420CC
:100DC00000F096F8A82000F093F8462000F090F884
:100DD0000C2000F08DF8172000F08AF8092000F0B0
:100DE00087F80F2000F084F8072000F081F8002039
:100DF00000F07EF8E12000F077F8002000F078F8AD
:100E0000192000F075F81B2000F072F8042000F0A3
:100E10006FF8102000F06CF8072000F069F82A2025
:100E200000F066F8472000F063F8392000F060F821
:100E3000032000F05DF8062000F05AF8062000F0CC
:100E400057F8302000F054F8382000F051F80F2007
:100E500000F04EF8362000F047F8C82000F048F8BF
:100E60002A2000F041F8002000F042F8002000F0B5
:100E70003FF8002000F03CF8EF2000F039F82B207C
:100E800000F032F8002000F033F8002000F030F8D5
:100E9000012000F02DF83F2000F02AF83A2000F061
:100EA00023F8552000F024F8112000F01DF8034825
:100EB000FFF7DAFB292000F017F810BDFCBF020095
:100EC00010B502210648FFF7F1FC0648FFF7CCFBFE
:100ED00002210348FFF7ECFC0248FFF7C5FB10BDF9
:100EE00000180140FCBF02004FF0C041088070476D
:100EF00001490880704700000000026000BFFEE763
:100F00007047704729B1064A52690243044B5A613F
:100F100004E0034A52698243014B5A617047000062
:100F20000010024029B1064A92690243044B9A61BB
:100F300004E0034A92698243014B9A6170470000C2
:100F400000100240704710B500F002F810BD00001C
:100F50000CB50020019000903348006840F48030C8
:100F60003149086000BF3048006800F4003000904C
:100F70000198401C0190009818B90198B0F5A06F35
:100F8000F1D12948006800F4003010B10120009030
:100F900001E0002000900098012843D12348006818
:100FA00040F01000214908600846006820F0030066
:100FB00008600846006840F0020008601A4840686F
:100FC000194948600846406848600846406840F44F
:100FD000806048600846406820F47C1048600846FD
:100FE000406840F4E81048600846006840F08070AF
:100FF000086000BF0C48006800F000700028F9D0BD
:101000000948406820F003000749486008464068E6
:1010100040F00200486000BF0348406800F00C0048
:101020000828F9D10CBD0000001002400020024049
:101030007047000010B51348006840F001001149E6
:10104000086008464068104908400E494860084654
:1010500000680E4908400B4908600846006820F403
:10106000802008600846406820F4FE0048604FF485
:101070001F008860FFF767FF4FF0006004490860B9
:1010800010BD0000001002400000FFF8FFFFF6FE58
:1010900008ED00E000BFFEE7490050EAC12018BF9C
:1010A00004204A0D18BF40F0010040F2FF72B2EB7D
:1010B000515F08BF40F00200012808BF05207047BB
:1010C0002DE9F74F144694B00021C4E90211159997
:1010D000079121F00045C9498D4206DC1599C4E904
:1010E000000117B00020BDE8F08FC549DFF814A358
:1010F000A9423CDD0799C44E0029C44FC44A159942
:10110000534619DDFFF77EFA554506D0C14AC24B5A
:10111000FFF778FAC4E900010AE04FF0D352BE4B62
:10112000FFF770FA32463B46FFF76CFAC4E900015C
:1011300017B00120BDE8F08FFFF7C3F9554506D081
:10114000B44AB54BFFF7BDF9C4E900010AE04FF01E
:10115000D352B14BFFF7B5F932463B46FFF7B1F931
:10116000C4E9000117B04FF0FF30BDE8F08FAB4984
:10117000A942159978DB21F0004183468846A84AA8
:10118000A84BFEF7F1FF0022A74BFFF79AF9FFF7F4
:10119000EAF80990FFF7C9F806460F469C4A5346FD
:1011A000FEF7E2FF43465A46FFF72FFA80468A468B
:1011B000984A994B30463946FEF7D6FF2A0D01254D
:1011C0000B9242465346FFF720FA032DC4E9000173
:1011D00039D00B98C1F30A51401A05EB451111396A
:1011E000814230DA9148C346784400EB0510CDF8CF
:1011F0000CA00C90D0E9002330463946FEF7B4FF2E
:1012000002460B460491069058460399FFF7FAF9F7
:1012100080468A4602460B4658460399FFF7F2F984
:10122000049B069AFFF7EEF983460C980391394622
:10123000D0E902233046FEF797FF5A46039BFFF79B
:10124000E1F96D1CBDE707980028A2BF099817B007
:10125000BDE8F08F616881F000416160099817B0C6
:101260004042BDE8F08FFFE784461598C1F31301B3
:10127000C0F30A50A0F2F5304FEA601800F01F06E4
:10128000C6F12000139000200690079041F4801EC4
:1012900005206D4676B1664A08EB00017A4452F8A3
:1012A000213002EB8101B3404A68139922FA01F11F
:1012B000194305E05F4908EB0002794451F8221018
:1012C000A1FB0E27A1FB0C131A449A4234BF012341
:1012D000002303EB070A05EB8003D3E901B70F44B2
:1012E0008F4234BF0121002193448B4411B19345B7
:1012F00002D903E0934501D2012100E00021C3E9B6
:1013000001B7514445F82010011EA0F10100C1DCD5
:101310000298059F00F10050800F12900298DDE9BD
:1013200003568000FFF701F8834628460D91FFF72A
:101330000DF86FF01D02FFF76BF9CDE90E01304695
:10134000FFF704F86FF03D02FFF762F980468A4626
:101350003846FEF7FBFF6FF05D02FFF759F90746CD
:10136000424653461191FFF7ACF8DDE90E23FFF733
:10137000A8F85A460D9BFFF7A4F800250E465A46DA
:1013800028460D9BFFF73EF9DDE90E23FFF73AF9FA
:1013900042465346FFF736F93A46119BFFF735F9B7
:1013A000DFF898A0244A5346FEF7DEFE074688463B
:1013B000234A244B31462846FEF7D6FE3A4643469A
:1013C000FFF77FF8074688464FF0A842534631465C
:1013D0002846FEF7C9FE3A464346FFF772F8159ACB
:1013E00012F0004F04D0129A81F000415242129242
:1013F000C4E90001129817B0BDE8F08FFB21E93F66
:101400007CD90240FB21F93F7370032E8A19A33B5C
:10141000000040543163621A61B4D03DFB21394170
:1014200083C8C96D305FE43F0000E03F440D000019
:10143000C00C0000A20C0000182D4454FB21F93D03
:101440003326A611460B113C2DE9FF4D21F0004833
:1014500007460C46B8F1795F08DAFEF784FF0028EA
:1014600001BF0020324904B0BDE8F08D3A46234662
:1014700010461946FEF778FE054602462D480E46F0
:101480000B460621784400F05DF82A463346FEF705
:101490006BFEDDE9022382468B4638462146FEF785
:1014A00063FE04460F4652465B4628463146FEF729
:1014B0005BFE22463B46FFF7A5F807468A464FF0FB
:1014C000FF3228463146FFF7A3F81B4A90450ADA57
:1014D0003A465346FFF796F804B00022BDE8F04DB7
:1014E000134BFFF792B8154A4245A8BFA8F500155F
:1014F0004FF00004B8BF124D22462B46FFF782F88A
:101500000646884622462B4600200949FFF77AF80E
:1015100004460D463A46534630464146FFF772F8B8
:1015200004B022462B46BDE8F04DFFF76EB8000030
:101530000000F03F780A00003333D33F0000E93F5A
:101540000000D23F2DE9F0414F1E00EBC7010446D9
:10155000D1E9000115461E4637F006020DD02A4695
:101560003346FEF701FE7F1E04EBC703D3E90023D9
:10157000FEF7A7FF37F00602F1D1022F25D0042F86
:1015800013D0062F18BFBDE8F0812A463346FEF778
:10159000EBFDD4E90A23FEF794FF2A463346FEF713
:1015A000E3FDD4E90823FEF78CFF2A463346FEF715
:1015B000DBFDD4E90623FEF784FF2A463346FEF717
:1015C000D3FDD4E90423FEF77CFF2A463346FEF719
:1015D000CBFDD4E90223FEF774FF2A463346FEF71B
:1015E000C3FDD4E90023BDE8F041FEF76ABF000067
:1015F0002DE9FF4D054621F0004084B00C46B0F1C6
:10160000795F0BDA2846FFF747FD042808BF00F092
:101610006FF8284608B02146BDE8F08D2A460B46F3
:101620001046FEF7A1FD06460F462A462346FEF762
:101630009BFD804626488A4632463B460521784433
:10164000FFF780FF83461098029160B3214A224B36
:1016500040465146FEF788FDCDE900015A46404616
:101660005146029BFEF780FD82468846DDE9060171
:101670004FF0FF32FEF7CCFF52464346FEF7C2FF63
:1016800032463B46FEF770FDDDE90623FEF7BAFF62
:10169000DDE90023FEF7B6FF08B02A462346BDE881
:1016A000F04DFEF7B2BF0B465A4630463946FEF7BC
:1016B0005BFD084A084BFEF704FF42465346FEF71F
:1016C00053FD08B02A462346BDE8F04DFEF7F9BEAB
:1016D000B6090000495555555555C5BF0122FEF7BD
:1016E00097BF0022134610461146FEF7AFBD00001B
:1016F000024A00201107FEF78BBF000001FDFFFF2B
:1017000002E008C8121F08C1002AFAD170477047CA
:10171000002001E001C1121F002AFBD17047000028
:1017200001490860704700000400002000B5244B08
:1017300021F0004287B09A42DCBF0022134629DD27
:10174000204B9A4208D140B94FF00100FFF7E8FF63
:10175000FFF7C7FF07B000BD03DBFFF7BFFF07B010
:1017600000BD02AAFFF7ACFC10F0030104BF0DF1AD
:10177000080C9CE80F000DD0012001290ED0022991
:1017800014D00DF1080C00909CE80F00FFF730FF1B
:1017900007B000BDFFF758FE07B000BD0DF1080C03
:1017A00000909CE80F00FFF723FF05E00DF1080C07
:1017B0009CE80F00FFF748FE07B081F0004100BD34
:1017C000FB21E93F0000F07F08B5FFF719FA21A2DD
:1017D00000210846FFF73FF901211020FFF7A2FB87
:1017E0004FF40050ADF8000004208DF80300694666
:1017F0001C48FEF7D0FF2BE01A48806800F4005028
:1018000030B31948006818B30020174908601F2337
:101810001E22A0213C20FFF7A9F84FF6E0731E22FC
:10182000BE215A20FFF7A2F800231E22A021782013
:10183000FFF79CF84FF4FC631E22BE219620FFF7B1
:1018400095F84FF478431E22A021B420FFF78EF8BC
:10185000D2E70000486F6E672057696E67205041DD
:101860004E470000001001400000002000B5254B4D
:1018700021F0004287B09A4203DC00221346009216
:101880002BE0214B9A4208D140B94FF00100FFF7FD
:1018900047FFFFF726FF07B000BD03DBFFF71EFF82
:1018A00007B000BD02AAFFF70BFC10F003014FF0D8
:1018B00001000DD0012914D002291AD00DF1080C15
:1018C0009CE80F00FFF7C0FD07B081F0004100BDAC
:1018D0000DF1080C00909CE80F00FFF789FE07B09F
:1018E00000BD0DF1080C9CE80F00FFF7ADFD07B03F
:1018F00000BD0DF1080C00909CE80F00FFF778FE8A
:10190000E2E70000FB21E93F0000F07F000000005B
:1019100000000000000000000000000000000018AF
:101920003C3C3C181800181800000000000000663D
:101930006666000000000000000000000000006C6F
:101940006CFE6C6C6CFE6C6C000000000018183CA7
:1019500066060C183060663C1818000000000E1B6C
:101960005B6E30180C76DAD8700000000000001CA6
:1019700036361C06F66666DC000000000000001823
:1019800018180000000000000000000000000030F7
:1019900018180C0C0C0C0C18183000000000000C6F
:1019A0001818303030303018180C000000000000DB
:1019B000006C38FE386C00000000000000000000E1
:1019C0000018187E18180000000000000000000039
:1019D000000000000000383830180000000000004F
:1019E0000000007E00000000000000000000000079
:1019F0000000000000003838000000000000006017
:101A000060303018180C0C0606000000000000784A
:101A1000CCECECCCDCDCCC7800000000000000302A
:101A2000383E303030303030000000000000003CE4
:101A300066666030180C067E000000000000003C66
:101A4000666660386066663C000000000000000CBE
:101A50000C6C6C6C66FE6060000000000000007E94
:101A60000606063E6060301E0000000000000038E0
:101A7000180C3E666666663C000000000000007EB2
:101A800060303018180C0C0C000000000000003C06
:101A900066666E3C7666663C000000000000003C16
:101AA000666666667C30181C0000000000000000BE
:101AB0000038380000003838000000000000000046
:101AC000003838000000383830180000000000608E
:101AD00030180C060C1830600000000000000000F8
:101AE00000007E007E0000000000000000000006F4
:101AF0000C18306030180C06000000000000003C9C
:101B00006666301818001818000000000000007EFB
:101B1000C3C3F3DBDBF303FE00000000000000188A
:101B20003C6666667E666666000000000000003E59
:101B30006666663E6666663E000000000000003C89
:101B4000666606060666663C000000000000001E91
:101B5000366666666666361E000000000000007E7F
:101B60000606063E0606067E000000000000007E17
:101B70000606063E06060606000000000000003CC1
:101B8000666606067666667C000000000000006659
:101B90006666667E66666666000000000000003CC1
:101BA000181818181818183C0000000000000060F1
:101BB000606060606066663C0000000000000066D7
:101BC0006636361E363666660000000000000006E7
:101BD000060606060606067E00000000000000C697
:101BE000C6EED6D6D6C6C6C600000000000000C6A7
:101BF000C6CEDEF6E6C6C6C6000000000000003C09
:101C0000666666666666663C000000000000003E90
:101C10006666663E06060606000000000000003C00
:101C2000666666666666663C306000000000003EE0
:101C30006666663E36666666000000000000003C90
:101C400066060C183060663C000000000000007E54
:101C5000181818181818181800000000000000665E
:101C6000666666666666663C000000000000006608
:101C70006666666666663C1800000000000000C6E6
:101C8000C6C6D6D6D66C6C6C00000000000000669C
:101C9000662C1818346666660000000000000066B6
:101CA0006666663C18181818000000000000007EE8
:101CB000606030180C06067E000000000000003C4A
:101CC0000C0C0C0C0C0C0C0C0C0C3C00000000065A
:101CD000060C0C1818303060600000000000003C5A
:101CE000303030303030303030303C0000183C661E
:101CF00000000000000000000000000000000000E4
:101D000000000000000000000000FF00001C183070
:101D100000000000000000000000000000000000C3
:101D2000003C60607C66667C0000000000000006ED
:101D3000063E66666666663E000000000000000023
:101D4000003C66060606663C0000000000000060DD
:101D5000607C66666666667C00000000000000002D
:101D6000003C66667E06063C00000000000000782D
:101D70000C0C0C7E0C0C0C0C000000000000000091
:101D8000007C66666666667C60603E000000000659
:101D9000063E66666666666600000000000018186B
:101DA000001E18181818187E0000000000003030BF
:101DB000003C30303030303030301E000000000643
:101DC000066666361E366666000000000000001ECD
:101DD000181818181818187E0000000000000000DD
:101DE000007ED6D6D6D6D6C6000000000000000081
:101DF000003E666666666666000000000000000041
:101E0000003C66666666663C00000000000000005C
:101E1000003E66666666663E060606000000000036
:101E2000007C66666666667C60606000000000009C
:101E30000066760E060606060000000000000000A0
:101E4000007C06063C60603E000000000000000CC4
:101E50000C7E0C0C0C0C0C78000000000000000044
:101E6000006666666666667C000000000000000092
:101E70000066666666663C18000000000000000010
:101E800000C6D6D6D6D66C6C00000000000000005C
:101E90000066663C183C666600000000000000001A
:101EA000006666666666663C30180F00000000003B
:101EB000007E6030180C067E00000000000000303C
:101EC0001818180C060C181818300000000000181C
:101ED0001818181818181818181818000000000CEE
:101EE0001818183060301818180C00000000008E08
:101EF000DB71000000000000000000000000000096
:101F00004C5555555555A53F7751C1166CC156BF17
:101F10009015CB19A001FA3EAD529C804F7E92BE27
:101F2000C4B1B4BD9EEE213ED43888BEE9FAA8BD46
:101F300000004054FB21F93F3163621A61B4D03D87
:101F40000000601A61B4D03D7370032E8A19A33B60
:101F50000000002E8A19A33BC14920259A837B39B2
:101F600000000000000000006E83F9A22915444E15
:101F7000D15727FCC0DD34F5999562DB4190433C95
:101F8000AB6351FE61C5BBDE3A6E24B7E0D24D4271
:101F9000EA2E49061C92D1091CEB1DFE3EA729B171
:101FA000F53582E88444BB2E26709CE9417E5FB4FF
:101FB00039D69139F43953838B5F849C3B28F9BD22
:101FC000FF97F81F0F9805DE8B112FEF1F6D0A5A30
:101FD000CF7E366DB709CB27663F464F2DEA5F9E11
:101FE000C7BA27757BF1E5EBF739073DEA92528ACC
:101FF000B15FFB6B085D8D1FA6F810111111813FB9
:10200000D561C119A0012ABF7DFEB157E31DC73EAE
:10201000EB9C2B8AE6E55ABE7CD5CF5A3AD9E53DF2
:102020004020000800000020080000000017000801
:1020300048200008080000200004000010170008D5
:08204000010000000000000097
:0400000508000131BD
:00000001FF
