:020000040800F2
:10000000481800201D030008832000087B200008FA
:100010007F2000088B1D0008692B000800000000ED
:10002000000000000000000000000000BD230008E8
:10003000FD1D00080000000011210008ED2400084B
:1000400037030008370300083703000837030008A8
:100050003703000837030008370300083703000898
:1000600037030008011E0008251E0008370300089A
:100070003703000837030008370300083703000878
:100080003703000837030008370300083703000868
:10009000370300083703000837030008491E00082B
:1000A0003703000837030008370300083703000848
:1000B0003703000825260008370300083703000827
:1000C0003703000837030008370300083703000828
:1000D0003703000837030008370300083703000818
:1000E0003703000837030008370300083703000808
:1000F00037030008370300083703000837030008F8
:1001000037030008370300083703000837030008E7
:1001100037030008370300083703000837030008D7
:1001200037030008370300083703000837030008C7
:1001300037030008370300083703000837030008B7
:1001400037030008370300083703000837030008A7
:100150003703000837030008370300083703000897
:100160003703000837030008370300083703000887
:100170003703000837030008370300083703000877
:10018000370300083703000800F002F800F0B6F863
:100190000AA090E8000C82448344AAF10107DA45E2
:1001A00001D100F0ABF8AFF2090EBAE80F0013F07E
:1001B000010F18BFFB1A43F00103184780410000EC
:1001C000A041000010F8013B0A4413F0030408BFEB
:1001D00010F8014B1D1108BF10F8015B641E05D01B
:1001E00010F8016B641E01F8016BF9D1002D15D0D8
:1001F00010F8014B03F00C030C2BA1EB04040ABF15
:1002000010F8013BA4EB8314A4EB032405F10103D4
:1002100014F8016B5B1E01F8016BF9D5914238BFF0
:1002200010F8013BD1D3704700230024002500269D
:10023000103A28BF78C1FBD8520728BF30C148BF49
:100240000B6070476E2900F06F81702900F0B18259
:10025000662903F0F087652903F0ED87672903F02D
:10026000EA87612903F0E98703681B0A28BF41F088
:100270008001692900F01C81642900F01981752929
:1002800000F016816F2900F03F82782900F07D820E
:10029000E92900F0D981E42900F0D681F52900F0A0
:1002A000D381EF2900F03C82F82900F07C820368BA
:1002B000DB0928BF41F08001632900F07D877329A5
:1002C00000F08287E32900F08D87F32900F0928700
:1002D000002070471FB503F0A9FF00F0DDFF040008
:1002E0000020002103F08CFF401C606000200021F2
:1002F00003F070FFE0601FBD10B510BD00F09EFF61
:100300001146FFF7E7FF02F0DFFD01F077F803B4D5
:10031000FFF7F2FF03BC01F0BFF800000948804777
:1003200009480047FEE7FEE7FEE7FEE7FEE7FEE7D7
:10033000FEE7FEE7FEE7FEE704480549054A064BEF
:1003400070470000BD250008890100084812002000
:100350004818002048140020481400201CB50C4602
:10036000064B7B4469460090204600F0F6F80446B0
:100370000020694600F004F920461CBD1B02000065
:1003800010B5203AC0F00B80B1E81850203AA0E830
:100390001850B1E81850A0E81850BFF4F5AF5FEA64
:1003A000027C24BFB1E81850A0E8185044BF18C917
:1003B00018C0BDE810405FEA827C24BF51F8043BBE
:1003C00040F8043B08BF7047D20728BF31F8023B12
:1003D00048BF11F8012B28BF20F8023B48BF00F8A6
:1003E000012B704770477047704770B504468569A8
:1003F0000068C10601D5302600E02026C00707D0DE
:1004000070BDD4E9012130469047206A401C20622B
:100410006D1EF6D570BD70B5044685690078C007BD
:1004200007D170BDD4E9012120209047206A401CEB
:1004300020626D1EF6D570BD09684A0501D540B22F
:100440007047C905FCD500B2704709684A0501D557
:10045000C0B27047C905FCD580B2704770B50C4674
:100460000546012A05D02878800600D5EA690023D0
:1004700002E0012305E05B1C934202D2E05C00280D
:10048000F9D1A869E618C01AA861286A1844286238
:100490002846FFF7AAFF04E0D5E9012114F8010B73
:1004A0009047B442F8D32846FFF7B5FF70BD00006F
:1004B0002DE9F0410646002410687529314616A53D
:1004C00010D0FFF7B9FF002802DA404213A507E079
:1004D00031688A0701D512A502E0490704D511A5A4
:1004E000012401E0FFF7B1FF00210A2206F12407F1
:1004F00009E0B0FBF2FCB0FBF2F302FB1C00303071
:1005000078541846491C0028F3D123462A46304621
:10051000BDE8F04100F061BA000000002D000000CD
:100520002B0000002000000011680268006A5305DB
:1005300001D508700AE0D30501D5088006E013064E
:1005400003D5C217C1E9000200E00860012070472E
:1005500001694A1C02610878704700B58FB0CDE987
:1005600001310021059105497944CDE90310114677
:10057000684600F029F90FB000BD0000E5FFFFFF5D
:100580000A6802F8010B0A60704700002DE9FF5F5E
:1005900015468A460446DFF8AC80F8440027D8E9BF
:1005A00000103E46CDE9001010E03AF816106A46F9
:1005B00002A800F023FE411C07D02178890603D54C
:1005C000E269391891420DD80744761C20788006DC
:1005D00002D5E069B84205DDAE42E6DB3AF8160026
:1005E0000028E2D1A069C01BA0612046FFF7FDFEF4
:1005F000D8E90010CDE90010002017E03AF81810F3
:100600006A4602A800F0FAFDB0F1FF3F81460BD028
:1006100000250DF1080B05E0D4E901211BF80500C8
:1006200090476D1C4D45F7D308F10100B04280465C
:10063000E4DB206A384420622046FFF7ECFEBDE888
:10064000FF9F0000A23C00002DE9F0418046D21D32
:1006500022F007020025D2E90002F52915A614D0E0
:10066000011E72F1000106DA0023D0EB030063EBF8
:10067000020211A608E0D8F800108B0701D50FA6DA
:1006800002E0490701D50EA601251146002408F114
:10069000240704E000F05CF930323A55641C50EA5B
:1006A0000102F7D12B46324621464046BDE8F041D3
:1006B00000F093B9000000002D0000002B000000A6
:1006C0002000000030B4002100F1240408E002F012
:1006D0000705D208303542EA4372DB086554491CED
:1006E00052EA0305F3D10468002310A2250708D5B8
:1006F00004F020040C4304D0C46901230CA2641E3E
:10070000C46130BC00F069B910B5044621461068D8
:10071000FFF79BFE02462046BDE810400023D1E7CC
:10072000D21D22F00701D1E90023CBE70000000031
:1007300030000000F0B40D460188090502D5214CB7
:100740007C4402E01F4C7C440E34002100F124065E
:1007500008E002F00F071209E75D42EA03721B0985
:100760007754491C52EA0307F3D102780023120799
:1007700004D5702D06D009B1022311342246F0BCF5
:1007800000F02BB901231034F8E770B504460D468C
:1007900021461068FFF759FE024629462046BDE86B
:1007A00070400023C6E7D21D22F00703D3E90023DF
:1007B000C0E70368126843F0200303600823C361A5
:1007C0000023B7E7043B00002DE9F05F89460446AB
:1007D0004FF0000ADFF874B1FB44C0F820A02046B7
:1007E000E1688847002874D0252806D0D4E9012183
:1007F0009047206A401C2062F1E700265F462046B1
:10080000E16888472028054607DB312D05D2781995
:1008100010F8200C08B10643F1E7B00701D526F027
:100820000406C4F81CA00027C4F818A02A2D09D07B
:10083000284602F0C1F938B304EB8708303DC8F808
:10084000185019E059F8041B204604EB8702916107
:10085000E1688847012F054618D1E069002820DAB1
:1008600026F020061DE0D8F8180000EB800005EB0C
:1008700040003038C8F818002046E168884705462F
:1008800002F09AF90028EED1012F0AD02E2D08D1BE
:100890002046E16888477F1C0546022F46F0200667
:1008A000C4DBA069002803DA404246F00106A061DB
:1008B000F00701D026F010066C2D0BD0682D09D062
:1008C0004C2D39D06A2D35D0742D35D07A2D33D0BA
:1008D00016E038E0E1682F4620468847B8420546D2
:1008E00009D16C2F26D04FF48060E1680643204682
:1008F0008847054604E06C2F1AD04FF480700643F9
:100900000DB3A5F14100192802D8203546F4006640
:100910004A462946204626604E46FFF793FC80B1A2
:1009200001280BD0F61D26F0070000F1080956E754
:100930004020E4E78020D8E70020D6E706F104094C
:100940004DE7284652E7206ABDE8F09F943A000040
:1009500030B5B0F10A024FEA900E71F100034EEA91
:10096000817EB0EB0E0061EB91014FEA101E4EEA62
:10097000017E10EB0E0041EB11114FEA102E4EEAF2
:10098000016E10EB0E0041EB11214FEA104E4EEAC2
:10099000014E10EB0E0041EB1141401841F10001F6
:1009A0004FEAD00040EA41704FEAD10110EB8005D8
:1009B0004FEA810444EA907444EB01046D1944EB5E
:1009C0000404521BA3414FF0000348BF0A3200D574
:1009D00030BD401C41F1000130BD2DE9F0470D460E
:1009E00099469246044600F124080168880604D519
:1009F000E06921F01001216000E00120A84201DD42
:100A0000471B00E00027A1697A1902EB0900081AC8
:100A1000A0612078C00602D42046FFF7E6FC00263D
:100A200008E0D4E901211AF806009047206A401C2A
:100A3000761C20624E45F4DB2078C0060AD520469D
:100A4000FFF7D3FC06E0D4E9012130209047206A6B
:100A5000401C2062381EA7F10107F4DC07E0D4E94E
:100A6000012118F805009047206A401C2062281ECA
:100A7000A5F10105F3DC2046FFF7CDFC2078000648
:100A800002D50220BDE8F0870120FBE770472DE981
:100A9000FF4F0C461E464FF0FF378BB0D2E90001E6
:100AA000DDF860800A908A46C1F30A5505B93D46D3
:100AB000002108464FF00000BAF1000F00F440009A
:100AC00005DA00EB80004FF4400101EA50004FEAE4
:100AD0009059B9F1010F00DDB9460A9850EA4A0071
:100AE0000ED044F61050A5F2FF3545432F14B8F14F
:100AF000000F1ED07542291E1EDDC9F100021CE048
:100B0000B8F1010F4FF0000001D0302103E0F243B3
:100B100005E02154401CB042FBDB3046002200219E
:100B200021540B99C1F80880C1E900200FB0BDE83D
:100B3000F08FBD1B6D1CDEE74A4600DA694206A84D
:100B400000F0EEFB06AB93E8070003AB83E8070079
:100B500050460A9900F0A7FC8DE80700A0F5005068
:100B60001F3800900398002D09DD42F21F014A460C
:100B7000084403A90390684600F006FF08E0A0F5CA
:100B800000504A461F3803A90390684600F010FF42
:100B90008DE807000004000C03D04FF0FF3041083F
:100BA00000E01046B8F1000F03D000220092154675
:100BB0001EE0751E05D4FFF7CBFE303262556D1E68
:100BC000F9D5B3460122084302D000227F1C04E07D
:100BD0002078302801D100227F1E002A099786D074
:100BE0001DE0112D07DAFFF7B3FE303262556D1CA0
:100BF00050EA0102F5D1084302D00098C8B10EE0D6
:100C00000021681E05E0235C625C63542254401E90
:100C1000491C8142F7DBAB46A81B401E099000200F
:100C200004F80B000B98099AC0F80880C0E9002B63
:100C30007CE711264FF0000859E72DE9F04F884670
:100C40000446D21D22F0070191B0D1E90001CDE99F
:100C50000A0101F08BFF02460B98C00F01D02D2036
:100C600007E02068810701D52B2002E0202101EA5E
:100C7000C000032A099001D0072A05DB034641463C
:100C8000204600F00DFB0BE12078800601D5E069DD
:100C900000E00620B8F1650F814606D0B8F1660F76
:100CA00018D0B8F1670F70D131E00020B9F1110F01
:100CB000009001DB112301E009F101030AAA01A957
:100CC0000CA8FFF7E4FEDDE90C70002609F1010530
:100CD000834647E001204B4600904FF000470AAAA8
:100CE00001A90CA8FFF7D3FEDDE90DB00C995D4614
:100CF000002610B909F101000D18B9EB050003D465
:100D0000C0F1FF3609F10105A5EB09002BE0B9F1AF
:100D1000010F01DA4FF001090020B9F1110F009025
:100D2000484601DD112300E003460AAA01A90CA8E8
:100D3000FFF7ADFEDDE90C704D46002683462078B6
:100D400000070AD4AB4500DA5D4601A8012D04DD99
:100D5000411911F8011C302907D04F4502DA17F16B
:100D6000040F04DA012082460FE06D1EEEE7002F2B
:100D700002DCED1B3E4403E0781CA84200DD7D1C34
:100D8000B81B00F1010A4FF000472078000703D498
:100D9000AA4501DB4FF0FF3A0021B7F1004F0DF1FA
:100DA00043088DF8431024D002202B23002F01DAB2
:100DB0007F422D230A21021EA0F1010000DC5FB159
:100DC00097FBF1FC97FBF1F201FB1C7C17460CF141
:100DD000300C08F801CDEEE7A8F10100037021887E
:100DE000090501D5452100E06521A0F1010800F8C1
:100DF000011C09980FA9A1EB0807FF1D00B10120F4
:100E0000411901EBEA70A1693844081A401EA0613B
:100E10002078C00602D42046FFF7E7FA099828B1E7
:100E2000D4E901219047206A401C20622078C00646
:100E300022D52046FFF7D9FA1EE0002E04DBB34589
:100E400002DD01A8805D00E03020D4E90121904757
:100E5000206A401C2062761CAAF101005FEA000AA9
:100E60000AD100F019FAC0680168405CD4E9012198
:100E70009047206A401C2062281EA5F10105DCDC99
:100E800007E0D4E9012118F8010B9047206A401CC3
:100E90002062381EA7F10107F3DC2046FFF7BBFAFA
:100EA000032011B043E600002DE9F04F04460D4643
:100EB000D21D22F0070089B0D0E900974846394694
:100EC00001F054FE0246F80F01D02D2307E0206800
:100ED000810701D52B2302E0202101EAC0038DF810
:100EE00020300BB1012000E00020032A824601D00F
:100EF000072A04DB2946204600F0D2F93FE120789A
:100F0000800601D40D2500E0E569C7F30A560D2DD2
:100F100049DA00214FEA175B08464FF00000002F26
:100F200000F4400007DA00EB80004FF4400100EBD2
:100F3000D07001EA60008115012901DD4FF0FF3119
:100F400000224FEA850CBCF1180F06D31346ACF112
:100F500018004FF08052C24003E04FF4801323FA90
:100F60000CF30CF10C0CBCF1200F04D3ACF1200CF1
:100F700009FA0CF001E007FA0CF000294FF00048E4
:100F800001DD18B90FE00ED140450CD319EB020971
:100F90005F4121B9404502D19F4329EA0209BBEBD9
:100FA000175F00D0761C2088000502D57B48784466
:100FB00002E07A487844193808AA302302F80A3047
:100FC000037C0AF10101002E0AF1020A53546A4619
:100FD00002DC4FF0300101E04FF031014FF0010829
:100FE0008DF8001002D0A6F2FF3603E059EA47015F
:100FF00000D06B4E002D02DC2178090704D54FF09C
:1010000002082E218DF80110C44600210BE0C7F321
:1010100003433F01C35C491C6D1E02F808300529DB
:1010200008F1010801DA002DF1DC00210CE000EBF1
:101030001973491C1B786D1E082902F808304FEA05
:10104000091908F1010801DA002DF0DC21688B068E
:1010500002D516E0A8F10108E04505DD02EB080322
:1010600013F8013C302BF5D0B8F1000F09DD02EB8D
:10107000080313F8013C2E2B03D1090701D4A8F172
:101080000108002D05DD3E2102F808106D1E08F153
:101090000108407C002E02F8080008F1010804DA7B
:1010A0002D20764202F8080002E02B2002F808000A
:1010B0000A214FF47A70864208F101080BDB96FB97
:1010C000F0F3303302F8083096FBF0F308F1010832
:1010D00000FB136601E0642E0CDB642096FBF0F34A
:1010E000303302F8083096FBF0F308F1010800FBFA
:1010F000136601E00A2E06DB96FBF1F0303002F8B1
:10110000080008F1010896FBF1F001FB1060303097
:1011100002F80800A16908F1010808EB050202EBDA
:101120000A00081AA0612078C00602D42046FFF702
:101130005CF9216A08AE01EB0A00206204E0D4E900
:10114000012116F8010B9047BAF1010AF7D2207875
:10115000C00602D52046FFF748F96E4609E016F8AA
:10116000010B3E280FD0D4E901219047206A401C92
:101170002062B8F10108F2D22046FFF74CF909B01D
:101180000320BDE8F08F206A2844206203E0D4E900
:101190000121302090476D1EEBD3F8E7E2320000CA
:1011A00002FCFFFF10B5436913B1AFF3008001E00B
:1011B000FFF754F9012010BD127800F124010A70E4
:1011C00000224A700122EDE711684FF0FF32E9E793
:1011D00010B5436913B1AFF3008001E0FFF7D6F912
:1011E000012010BD128800F1240182840022C284F3
:1011F0000122EDE711684FF0FF32E9E770B51646BE
:101200000C46054600F040F8036893F801010128F8
:1012100006D0FF2C0FD8185D68B101202C7070BD6E
:10122000D3F807013246214603F207130344284648
:10123000BDE8704018474FF0FF3070BD754600F0B4
:10124000E7F8AE4605006946534620F0070085469C
:1012500018B020B5FFF770F8BDE820404FF0000649
:101260004FF000074FF000084FF0000B21F007018E
:10127000AC46ACE8C009ACE8C009ACE8C009ACE8D1
:10128000C0098D467047000010B500F005F8001D3C
:1012900010BD00BF6D2F00000048704708120020ED
:1012A0002DE9F0411F46044603260168072A01F490
:1012B000006004DB08B116A505E016A503E008B13F
:1012C00015A500E015A521F010002060A069C01E42
:1012D000A0610FB1401EA0612046FFF786F84FB114
:1012E000D4E9012138469047206A401C2062C01C86
:1012F000206206E0206AFAE7D4E9012115F8010B23
:101300009047761EF8D22046FFF785F8BDE8F081B9
:101310004E414E006E616E00494E4600696E660099
:101320002DE9F047814616468AB0334878440DC807
:101330008DE80D0030487844801C03AC0DC884E86B
:101340000D0041F69B300844372190FBF1F290FBF1
:10135000F1F5A5F1800501FB12041B3C02D56442A6
:10136000012000E00020DFF890A080460027FA442A
:10137000AAF1BE0A0DE0E00709D03246684607EB45
:1013800047010AEB810100F013FB8DE807006410B0
:101390007F1C002CEFD1184F7F44AC3F18E0E807CA
:1013A00014D007EB04100DF1180A90E80E008AE83B
:1013B0000E00C068F04201D198190890324606A983
:1013C00003A800F0F5FA03AB83E807006D10641C76
:1013D000002DE4D132466946B8F1000F03A802D0CF
:1013E00000F0D2FA01E000F0E3FAC9E90001C9F81F
:1013F00008200AB0BDE8F087F42F000010B50446BD
:10140000AFF300802046BDE81040FEF780BF00002B
:1014100000487047E81100204FF0013C50F8042BC1
:1014200051F8043B9A4221D1A2EB0C03934313EAF7
:10143000CC1317D150F8042B51F8043B9A4215D124
:10144000A2EB0C03934313EACC130BD150F8042BFB
:1014500051F8043B9A4209D1A2EB0C03934313EADF
:10146000CC13DBD04FF00000704700BFD01A01BA98
:10147000B1FA81F101F0180122FA01F0CB40C1F17B
:101480002001DBB2C0B2C01A2CFA01F3D11A914389
:1014900011EAC311E6D1704701491820ABBEFEE73F
:1014A0002600020070475FEA400C08BF91F0000F71
:1014B0004FEA8C234FEAC12243EA51514FEA1C50B4
:1014C00018BF00F5F0404FEA300018BF41F000416E
:1014D0005FEA6C5C00F02980BCF1FF3F08BF40F080
:1014E00080407047130C06BF12044FF0100C4FF0F1
:1014F000000C130E04BF12020CF1080C130F04BFF2
:1015000012010CF1040C930F04BF92000CF1020CB9
:10151000D30F04BF52000CF1010C11464FF0000232
:10152000A0F11F00A0EB0C00704711F0004F08BFA6
:10153000704731F000413FF4D5AF0B0C06BF0904F2
:101540004FF0100C4FF0000C0B0E04BF09020CF111
:10155000080C0B0F04BF09010CF1040C8B0F04BF26
:1015600089000CF1020CCB0F04BF49000CF1010CF7
:10157000CCF12003A0EB0C0022FA03F302FA0CF2E8
:1015800041EA030100F10100704720F07F4C80EA3E
:10159000030023F07F47ACEB070303F57C5300F017
:1015A000004003F1FF032DE980494FEA154B09B4D0
:1015B0004FEA144325EA0B4E24EA03480FF20426AF
:1015C00006EB132749083E785FEA320203FB066701
:1015D000C7F5000707FB06F64FEA54374FEAD64631
:1015E00006F1020607FB066CCCF1005C4FEA1C47D3
:1015F0002CEA074C07FB06F40CFB06F504EB15463A
:101600004FEA961634BF00204FF000404FEAD13722
:1016100006FB07FC4FEA1C4C0CFB0BF7D21B03FB31
:101620000CF761EB07010CFB0EF7B0EB074072EB18
:1016300017420CFB08F734BFA2EB0742B2EB07429C
:1016400061EB17414FEA0C444FEA910706FB07FC98
:101650004FEA1C4C0CFB0BF7B0EBC74072EB573258
:1016600003FB0CF734BFA2EBC742B2EBC74261EBFE
:1016700057310CFB0EF7B0EBC70072EB57720CFB47
:1016800008F734BFA2EBC702B2EBC70261EB577198
:10169000039F4FEA816141EA921104EBCC044FEAC7
:1016A000D1374FEA826206FB07FC42EA90124FEA0A
:1016B00080604FEA1C4C0CFB0BF7D21B03FB0CF7B2
:1016C00061EB07010CFB0EF7B0EB074072EB174222
:1016D0000CFB08F734BFA2EB0742B2EB074261EB09
:1016E00017414FEA8C554FEA910704EB9C2406FB07
:1016F00007FC4FEA1C4C0CFB0BF7B0EBC74072EB3E
:10170000573203FB0CF734BFA2EBC742B2EBC74220
:1017100061EB57310CFB0EF7B0EBC70072EB577261
:101720000CFB08F734BFA2EBC702B2EBC70261EBB8
:10173000577115EB4C254FEA816141EA92114FEA4E
:1017400082624FEAD13742EA901206FB07FC44F16D
:1017500000044FEA80604FEA1C4C0CFB0BF7D21BD5
:1017600003FB0CF761EB07010CFB0EF7B0EB074036
:1017700072EB17420CFB08F734BFA2EB0742B2EB47
:10178000074261EB174115EB1C154FEA813141EA25
:1017900092414FEA823242EA90424FEA80304FEA69
:1017A0000C7644F1000448EA03434EEA0B484FF03C
:1017B000000EB2EB080C71EB030724BF62463946FA
:1017C0004EEB0E0E4FF0000B0018524149414BEB0F
:1017D0000B0BB2EB080C71EB03077BF1000B24BF82
:1017E000624639464EEB0E0E4FF0000B0018524188
:1017F00049414BEB0B0BB2EB080C71EB03077BF190
:10180000000B24BF624639464EEB0E0E51EA02072A
:1018100018BF46F0010616EB0E7655F1000254F1A2
:10182000000103D5BDE88901BDE80088BDE8890154
:10183000BDE80048B619524141EB0101A3F1010393
:10184000704780807F7E7D7C7B7A7978777676752D
:101850007473727171706F6E6E6D6C6C6B6A6A69A5
:101860006868676666656464636362616160605F3F
:101870005F5E5E5D5D5C5C5B5B5A5A5959585857B8
:101880005756565555555454535352525251515020
:1018900050504F4F4F4E4E4D4D4D4C4C4C4B4B4B73
:1018A0004A4A4A49494948484847474747464646B9
:1018B00045454544444444434343434242424241F4
:1018C0004141002B26D4770021D01CB54FEA3707C1
:1018D00003B44FF010004FF010014FF000000FBCA8
:1018E000BDE810400BF1010BBBF1010F08BF5FEA2F
:1018F000170722BF12F1010211F101014FF000415F
:1019000043F1000300F0004043EA00007047F9D3C0
:101910005708DAE746EA064613F1400F4FEA164643
:101920001FDD13F1200FDFBF16430A4600212033CD
:101930005B42C8D0C3F1200746EA064602FA07F721
:101940004FEA164646EA0706C3F1200722FA03F2D9
:1019500001FA07F721FA03F14FF0000342EA070208
:10196000B1E746EA020646EA06464FEA164646EA66
:101970000106BCBF46EA0646360C4FF000034FF0A6
:1019800000024FF000019EE72DE9C048934630B4B5
:1019900091E8380007C831EA400C48BF34EA430CEC
:1019A00003D5FFF7F2FDFFF78CFFF0BCBDE8008820
:1019B0002DE9C048934630B491E8380007C810F0CC
:1019C000804F08BF13F0804F03D100F005F8FFF7F8
:1019D00078FFF0BCBDE8008820F07F4780EA030074
:1019E00023F07F4C07EB0C03A3F57C5300F0004081
:1019F000A3F1FE0392F0000F00F0B38095F0000F0A
:101A000000F077802DE901494FEA11404FEA144672
:101A100021EA004800FB06FC24EA064708FB06F61C
:101A200007FB08F800FB07F718EB06484CEB164CD1
:101A30004FEA124B18EB07484FEA15464CEB17409C
:101A400022EA0B4E0BFB06FC25EA06470EFB06F6C8
:101A500007FB0EFE0BFB07F71EEB064E4CEB164C7E
:101A60004FF000061EEB074E4CEB174B18EB0B0824
:101A700040F1000018EB0E0B58EB000840F100009D
:101A80008F1A4FF000013CBFC943661B14BFB5EB72
:101A9000040C00213CBFC943F61B4FEA17444EEA31
:101AA0008E0E27EA04454FEA1C4704FB07622CEA26
:101AB000074C05FB07F70CFB05F604FB0CFC16EBCB
:101AC000074642EB174216EB0C4642EB1C421BEB5F
:101AD000060658EB0202414146EA9E0601D5BDE8E2
:101AE0000189B619524141EB0101A3F10103BDE89F
:101AF00001894FEA14454FEA114724EA054621EAD5
:101B0000074C05FB07F406FB07F70CFB06F105FB8A
:101B10000CFC11EB074144EB17444FEA124711EB61
:101B20000C4144EB1C4422EA074C05FB07F206FB80
:101B300007F70CFB06F605FB0CFC16EB074642EB21
:101B4000174216EB0C4642EB1C456A1854F1000193
:101B500048BF7047B619524141EB0101A3F101039F
:101B6000704795F0000F37D04FEA11424FEA144703
:101B700021EA024624EA074C02FB07F106FB07F7BD
:101B80000CFB06F402FB0CFC14EB074441EB174181
:101B90004FEA154714EB0C4441EB1C4125EA074C76
:101BA00002FB07F506FB07F70CFB06F602FB0CFC35
:101BB00016EB074645EB174516EB0C4645EB1C426A
:101BC000121951F1000148BF7047B619524141EB5B
:101BD0000101A3F1010370474FEA14454FEA114791
:101BE00024EA054621EA074C05FB07F106FB07F747
:101BF0000CFB06F24FF0000605FB0CFC12EB074253
:101C000041EB174112EB0C4251EB1C4148BF7047AE
:101C1000921841EB0101A3F10103704721B18268E1
:101C200042F00102826003E0826822F001028260D9
:101C3000704721B1826842F48072826003E082685A
:101C400022F480728260704721B1826842F400728F
:101C5000826003E0826822F400728260704710B5EF
:101C60000121080200F096FA00214FF4807000F084
:101C700091FA10BD30B50246002000235068104C88
:101C800020400D790C6844EA052420435060906898
:101C90000C4C2040D1E903542C438D682C434D79E2
:101CA00044EA450420439060D06A20F470000C7D23
:101CB000641EE4B2234340EA0350D06230BD00000A
:101CC000FFFEFFFCFDF7FFC0F0B504460D46002007
:101CD0000021092D11DDE068A5F10A0606EB460793
:101CE000072606FA07F18843A5F10A0606EB460621
:101CF00003FA06F10843E0600CE0206905EB4507B4
:101D0000072606FA07F1884305EB450603FA06F1B4
:101D100008432061072A0FDA606B561E06EB860720
:101D20001F2606FA07F18843561E06EB860605FABB
:101D300006F10843606322E00D2A0FDA206BD61FFC
:101D400006EB86071F2606FA07F18843D61F06EB27
:101D5000860605FA06F10843206310E0E06AA2F166
:101D60000D0606EB86071F2606FA07F18843A2F147
:101D70000D0606EB860605FA06F10843E062F0BDA3
:101D8000816841F080418160704700BFFEE721B16A
:101D9000026842F00102026003E0026822F00102E0
:101DA0000260704710B500220268134B1A40CC68DD
:101DB0000B6823434C6923438C692343CC69234339
:101DC0000C6A23434C6A23438C6A23434C6B2343A2
:101DD0008C6B23431A430260426922F00702D1E967
:101DE0000B3423431A4342610B6943604B688360A1
:101DF0008B68C36010BD00003F801CF0704700007E
:101E000010B5082000F074F8012808D10448806853
:101E100010B1034988688047082000F063F810BDBE
:101E2000CC09002010B5102000F062F8012808D17C
:101E30000448C06810B10349C8688047102000F00A
:101E400051F810BDCC09002010B54FF4807000F09F
:101E50004FF8012809D12248006810B120490868CC
:101E600080474FF4807000F03DF84FF4007000F0B0
:101E70003FF8012809D11A48406810B1184948684C
:101E800080474FF4007000F02DF8202000F030F86B
:101E9000012808D11248006910B11149086980472A
:101EA000202000F01FF8402000F022F8012808D17F
:101EB0000B48406910B10A4948698047402000F04A
:101EC00011F8802000F014F8012808D10448806936
:101ED00010B1034988698047802000F003F810BDE5
:101EE000CC0900200149086070470000143C014003
:101EF00001460020034A12680A400AB1012000E0AE
:101F000000207047143C0140002123498279002AB7
:101F10003AD00A46126803689A430B461A600A1DB3
:101F2000126803689A430B1D1A60027911440A680B
:101F300003681A430A60184A0832126803689A4311
:101F4000154B08331A601A1D126803689A43124B26
:101F50000C331A604279102A0ED11A1F12680368D6
:101F60001A430D4B08331A601A1D126803681A438E
:101F7000094B0C331A600DE00749427911440A6895
:101F800003681A430A6005E0027911440A6803688D
:101F90009A430A6070470000003C0140F0B50A46D1
:101FA00000210023002400BF3DE0012505FA01F3D4
:101FB000156805EA03049C4234D105684F000326E6
:101FC000BE40B543056015794E00B54006683543FF
:101FD00005601579012D02D01579022D16D185687D
:101FE0004F000326BE40B543856055794E00B5408D
:101FF000866835438560456801268E40B543456057
:10200000456896798E40B6B235434560C5684F0045
:102010000326BE40B543C560D5794E00B540C668BD
:102020003543C560491C1029BFD3F0BDF0B500236E
:1020300000244D07ED0E02FA05F3CE1000F1200545
:1020400055F826504E07F70E0F26BE40B543CF1069
:1020500000F1200646F82750CE1000F1200555F873
:10206000265045EA0304CE1000F1200545F826402D
:10207000F0BD418370470183704700BFFEE700BF9A
:10208000FEE7704770B5002100230F22C4781CB30F
:10209000174C246804F4E064C4F5E064C4F3072139
:1020A000C1F10404E3B20A4144789C40E1B284786F
:1020B000144021430C07210E0E4C0578615504781D
:1020C00004F01F050124AC4005786D11AD0005F149
:1020D000E025C5F8004109E0047804F01F0501245B
:1020E000AC40054D0678761145F8264070BD0000DD
:1020F0000CED00E000E400E080E100E00249014373
:10210000024A1160704700000000FA050CED00E083
:102110007047000029B1064A12680243044B1A6056
:1021200004E0034A12688243014B1A6070470000C2
:102130003038024029B1064A12680243044B1A6043
:1021400004E0034A12688243014B1A6070470000A2
:102150004038024029B1064A12680243044B1A6013
:1021600004E0034A12688243014B1A607047000082
:102170002038024029B1064A12680243044B1A6013
:1021800004E0034A12688243014B1A607047000062
:102190004438024029B1064A12680243044B1A60CF
:1021A00004E0034A12688243014B1A607047000042
:1021B00024380240F0B50021002200240225002628
:1021C0000223324F3F6807F00C0121B1042905D0EA
:1021D000082937D105E02E4F076036E02D4F076004
:1021E00033E02A4F3F1F3F68C7F38056274F3F1FFA
:1021F0003F6807F03F036EB1264FB7FBF3F7DFF8F8
:102200008CC0ACF1040CDCF800C0CCF3881C07FBDC
:102210000CF40CE01E4FB7FBF3F7DFF870C0ACF125
:10222000040CDCF800C0CCF3881C07FB0CF4174F3F
:102230003F1F3F68C7F301477F1C7D00B4FBF5F7E4
:10224000076002E0124F076000BF00BF0F4F3F68FA
:1022500007F0F0010909104F7A5C0768D740476022
:102260000A4F3F6807F4E051890A0B4F7A5C4768D0
:10227000D7408760054F3F6807F46041490B064F20
:102280007A5C4768D740C760F0BD0000083802405C
:102290000024F40000127A000000002021B102881E
:1022A00042F04002028004E002884FF6BF731A40F9
:1022B0000280704710B504462448844208D10121A9
:1022C0008014FFF767FF0021A014FFF763FF3CE0D5
:1022D0001F48844208D101210014FFF73BFF002171
:1022E0002014FFF737FF30E01A48844208D101215B
:1022F000C013FFF72FFF0021E013FFF72BFF24E0AF
:102300001548844208D101214014FFF743FF002102
:102310006014FFF73FFF18E01048844209D1012103
:102320000805FFF737FF00214FF48010FFF732FF59
:102330000BE00B48844208D101214805FFF72AFF32
:1023400000214FF40010FFF725FF10BD00300140C1
:1023500000380040003C0040003401400050014083
:10236000005401400246002013890B400BB10120AC
:1023700000E00020704701468889704781817047DE
:1023800010B50022028802F441520B884C88234386
:102390008C882343CC8823430C8923434C892343D3
:1023A0008C892343CC8923431A430280838B4FF2C9
:1023B000FF74234083830B8A038210BD70470000A3
:1023C00030B500228B071C0F0F2303FA04F20B4BCE
:1023D0008C1053F824309343084C8D1044F825306A
:1023E00023468C1053F824308C07240F00FA04F491
:1023F0002343024C8D1044F8253030BD083801408D
:102400000CB50020019000903448006840F4803002
:102410003249086000BF3148006800F40030009085
:102420000198401C0190009818B90198B0F5A04F90
:10243000F1D12A48006800F4003010B1012000906A
:1024400001E0002000900098012846D12348403048
:10245000006840F080502149403108602048006801
:1024600040F440401E4908601C48083000681B4981
:10247000083108600846006840F4004008600846DB
:10248000006840F4A05008601648091F0860081F43
:10249000006840F08070091F086000BF0F480068A6
:1024A00000F000700028F9D040F205700E49086075
:1024B0000A480830006820F0030008490831086025
:1024C0000846006840F00200086000BF034808307A
:1024D000006800F00C000828F8D10CBD003802405C
:1024E0000070004019544007003C02400248006858
:1024F000401C0149086070472800002070B500208A
:102500000022022300240221274D2D6805F00C0033
:1025100020B1042806D0082834D107E0234D244EEA
:10252000356033E0234D224E35602FE01E4D2D1FC8
:102530002D68C5F380541C4D2D1F2D6805F03F01FB
:1025400054B11C4DB5FBF1F5174E361F3668C6F376
:10255000881605FB06F209E0144DB5FBF1F5124EA5
:10256000361F3668C6F3881605FB06F20E4D2D1F82
:102570002D68C5F301456D1C6B00B2FBF3F50C4EE5
:10258000356003E0094D0A4E356000BF00BF064DBF
:102590002D68C5F30315084E705D054D2D68C540C7
:1025A000034E356070BD0000083802400024F4007E
:1025B0001000002000127A001400002010B5154809
:1025C000006840F47000134908601348006840F048
:1025D00001001149086000200F49083108600E48C9
:1025E00000680E4908400C4908600D48091D086044
:1025F000081F006820F48020091F08600020064999
:102600000C310860FFF7FCFE4FF000600149803993
:10261000086010BD88ED00E000380240FFFFF6FEC4
:10262000103000242DE9F04100255CE0C5EBC50029
:102630002F4901EB8004E78A39462E4800F07DF8E7
:1026400000284ED0207900283DD0B4F90010002990
:1026500003DAB4F90000404201E0B4F9000091FB54
:10266000F0F0A1680844A060D4E90201884203D1D7
:102670000021284600F0C4FF607998B1208850B945
:10268000E18A00221B4800F069F8A18A202219483B
:1026900000F06FF904E0B4F90010284600F076FF6E
:1026A00000206071206908B1206980476688114860
:1026B00000F040F800EB060841460E48A26990473A
:1026C0000020207109E00B4800F034F8861C3146E8
:1026D0000848A2699047012020713946054800F05A
:1026E0001AF8681CC5B2032DA0DBBDE8F08100001C
:1026F000780900200004004030B5002301248C40FC
:10270000A3B2048C9C430484048C02FA01F5ADB29C
:102710002C43048430BDCA430282704721B1028831
:1027200042F00102028004E002884FF6FE731A4074
:10273000028070470146486A704730B50246002063
:1027400000230024158A05EA0103958905EA01049E
:1027500013B10CB1012000E0002030BD1AB1838913
:102760000B43838102E083898B43838170470000A0
:1027700070B5002400220023058C4FF6FE7635400C
:102780000584028C8388048B4FF68F752C40B51E10
:102790002C400D882C43751E2A408D892A434D8874
:1027A0002A43104DA84202D00F4DA84213D14FF634
:1027B000F7752A40CD892A434FF6FB752A408D884C
:1027C0002A434FF6FF652B404FF6FF552B400D8AED
:1027D0002B434D8A2B43838004838D684563028499
:1027E00070BD000000000140000401400A460021C5
:1027F000018B4FF6F77319401143018370470000B6
:1028000070B5002400220023058C4FF6EF7635408A
:102810000584028C8388048B48F6FF752C404FF6A4
:10282000FF452C400D884FF6FF7606EA05252C4320
:102830004FF6DF752A408D8906EA05152A434D8833
:1028400006EA05152A43154DA84202D0144DA842A8
:102850001DD14FF67F752A40CD894FF6FF7606EAE7
:1028600005152A434FF6BF752A408D8806EA0515DF
:102870002A434FF6FF352B404FF2FF752B400D8A50
:1028800006EA85052B434D8A06EA85052B4383809E
:1028900004838D688563028470BD000000000140E0
:1028A000000401400A460021018B4FF2FF731940DA
:1028B0004FF6FF7303EA02231943018370470000B8
:1028C00070B5002400220023058C4FF6FF663540CA
:1028D0000584028C8388848B4FF68F752C404FF6CD
:1028E000FC752C400D882C434FF6FF552A408D89EE
:1028F0004FF6FF7606EA05252A434D8806EA0525A8
:102900002A43154DA84202D0144DA8421DD14FF2C2
:10291000FF752A40CD894FF6FF7606EA05252A4342
:102920004FF6FF352A408D8806EA05252A434EF6E4
:10293000FF752B404DF6FF752B400D8A06EA0515F5
:102940002B434D8A06EA05152B43838084838D68CB
:10295000C563028470BD0000000001400004014016
:102960000A460021818B4FF6F7731940114381838A
:10297000704770B503460020002418461830012522
:102980008D40ACB21D8CA5431D8409B108290AD124
:1029900000EB610005684FF68F76354005600568ED
:1029A000154305600FE00D1FC5F34E05284405686B
:1029B00048F6FF763540056005684FF6FF7606EA73
:1029C00002263543056070BD4163704781637047DF
:1029D000C163704700220288184B98420ED0184BF2
:1029E00098420BD0B0F1804F08D0164B984205D0DA
:1029F000154B984202D0154B984204D14FF68F7375
:102A00001A404B881A43124B984207D0114B9842F8
:102A100004D04FF6FF431A400B891A4302804B68DB
:102A2000C3620B880385054B984202D0044B984241
:102A300001D18B7A03860123838270470000014015
:102A4000000401400004004000080040000C004069
:102A5000001000400014004021B1828942F400526D
:102A6000828104E082894DF6FF731A4082817047AB
:102A700002460020B1F5007F00D100BF13880B4053
:102A80000BB1012000E00020704700002DE9FF4756
:102A900005460E460024A14600BFA046B08900B1FD
:102AA00000BF2C8A24F44054F08804432C82AC8963
:102AB00041F20C608443B08831890843718908432E
:102AC0000443AC81AC8A24F44074B0890443AC82E2
:102AD0006846FFF76FFB2048854202D01F488542B9
:102AE00002D1DDF80C9001E0DDF80890A88900F42F
:102AF000004040B109EBC90000EB09103168490002
:102B0000B0FBF1F707E009EBC90000EB09103168F1
:102B10008900B0FBF1F76420B7FBF0F00401200955
:102B2000642101FB1078A88900F4004040B13220F4
:102B300000EBC800B0FBF1F000F00700044308E030
:102B4000322000EB08106421B0FBF1F000F00F0020
:102B500004432C81BDE8FF870010014000140140B0
:102B6000C1F308028280704700BFFEE703B40198FA
:102B70004100009850EAC12018BF04204A0D18BF38
:102B800040F0010040F2FF72B2EB515F08BF40F02D
:102B90000200012808BF052002B07047C0EBC00248
:102BA00092004FF47A7302FB03F100E000BF0A1EAB
:102BB000A1F10101FAD1704730380A2801D2012071
:102BC000704700207047000000B585B00121022049
:102BD000FFF7A0FA01218803FFF7CCFA4FF4C06099
:102BE000FFF78CFA4FF47E70039000208DF81000F0
:102BF00002208DF8110000208DF8120001208DF8C0
:102C0000130003A92848FFF7C9F903210120FFF7A2
:102C1000D7FB04210120FFF7D3FB05210120FFF79B
:102C2000CFFB06210120FFF7CBFB07210120FFF797
:102C3000C7FB08210120FFF7C3FB09210120FFF793
:102C4000BFFB4FF47E70019000208DF808000C202F
:102C50008DF8090001208DF80A0001A8FFF754F94A
:102C600017208DF8000001208DF8010000208DF85C
:102C7000020001208DF803006846FFF703FA0A20DE
:102C80008DF8000001208DF802006846FFF7FAF980
:102C900009208DF8000002208DF802006846FFF739
:102CA000F1F905B000BD000000040240014A42F8FD
:102CB00020107047CC0900200148006870470000D0
:102CC0002800002000B599B001210802FFF752FA50
:102CD00001218805FFF71EFAFEF7C1FF00201590BD
:102CE0001690179018900F9001208DF840008DF8E5
:102CF0004100002011901290139004208DF8500094
:102D0000072301220D212848FEF7DEFF07230222B8
:102D10000C212548FEF7D8FF072303220B21224868
:102D2000FEF7D2FF072304220A211F48FEF7CCFF3B
:102D30000FA91D48FEF79EFF002000901A484C3056
:102D400001901A4802900020039004200490002073
:102D500005904FF480600690400007908000089036
:102D60004011099040020A9000200B9001200C9025
:102D700000200D900E9069460D48FFF713F80121D1
:102D80000B48FFF704F801210748FEF75DFF01211A
:102D90000548FEF74EFF01210348FEF73FFF0248BA
:102DA000FEF7EEFF19B000BD002001402C0000200E
:102DB00010640240642070471CB501210420FFF715
:102DC000A9F90F20009003208DF8040002208DF84F
:102DD000050001208DF8060000208DF807006946E7
:102DE0000148FFF7DBF81CBD0008024010B5FFF7F3
:102DF000E3FFFFF767FF10BD1CB501210420FFF7BB
:102E000089F94FF4C060009001208DF80400022081
:102E10008DF8050000208DF8060002208DF80700CF
:102E200069460948FFF7BAF84FF4C0610648FFF752
:102E300020F9002004E00021044A1154411CC8B2CA
:102E40000228F8DB1CBD000000080240340000200E
:102E500010B5044624B94FF400710648FFF709F98C
:102E6000012C03D1A1020348FFF703F90020024916
:102E7000085510BD000802403400002010B504467B
:102E800024B94FF400710648FFF7F5F8012C03D17F
:102E9000A1020348FFF7EFF801200249085510BDD1
:102EA000000802403400002010B504460548005DCB
:102EB00018B12046FFF7CCFF02E02046FFF7DEFF07
:102EC00010BD000034000020FFF778FBFFF716FB71
:102ED000FFF792FF01F0D8F8FFF776FE00F0D2FA84
:102EE000FFF784FF4FF478434FF6FF720021012073
:102EF00000F0E4FC01F020F90020FFF7BFFF012003
:102F0000FFF7A6FF00F04AF824E0FFF7D5FE1249CC
:102F1000096888421ED0FFF7CFFE0F4908600846B7
:102F200000681421B0FBF1F201FB120018B900F0A7
:102F30006BF900F061F9084800684FF4FA71B0FBD2
:102F4000F1F201FB120028B90020FFF7ADFF0120CC
:102F5000FFF7AAFFD9E700002400002010B50020E9
:102F600000F0D0FA88B109480088401C0749088061
:102F70000749012000F03AFB4FF4B47219210120F7
:102F800000F0E0FA03480449086010BD5006002034
:102F900041300008C93100084C06002010B5064930
:102FA0000020FFF783FE05490120FFF77FFE04485C
:102FB0000449086010BD0000E9320008C92F00086C
:102FC000E53200084C06002010B518480068184982
:102FD00088422AD11748007818B91749002000F014
:102FE0000FFB14480078012804D11349C839002088
:102FF00000F006FB0F480078022803D10F4900209B
:1030000000F0FEFA0B480078032803D1002108469F
:1030100000F0F6FA07490978481CC11700EB9171D6
:103020008910A0EB8101034A117010BD4C060020ED
:10303000E53200085206002070FEFFFFE0FCFFFFB3
:1030400070B5FFF7B7FE0546012000F0B1F9401E4C
:10305000C821B0FBF1F201FB12040CB93C48058019
:103060003C480088002871DD002C47DD611EC8B295
:1030700000F078F837480088401E83B2364830F8B0
:1030800014202146002000F07FF8324803882A46A9
:103090002146012000F078F8601E2F4B33F81020F5
:1030A000C1B22C480388022000F06EF82B492C484E
:1030B00000F04CF9C72C21D1C72000F053F8254867
:1030C0000088401E83B2224802880021084600F092
:1030D0005BF8214802881F4803880021012000F086
:1030E00053F81D48B0F88E211A480388C7210220E2
:1030F00000F04AF819491A4800F028F9204600F073
:1031000031F814480088401E83B2134830F8142068
:103110002146002000F038F80E480088401E83B297
:103120000D4E601C36F81020C1B2012000F02CF8C2
:10313000084803882A462146022000F025F807495E
:10314000074800F003F9304620F8145070BD000025
:10315000740900205006002028100020C41100200F
:10316000B8110020054931F91010054A11600549D0
:1031700031F9101051600021916070475406002011
:10318000B8110020E407002070B50C4C34F9114050
:10319000544300EB40050A4E46F82540094C34F9EB
:1031A0001140544300EB400506EB85056C6000EBD5
:1031B0004004354605EB8404A36070BD540600202E
:1031C000C4110020E407002010B5012000F09AF996
:1031D00060B10021012000F009FA4FF4B472C82157
:1031E000002000F0AFF902480249086010BD00005D
:1031F0005D2F00084C06002010B50248006880478B
:1032000010BD00004C06002070B500F0D7FAFFF7A3
:1032100053FD0446214625A000F0EEFC002000F0FE
:10322000D1F8C468002000F0CDF84588002000F0F7
:10323000E3F8064623462A4631461DA000F0DCFC92
:10324000012000F0BFF8C468012000F0BBF84588F9
:10325000012000F0D1F8064623462A46314614A044
:1032600000F0CAFC14A000F0C7FC012000F0A0F898
:103270000446002000F09CF80546224629460FA08F
:1032800000F0BAFC0F4909680F4A914201D10FA121
:1032900000E010A1084600F0AFFC1148018803A02F
:1032A00000F0AAFC00F0E4FD70BD00002564000001
:1032B0002564202564202564000000002564202565
:1032C000640000004C060020E53200085374616E73
:1032D000646279005363616E6E696E67000000007E
:1032E000500600207047000010B5134800681349CD
:1032F000884214D14FF4C87000F03DF80020104906
:1033000008801049012000F071F94FF4B4721921BE
:10331000012000F017F90C48074908600AE0002175
:10332000084600F06DF90021012000F069F903481A
:103330000149086010BD00004C060020E53200087D
:103340005006002041300008C931000870B505461C
:103350000C46284600F01FF8204600F01CF804F147
:10336000240000F018F804F1480000F014F80020E0
:1033700000F026FF70BD70B50446502502E0002025
:1033800000F0FCFE281EA5F10101CDB2F7D12046C8
:1033900000F004FF70BD10B50446206800F0FEFE8A
:1033A000606800F0FBFEA06800F0F8FE10BD0000B1
:1033B0000146C1EBC100024B03EB800290687047ED
:1033C000780900200146C1EBC100024A02EB8000EF
:1033D0007047000078090020014609B900207047B5
:1033E000002901DA484200E00846024B93FBF0F264
:1033F000901EF4E7A08601000146C1EBC100034B1B
:1034000003EB8002B2F90000704700007809002049
:103410001CB501210620FEF77DFE02208DF8050077
:1034200000208DF806008DF807004FF4E070009042
:1034300002208DF8040069461048FEF7AFFD4FF4F6
:103440006040009001208DF8040069460C48FEF7AA
:10345000A5FD022206210948FEF7E8FD0222072108
:103460000648FEF7E3FD022208210448FEF7DEFDD0
:103470004FF460410248FEF7FCFD1CBD000802400D
:103480000004024010B588B0002429E00020ADF807
:1034900004008DF80800ADF806008DF809000390CF
:1034A00004900590A000ADF818000220A04080B262
:1034B000ADF81A000CB90F480790012C01D10E4845
:1034C0000790022C01D10D480790C4EBC4010C4AAF
:1034D00002EB81001C2201A9FCF752FF601CC4B260
:1034E000032CD3DBFFF794FF00F0C2F800F01AF8CA
:1034F00008B010BDC9290008CD290008D12900084D
:10350000780900200146C1EBC100054B03EB8002A6
:10351000D2E90203984201D1012070470020FCE764
:103520007809002008B51D208DF8000000208DF8D6
:10353000010001208DF802008DF803006846FEF7B7
:10354000A1FD08BD2DE9F04105460C461646C5EB28
:10355000C5000D4901EB8007C82070434FF4B471DA
:10356000B0FBF1F82146284600F04AF8002C01DAB9
:10357000604200E0204694FBF0F0B96808FB0010C0
:10358000F860BDE8F08100007809002070B50446BD
:103590000D46002D12DD24B94FF400411248FEF70C
:1035A0006AFD012C03D1A1030F48FEF764FD022C34
:1035B00018D121030C48FEF75EFD13E0002D11DA4F
:1035C00024B94FF400410848FEF753FD012C03D104
:1035D000A1030548FEF74DFD022C03D1210302484B
:1035E000FEF747FD70BD00000004024010B5C0EBBF
:1035F000C003024C04EB8302116110BD7809002066
:103600002DE9F04106460D46C6EBC600164901EB12
:1036100080042088E0B91548FFF78CF8401D87B278
:1036200029463046FFF7B2FF39461048A269904755
:10363000A18A30220D48FFF79CF9A18A01220B488C
:10364000FFF75AF8E18A01220848FFF787F801E0FE
:103650000120607125802846FFF7BEFE6080A068CB
:10366000E060BDE8F081000078090020000400401F
:1036700000B589B001210220FEF75CFD40F2F71091
:10368000ADF818000020ADF81A004FF6FF70079053
:103690000020ADF8200006A92248FFF79BF9202062
:1036A000ADF804000120ADF8060000200390ADF84D
:1036B000100001A91B48FFF75BF801211948FFF72B
:1036C00095F800211748FFF77FF9002202211548DD
:1036D000FFF744F801A91348FFF792F801211148B8
:1036E000FFF7E0F800210F48FFF770F900220421EE
:1036F0000C48FFF733F801A90A48FFF7E1F8012168
:103700000848FFF72DF900210648FFF761F900226C
:1037100008210448FFF722F801210248FEF7FEFFC6
:1037200009B000BD0004004001461F48007800EBCE
:1037300080001E4A02EB4010405C1D4A127802EBEA
:1037400082021A4B03EB4212525C904227D1164878
:10375000007800EB8000174A02EB801030F811006F
:10376000134A127802EB8202124B03EB821232F8F8
:103770001120904213D10C48007800EB80000E4AD3
:1037800002EB801030F81100094A127802EB820235
:10379000094B03EB821232F81120904201D0012034
:1037A00070470020FCE7000045060020E8090020E3
:1037B00046060020280B0020A80D002010B5002090
:1037C00006490870002404E0204600F00BF8601C55
:1037D000C4B2034800788442F6DB10BD42060020E4
:1037E0004406002010B5014600202CE02022184B92
:1037F0001B7803EB8303174C04EB4313164C24781C
:1038000001FB04041A55154A1288114B1B7803EB6F
:103810008303134C04EB83130F4C247801FB040443
:1038200023F814200F4A1288094B1B7803EB8303FB
:103830000D4C04EB8313084C247801FB040423F89B
:103840001420421CD0B2044A12789042CEDB10BD44
:1038500045060020E8090020430600203806002025
:10386000280B002036060020A80D002070B5044665
:103870001149087800EBD0714910A0EB410131B13A
:103880008023A0220021084600F052FA05E0A02380
:1038900080220021084600F04BFA002507E02012A4
:1038A00000F0CAFBE0B200F0C7FB681C85B2B5F5BA
:1038B000A04FF4DB70BD00003E0600202DE9F04172
:1038C00004460D4616461F460020C2490870C249EC
:1038D00008700120C1490870C14804700146087889
:1038E00000EBD0714910A0EB410109B1012100E0CA
:1038F0000221BC4A1170BA49087800EBD071491016
:10390000A0EB410109B1022100E00121B64A11708A
:1039100000F056FA4FF48071B448FEF7AAFB642019
:10392000FFF73CF94FF48071B048FEF7A4FB642028
:10393000FFF734F9112000F057FB7820FFF72EF93C
:10394000B12000F051FB012000F076FB2C2000F0AC
:1039500073FB2D2000F070FBB22000F045FB01202E
:1039600000F06AFB2C2000F067FB2D2000F064FBC8
:10397000B32000F039FB012000F05EFB2C2000F0AA
:103980005BFB2D2000F058FB012000F055FB2C20A4
:1039900000F052FB2D2000F04FFBB42000F024FB80
:1039A000072000F049FBC02000F01EFBA22000F021
:1039B00043FB022000F040FB842000F03DFBC120CF
:1039C00000F012FBC52000F037FBC22000F00CFB1A
:1039D0000A2000F031FB002000F02EFBC32000F095
:1039E00003FB8A2000F028FB2A2000F025FBC420DE
:1039F00000F0FAFA8A2000F01FFBEE2000F01CFB1A
:103A0000C52000F0F1FA0E2000F016FB362000F081
:103A1000EBFA7348007830B1012808D002280AD0A8
:103A2000032810D10BE0C02000F006FB0BE0A02023
:103A300000F002FB07E0002000F0FEFA03E0602047
:103A400000F0FAFA00BF00BFE02000F0CDFA0F202E
:103A500000F0F2FA1A2000F0EFFA0F2000F0ECFA72
:103A6000182000F0E9FA2F2000F0E6FA282000F0F4
:103A7000E3FA202000F0E0FA222000F0DDFA1F2017
:103A800000F0DAFA1B2000F0D7FA232000F0D4FA75
:103A9000372000F0D1FA002000F0CEFA072000F025
:103AA000CBFA022000F0C8FA102000F0C5FAE1209D
:103AB00000F09AFA0F2000F0BFFA1B2000F0BCFAC9
:103AC0000F2000F0B9FA172000F0B6FA332000F00A
:103AD000B3FA2C2000F0B0FA292000F0ADFA2E2025
:103AE00000F0AAFA302000F0A7FA302000F0A4FA83
:103AF000392000F0A1FA3F2000F09EFA002000F0EB
:103B00009BFA072000F098FA032000F095FA1020A5
:103B100000F092FA2A2000F067FA002000F08CFAF8
:103B2000002000F089FA002000F086FA7F2000F0E3
:103B300083FA2B2000F058FA002000F07DFA0020D4
:103B400000F07AFA002000F077FA9F2000F074FA73
:103B5000F02000F049FA012000F06EFAF62000F0A3
:103B600043FA002000F068FA3A2000F03DFA052000
:103B700000F062FA292000F037FA2C2000F034FA25
:103B8000284600F061F8304600F014F9384600F09D
:103B90000BF92846FFF76AFE204604EBD071491066
:103BA000A4EB410109B1142100E01021104A117069
:103BB000204604EBD0714910A4EB410109B1082162
:103BC00000E00A210B4A1170FFF7F8FD00F050F9F0
:103BD000BDE8F08142060020450600204606002090
:103BE0003E0600203C0600203D060020000002406A
:103BF00043060020440600200FB400B5C1B043A81E
:103C0000009001A8009A4299FCF7A8FB00200090C0
:103C100001AA0B480178002000F01CF80848007841
:103C2000401C074908700846007806490978884210
:103C300002DB00200249087041B05DF814FB00006F
:103C40004206002044060020014908807047000019
:103C500036060020F0B503462C4D2D7801FB0535C6
:103C6000E8B2002447E015780A2D07D00D2D04D0C6
:103C70005B2D0ED05D2D15D10CE000BF234D2D78AE
:103C800090FBF5F56D1C214E367805FB0635E8B244
:103C90002FE000BF15785B2D01D1012500E0002544
:103CA0002C4626E015781A4E367806EB8606194F14
:103CB00007EB4616355414B1174D2D8801E0174D0A
:103CC0002D88134E367806EB8606154F07EB8616C1
:103CD00026F81050134D2F880D4D2D7805EB8505D6
:103CE000114E06EB851C0546461CF0B22CF81570EB
:103CF00000BF00BF521C15783DB1044D2D780B4E0E
:103D0000367815FB06F58542ADDCF0BD4306002094
:103D100045060020E80900203A0600203806002069
:103D2000280B002036060020A80D002044060020A5
:103D30002DE9F04104460D4616461F462A2000F0A4
:103D400053F9002000F078F9154909782144C8B2E8
:103D500000F072F9002000F06FF9A119104A1278F2
:103D60001144C8B200F068F92B2000F03DF90020A2
:103D700000F062F90B4909782944C8B200F05CF9F7
:103D8000002000F059F9E919064A12781144C8B226
:103D900000F052F92C2000F027F9BDE8F081000076
:103DA0003C0600203D0600200149088070470000C5
:103DB0003A060020014908807047000038060020BC
:103DC00000B587B001210803FEF7D4F901210846A8
:103DD000FEF7A0F9A020059002208DF818008DF8BC
:103DE000190000208DF81A008DF81B0005A91E4847
:103DF000FEF7D4F8052211461B48FEF717F90522F5
:103E000007211948FEF712F94FF4A8700590012018
:103E10008DF8180005A91448FEF7C0F81348FEF7FE
:103E200049FA0020ADF800004FF48270ADF80200AE
:103E30000020ADF804000220ADF806000120ADF826
:103E400008004002ADF80A000820ADF80C00002080
:103E5000ADF80E0069460548FEF792FA01210348C5
:103E6000FEF71CFA07B000BD000002400030014020
:103E70002DE9F05F0025002600275248007808B998
:103E8000BDE8F09F002481E0E0B2FFF74DFC002880
:103E90007BD0012500BF4C48007894FBF0F100FB7B
:103EA0001140284448490978884208DA29466A1CA2
:103EB00015B22144C8B2FFF737FC0028EBD14248C5
:103EC000007894FBF0F04FF6FF7101EA00183E48CD
:103ED000007894FBF0F100FB11404FF6FF7101EA0E
:103EE000C00B0120C0EBC50082B20F2341465846EB
:103EF000FFF71EFF002744E03448007800EB800005
:103F0000334901EB4010A119405C2038314901EBE5
:103F100000194FF0080829E019F80700A8F101017D
:103F2000084100F0010050B12848007800EB800003
:103F3000294901EB8010A11930F8110009E023484C
:103F4000007800EB8000254901EB8010A11930F8C2
:103F5000110082464FEA2A2000F06EF80AF0FF00B6
:103F600000F06AF8A8F1010000F0FF08B8F1000FB6
:103F7000D2DC701CC0B20646A84202D10026781CD2
:103F8000C7B2102FB8DB681E0444641C0E480078CA
:103F90001349097810FB01F0A0423FF775AF0B48B9
:103FA000007808B9012000E00020084908700D4899
:103FB000007808B9012000E000200A49087000BF1D
:103FC0005EE700003F060020430600204506002073
:103FD000E809002036000020280B0020A80D002052
:103FE000440600204606002010B504461021104863
:103FF000FEF73FF840210E48FEF73BF800BF0221D4
:104000000C48FEF7AFF90028F9D021460948FEF721
:10401000B5F900BF01210748FEF7A4F90028F9D03F
:104020000448FEF7A8F910210148FEF724F810BD56
:10403000000002400030014010B504461021104835
:10404000FEF717F840210E48FEF715F800BF0221D1
:104050000C48FEF787F90028F9D021460948FEF7F9
:104060008DF900BF01210748FEF77CF90028F9D03F
:104070000448FEF780F910210148FDF7FCFF10BD50
:10408000000002400030014030B5154800684FF490
:104090007A72B0FBF2F1481EB0F1807F00D31BE0D2
:1040A000481E4FF0E022506150170F22002807DA17
:1040B00013071D0E0B4B00F00F04241F1D5503E0CA
:1040C00013071C0E084B1C5400BF00204FF0E022C9
:1040D00090610720106100BF00200449086030BDD6
:1040E0001000002018ED00E000E400E028000020AF
:1040F0001CB501210846FEF70DF84FF4C060009092
:1041000002208DF804008DF8050000208DF80600CF
:1041100001208DF80700072209210648FDF786FFD8
:1041200007220A210348FDF781FF69460148FDF790
:1041300035FF1CBD000002401FB5FFF7D9FF01216C
:104140001020FEF717F84FF4E13000900020ADF892
:104150000400ADF80600ADF808000C20ADF80A0028
:104160000020ADF80C0069460348FEF78FFC0121E2
:104170000148FEF771FC1FBD0010014010B5044658
:1041800000BF80210448FEF773FC0028F9D02146C7
:104190000148FEF7E5FC10BD0010014010B50446D3
:1041A00000210816FFF7EAFF00210814FFF7E6FFD9
:1041B00000210812FFF7E2FFE0B2FFF7DFFF10BDBA
:1041C00010B5044600210812FFF7D8FFE0B2FFF750
:1041D000D5FF10BD10B500290AD00878002807D0F7
:1041E00005487844FDF718F9002801D0002010BDDB
:1041F0000248784410BD00007A01000072010000FE
:1042000010B500290AD00878002807D0054878445E
:10421000FDF702F9002801D0002010BD02487844C3
:1042200010BD00006A010000620100004FF0407004
:10423000E1EE100A7047FCF700BDFCF735BE000048
:1042400000000000000000003031323334353637D2
:1042500038394142434445464030580030313233CA
:1042600034353637383961626364656640307800CA
:10427000040000080000000000000002000100002F
:104280001030313233343536373839616263646522
:104290006678700030313233343536373839414240
:1042A000434445465850000002400000000000A072
:1042B0000000000005400000000000C800000000F1
:1042C0000C4000000000409C00000000194000006D
:1042D0000020BCBE0000000034400000BFC91B8E9F
:1042E00000000004B5400000504BCFD06607E2CF7D
:1042F000010000006C4100003E8251AADFEEA734AD
:1043000001000000D9420000DCB5A0E23A301F975E
:10431000FFFFFFFFB4450000FD25A0C8E9A3C14F82
:10432000FFFFFFFFFF3F00000000008000000000D3
:10433000FF3F0000000000800000000088440008EB
:104340000000002078090000C401000800490008AE
:1043500078090020D00E0000280200081C00000090
:1043600043000000F8FFFFFF0C0000000E000000FB
:104370000F0000002E0000001001000043000000AC
:10438000F8FFFFFF00404040404040404040414176
:10439000414141404040404040404040404040401A
:1043A00040404040400502020202020202020202B4
:1043B00002020202022020202020202020202002B1
:1043C0000202020202029090909090901010101041
:1043D00010101010101010101010101010101010DD
:1043E0000202020202028888888888880808080871
:1043F000080808080808080808080808080808083D
:104400000202020240000000000000000000000064
:10441000000000000000000000000000000000009C
:10442000000000000000000000000000000000008C
:10443000000000000000000000000000000000007C
:10444000000000000000000000000000000000006C
:10445000000000000000000000000000000000005C
:10446000000000000000000000000000000000004C
:10447000000000000000000000000000000000003C
:1044800000000000000000001200012005010203EE
:104490000404500A06070809007A030A000171148F
:1044A0000121011009183C3C3C1818180003210F89
:1044B000C005666666242130056C6CFE6C04312EE6
:1044C000500B187CC6C2C07C0686C67C31400B00EF
:1044D00000C2C60C183060C6862F300B386C6C38A2
:1044E00076DCCCCCCC760FB0053030306070112C3F
:1044F000310143180C301109310173183072A006D4
:10450000663CFF3C66A373187E6D811491310311E4
:1045100000FED87132230206A043C080AE540B7C4B
:10452000C6C6CED6D6E6C6C67C003004387818019A
:10453000627E20412F73C6FE106006063C0606060A
:104540003010070C1C3C6CCCFEB1521E7B8006C0A8
:10455000C0C0FC0E201338601073C6C66012FE4047
:1045600041F4718093C67C20210C127E60B30C78DC
:10457000BA91F15110652031CE1536B206FF850291
:10458000311C21247170960CE035015406DEDEDE0C
:10459000DCC000200710386CC6C6FE91454B1AFCE3
:1045A00002127C044366FC4F10043C66C2E24005E4
:1045B000C0C2663C2023F86C1D540566666CF8008A
:1045C000B00A6662687868606266FE109004606097
:1045D000F0404006DEC6C6663A40251B316F51707A
:1045E000463C7E531818603A1E0E194055101007AD
:1045F000E6666C6C78787542E68033F06001717025
:104600009006C6EEFEFED6508007C6E6F6FEDECE6B
:104610006021DF256F936C38E08260A0358C7408D0
:10462000C6C6D6DE7C0C0E0021E476E6B0740560CA
:10463000380C06D0B0047E7E5AB062C601B27C103F
:1046400090046C3810205FD6D6400321201D210332
:104650001D250361B0254E923C502C04FEC6864FAA
:10466000036AC2804E3C2F0357303020540B008029
:10467000C0E070381C0E0602404D3F0364040C0C71
:104680003CCE0D17EB032EFF8F03021018187C048D
:10469000780C7CB003240500E060606E7C046666E4
:1046A000DC5E031B7CC6E469E0121C6A836CCC30C0
:1046B000395282FE209406386C6460F060116022EA
:1046C000762F3404CC7C0CD3116084046C76666045
:1046D0001D7B04AA38001C040606004E0321013A83
:1046E000667311303A66015590DA38301913200498
:1046F000ECFED60171104ADCA291A09D70037120DE
:104700007A7C0361A06DD303B004DC7662C02A7C9E
:10471000026D30042405103030FC8F73361C70316C
:10472000DF9510317F8E3CC103590181101901A51D
:10473000A849336C047E060C53032ECC5005590057
:104740001E0E9B042270F47E0EF9042DAD056E182A
:104750007F05211C21245718706DB6DCF3C1018D33
:1047600087050A14012310683A017402AD03E504B9
:104770001C0652078508B709E60A120C3B0D610EAC
:10478000830FA210BC11D212E213EE14F515F61627
:10479000F117E618D519BD1A9F1B7A1C4D1D191E5D
:1047A000DE1E9A1F4F20FB209F213B22CE22582342
:1047B000DA235224C12427258325D6251F265F26E8
:1047C0009526C126E426FC260B2710270B27FC0C78
:1047D00012C11410065F261F26D62410502725C1AB
:1047E000245224DA235823CE223B229F21FB204F40
:1047F000209A1FDE1E191E4D1D7A1C9F1BBD1AD547
:1048000019E618F117F616F515EE14E213D212BCDC
:1048100011A210830F610E3B0D120CE60AB7098539
:104820000852071C06E504AD0374023ADC1068C6A2
:10483000FE8CFD53FC1BFBE4F9AEF87BF749F61A3E
:10484000F5EEF3C5F29FF17DF05EEF44EE2EED1E26
:10485000EC12EB0BEA0AE90FE81AE72BE643E561F5
:10486000E486E3B3E2E7E122E166E0B1DF05DF6180
:10487000DEC5DD32DDA8DC26DCAEDB3FDBD9DA7D50
:10488000DA2ADAE1D9A1D96BD93FD91CD904D9F5F3
:10489000D8F0D8F5D8040C123F141006A1D9E1D9EC
:1048A0002A240451FFD9DA3FDBAEDB26DCA8DC3258
:1048B000DDC5DD61DE05DFB1DF66E022E1E7E1B302
:1048C000E286E361E443E52BE61AE70FE80AE90B29
:1048D000EA12EB1EEC2EED44EE5EEF7DF09FF1C58B
:1048E000F2EEF31AF549F67BF7AEF8E4F91BFB5349
:1048F000FC8CFDC6FE2C05292C0962BC2D5009003C
:040000050800018965
:00000001FF
