:020000040800F2
:10000000A006002029020008850300087D030008DF
:1000100081030008E3020008D10900080000000085
:10002000000000000000000000000000450400087F
:10003000E702000800000000010400083505000880
:10004000430200084302000843020008430200087C
:10005000430200084302000843020008430200086C
:10006000430200084302000843020008430200085C
:10007000430200084302000843020008430200084C
:10008000430200084302000843020008430200083C
:10009000430200084302000843020008430200082C
:1000A000430200084302000843020008430200081C
:1000B000430200086D0600084302000843020008DE
:1000C00043020008430200084302000843020008FC
:1000D00043020008430200084302000843020008EC
:1000E00043020008430200084302000843020008DC
:1000F00043020008430200084302000843020008CC
:1001000043020008430200084302000843020008BB
:1001100043020008430200084302000843020008AB
:10012000430200084302000843020008430200089B
:10013000430200084302000843020008430200088B
:10014000430200084302000843020008430200087B
:10015000430200084302000843020008430200086B
:10016000430200084302000843020008430200085B
:10017000430200084302000843020008430200084B
:10018000430200084302000800F002F800F03CF8C7
:100190000AA090E8000C82448344AAF10107DA45E2
:1001A00001D100F031F8AFF2090EBAE80F0013F0F8
:1001B000010F18BFFB1A43F001031847FC090000A8
:1001C0001C0A0000103A24BF78C878C1FAD8520738
:1001D00024BF30C830C144BF04680C6070470000C1
:1001E0000023002400250026103A28BF78C1FBD840
:1001F000520728BF30C148BF0B6070471FB500F0E1
:10020000D5FC1FBD10B510BD00F031F81146FFF749
:10021000F5FF00F0DFFB00F04FF803B4FFF7F2FF4B
:1002200003BC00F057F80000094880470948004720
:10023000FEE7FEE7FEE7FEE7FEE7FEE7FEE7FEE796
:10024000FEE7FEE704480549054A064B70470000F3
:100250000506000889010008A0000020A006002073
:10026000A0020020A002002070477047704775462A
:1002700000F02CF8AE4605006946534620F0070012
:10028000854618B020B5FFF7DDFFBDE820404FF0F0
:1002900000064FF000074FF000084FF0000B21F070
:1002A0000701AC46ACE8C009ACE8C009ACE8C0093D
:1002B000ACE8C0098D46704710B50446AFF3008026
:1002C0002046BDE81040FFF7A8BF00000048704777
:1002D0004000002001491820ABBEFEE726000200C6
:1002E000704700BFFEE77047F0B50A4600210023C3
:1002F000002400BF3DE0012505FA01F3156805EA79
:1003000003049C4234D105684F000326BE40B54328
:10031000056015794E00B5400668354305601579CE
:10032000012D02D01579022D16D185684F000326C4
:10033000BE40B543856055794E00B540866835436B
:100340008560456801268E40B543456045689679CD
:100350008E40B6B235434560C5684F000326BE40A7
:10036000B543C560D5794E00B540C6683543C56014
:10037000491C1029BFD3F0BD4183704700BFFEE781
:1003800000BFFEE77047000070B5002100230F2278
:10039000C4781CB3174C246804F4E064C4F5E0642A
:1003A000C4F30721C1F10404E3B20A4144789C403C
:1003B000E1B28478144021430C07210E0E4C0578DD
:1003C0006155047804F01F050124AC4005786D11D7
:1003D000AD0005F1E025C5F8004109E0047804F01E
:1003E0001F050124AC40054D0678761145F82640DE
:1003F00070BD00000CED00E000E400E080E100E0F2
:100400007047000029B1064A12680243044B1A6083
:1004100004E0034A12688243014B1A6070470000EF
:100420003038024029B1064A12680243044B1A6070
:1004300004E0034A12688243014B1A6070470000CF
:1004400040380240704700000CB500200190009039
:100450003448006840F480303249086000BF3148B9
:10046000006800F4003000900198401C0190009852
:1004700018B90198B0F5A04FF1D12A48006800F4EE
:10048000003010B10120009001E0002000900098A1
:10049000012846D123484030006840F0805021496F
:1004A000403108602048006840F440401E49086020
:1004B0001C48083000681B4908310860084600687D
:1004C00040F4004008600846006840F4A05008600E
:1004D0001648091F0860081F006840F08070091F57
:1004E000086000BF0F48006800F000700028F9D0D5
:1004F00040F205700E4908600A480830006820F094
:1005000003000849083108600846006840F002000E
:10051000086000BF03480830006800F00C0008289D
:10052000F8D10CBD0038024000700040195440075B
:10053000003C024002480068401C014908607047C6
:100540001400002070B500200022022300240221A4
:10055000274D2D6805F00C0020B1042806D008288E
:1005600034D107E0234D244E356033E0234D224E35
:1005700035602FE01E4D2D1F2D68C5F380541C4D96
:100580002D1F2D6805F03F0154B11C4DB5FBF1F551
:10059000174E361F3668C6F3881605FB06F209E0CB
:1005A000144DB5FBF1F5124E361F3668C6F38816AA
:1005B00005FB06F20E4D2D1F2D68C5F301456D1C80
:1005C0006B00B2FBF3F50C4E356003E0094D0A4EAB
:1005D000356000BF00BF064D2D68C5F30315084EFA
:1005E000705D054D2D68C540034E356070BD00003F
:1005F000083802400024F4000000002040787D010B
:100600000400002010B51548006840F4700013493C
:1006100008601348006840F001001149086000209C
:100620000F49083108600E4800680E4908400C491F
:1006300008600D48091D0860081F006820F480202C
:10064000091F0860002006490C310860FFF7FCFE16
:100650004FF0006001498039086010BD88ED00E06E
:1006600000380240FFFFF6FE1030002470B5002471
:1006700034E004EB44001B4901EB80004589294626
:10068000194800F045F838B32946174800F02EF80D
:1006900004EB4400134901EB8000007A88B1124852
:1006A00000F033F804EB44010E4A02EB8101496883
:1006B000461831460C4800F046F9002009490872F6
:1006C0000AE0094800F021F8861C3146064800F08F
:1006D0003AF9012003490872601CC4B2032CC8DB3C
:1006E00070BD00001C00002000040040CA430282CC
:1006F000704721B1028842F00102028004E00288C2
:100700004FF6FE731A40028070470146486A7047F0
:1007100030B50246002000230024158A05EA0103B3
:10072000958905EA010413B10CB1012000E0002015
:1007300030BD1AB183890B43838102E083898B43E7
:100740008381704770B5002400220023058C4FF68A
:10075000FE7635400584028C8388048B4FF68F75B6
:100760002C40B51E2C400D882C43751E2A408D89C7
:100770002A434D882A43104DA84202D00F4DA8426B
:1007800013D14FF6F7752A40CD892A434FF6FB75F2
:100790002A408D882A434FF6FF652B404FF6FF55C0
:1007A0002B400D8A2B434D8A2B43838004838D6815
:1007B0004563028470BD0000000001400004014058
:1007C0000A460021018B4FF6F7731940114301834C
:1007D0007047000070B5002400220023058C4FF6FE
:1007E000EF7635400584028C8388048B48F6FF75CC
:1007F0002C404FF6FF452C400D884FF6FF7606EA59
:1008000005252C434FF6DF752A408D8906EA05152C
:100810002A434D8806EA05152A43154DA84202D001
:10082000144DA8421DD14FF67F752A40CD894FF651
:10083000FF7606EA05152A434FF6BF752A408D88D4
:1008400006EA05152A434FF6FF352B404FF2FF7598
:100850002B400D8A06EA85052B434D8A06EA85055D
:100860002B43838004838D688563028470BD000000
:1008700000000140000401400A460021018B4FF2B4
:10088000FF7319404FF6FF7303EA022319430183F4
:100890007047000070B5002400220023058C4FF63D
:1008A000FF6635400584028C8388848B4FF68F75F4
:1008B0002C404FF6FC752C400D882C434FF6FF550D
:1008C0002A408D894FF6FF7606EA05252A434D8892
:1008D00006EA05252A43154DA84202D0144DA84228
:1008E0001DD14FF2FF752A40CD894FF6FF7606EAFB
:1008F00005252A434FF6FF352A408D8806EA05254F
:100900002A434EF6FF752B404DF6FF752B400D8A9E
:1009100006EA05152B434D8A06EA05152B4383800D
:1009200084838D68C563028470BD000000000140AF
:10093000000401400A460021818B4FF6F7731940ED
:100940001143818370474163704700000022028891
:10095000184B98420ED0184B98420BD0B0F1804FF4
:1009600008D0164B984205D0154B984202D0154B33
:10097000984204D14FF68F731A404B881A43124B9A
:10098000984207D0114B984204D04FF6FF431A40CB
:100990000B891A4302804B68C3620B880385054BA1
:1009A000984202D0044B984201D18B7A03860123EE
:1009B00083827047000001400004014000040040B1
:1009C00000080040000C00400010004000140040EF
:1009D00000BFFEE7FFF716FEFFF7B4FD00F0B2F828
:1009E00000F02EF800BFFEE71CB501210620FFF73E
:1009F00009FD02208DF8050000208DF806008DF815
:100A000007004FF4E070009002208DF80400694662
:100A10000948FFF769FC4FF46040009001208DF811
:100A2000040069460548FFF75FFC4FF46041034846
:100A3000FFF7A2FC1CBD00000008024000040240B9
:100A40003EB5002012E00021ADF800108DF808102E
:100A500001910221ADF80A1000EB4001084A02EBB7
:100A600081019DE81C001CC1411CC8B20328EADBBF
:100A7000FFF7BAFF00F016F800F004F83EBD0000E2
:100A80001C00002008B51D208DF8000000208DF806
:100A9000010001208DF802008DF803006846FFF781
:100AA00073FC08BD00B589B001210220FFF7BAFC34
:100AB00040F2F710ADF818000020ADF81A00401E03
:100AC00007900020ADF8200006A91D48FFF73EFF63
:100AD0003020ADF804000120ADF80600002003909E
:100AE000ADF8100001A91648FFF72CFE01211448AB
:100AF000FFF766FE002202211148FFF71AFE01A946
:100B00000F48FFF767FE01210D48FFF7B5FE0022F1
:100B100004210B48FFF70DFE01A90948FFF7BAFEB3
:100B200001210748FFF706FF002208210448FFF7CC
:100B300000FE01210248FFF7DCFD09B000BD000006
:100B40000004004030B5154800684FF47A72B0FBDD
:100B5000F2F1481EB0F1807F00D31BE0481E4FF039
:100B6000E022506150170F22002807DA13071D0EEC
:100B70000B4B00F00F04241F1D5503E013071C0E40
:100B8000084B1C5400BF00204FF0E022906107206A
:100B9000106100BF00200449086030BD0000002043
:100BA00018ED00E000E400E0180000204FF0407075
:100BB000E1EE100A70470000D80B0008000000208A
:100BC0001C000000C4010008F40B00081C000020F9
:100BD00084060000E0010008007A030A000000001B
:100BE00000000000010203040607080900000000DD
:040BF0000000000001
:040000050800018965
:00000001FF
