:020000040800F2
:1000000040130020150300089F1E0008971E0008DB
:100010009B1E0008151C0008852700080000000032
:10002000000000000000000000000000F1200008B7
:10003000191C0008000000002D1F000821220008E4
:100040002F0300082F0300082F0300082F030008C8
:100050002F0300082F0300082F0300082F030008B8
:100060002F0300081D1C0008411C00082F03000876
:100070002F0300082F0300082F0300082F03000898
:100080002F0300082F0300082F0300082F03000888
:100090002F0300082F0300082F030008651C000829
:1000A0002F0300082F0300082F0300082F03000868
:1000B0002F030008592300082F0300082F0300080E
:1000C0002F0300082F0300082F0300082F03000848
:1000D0002F0300082F0300082F0300082F03000838
:1000E0002F0300082F0300082F0300082F03000828
:1000F0002F0300082F0300082F0300082F03000818
:100100002F0300082F0300082F0300082F03000807
:100110002F0300082F0300082F0300082F030008F7
:100120002F0300082F0300082F0300082F030008E7
:100130002F0300082F0300082F0300082F030008D7
:100140002F0300082F0300082F0300082F030008C7
:100150002F0300082F0300082F0300082F030008B7
:100160002F0300082F0300082F0300082F030008A7
:100170002F0300082F0300082F0300082F03000897
:100180002F0300082F03000800F002F800F0B2F877
:100190000AA090E8000C82448344AAF10107DA45E2
:1001A00001D100F0A7F8AFF2090EBAE80F0013F082
:1001B000010F18BFFB1A43F0010318471439000060
:1001C000343900000A444FF0000C10F8013B13F0E2
:1001D000070408BF10F8014B1D1108BF10F8015BA0
:1001E000641E05D010F8016B641E01F8016BF9D193
:1001F00013F0080F1EBF10F8014BAD1C0C1B09D1EA
:100200006D1E58BF01F801CBFAD505E014F8016B5B
:1002100001F8016B6D1EF9D59142D6D370470000ED
:100220000023002400250026103A28BF78C1FBD8FF
:10023000520728BF30C148BF0B6070476E2900F0DD
:100240006F81702900F0B182662903F0BE836529B1
:1002500003F0BB83672903F0B883612903F0B783F8
:1002600003681B0A28BF41F08001692900F01C8146
:10027000642900F01981752900F016816F2900F0BA
:100280003F82782900F07D82E92900F0D981E429B4
:1002900000F0D681F52900F0D381EF2900F03C82EF
:1002A000F82900F07C820368DB0928BF41F0800157
:1002B000632900F07D87732900F08287E32900F02D
:1002C0008D87F32900F09287002070471FB503F057
:1002D00077FB00F0DDFF04000020002103F05AFB53
:1002E000401C60600020002103F03EFBE0601FBD69
:1002F00010B510BD00F09EFF1146FFF7E7FF02F0BA
:1003000057FB01F077F803B4FFF7F2FF03BC01F0ED
:10031000BFF800000948804709480047FEE7FEE7AC
:10032000FEE7FEE7FEE7FEE7FEE7FEE7FEE7FEE7A5
:1003300004480549054A064B70470000F1220008B1
:1003400089010008400D002040130020400F0020CC
:10035000400F00201CB50C46064B7B4469460090BC
:10036000204600F0F6F804460020694600F004F943
:1003700020461CBD1B02000010B5203AC0F00B80C7
:10038000B1E81850203AA0E81850B1E81850A0E899
:100390001850BFF4F5AF5FEA027C24BFB1E81850F3
:1003A000A0E8185044BF18C918C0BDE810405FEA63
:1003B000827C24BF51F8043B40F8043B08BF7047DF
:1003C000D20728BF31F8023B48BF11F8012B28BFE4
:1003D00020F8023B48BF00F8012B70477047704778
:1003E000704770B5044685690068C10601D530269E
:1003F00000E02026C00707D070BDD4E901213046B7
:100400009047206A401C20626D1EF6D570BD70B505
:10041000044685690078C00707D170BDD4E9012181
:1004200020209047206A401C20626D1EF6D570BDCA
:1004300009684A0501D540B27047C905FCD500B22C
:10044000704709684A0501D5C0B27047C905FCD597
:1004500080B2704770B50C460546012A05D0287851
:10046000800600D5EA69002302E0012305E05B1C59
:10047000934202D2E05C0028F9D1A869E618C01ABC
:10048000A861286A184428622846FFF7AAFF04E0FA
:10049000D5E9012114F8010B9047B442F8D328465E
:1004A000FFF7B5FF70BD00002DE9F04106460024BE
:1004B00010687529314616A510D0FFF7B9FF00283E
:1004C00002DA404213A507E031688A0701D512A578
:1004D00002E0490704D511A5012401E0FFF7B1FFAF
:1004E00000210A2206F1240709E0B0FBF2FCB0FB70
:1004F000F2F302FB1C00303078541846491C0028E7
:10050000F3D123462A463046BDE8F04100F061BAF7
:10051000000000002D0000002B0000002000000063
:1005200011680268006A530501D508700AE0D30516
:1005300001D5088006E0130603D5C217C1E9000201
:1005400000E008600120704701694A1C02610878D8
:10055000704700B58FB0CDE9013100210591054903
:100560007944CDE903101146684600F029F90FB02F
:1005700000BD0000E5FFFFFF0A6802F8010B0A60FA
:10058000704700002DE9FF5F15468A460446DFF8F4
:10059000AC80F8440027D8E900103E46CDE90010B1
:1005A00010E03AF816106A4602A800F023FE411C3B
:1005B00007D02178890603D5E269391891420DD810
:1005C0000744761C2078800602D5E069B84205DD34
:1005D000AE42E6DB3AF816000028E2D1A069C01B63
:1005E000A0612046FFF7FDFED8E90010CDE900101C
:1005F000002017E03AF818106A4602A800F0FAFD49
:10060000B0F1FF3F81460BD000250DF1080B05E04E
:10061000D4E901211BF8050090476D1C4D45F7D327
:1006200008F10100B0428046E4DB206A38442062D1
:100630002046FFF7ECFEBDE8FF9F00003E340000BF
:100640002DE9F0418046D21D22F007020025D2E9B3
:100650000002F52915A614D0011E72F1000106DA78
:100660000023D0EB030063EB020211A608E0D8F8E8
:1006700000108B0701D50FA602E0490701D50EA691
:1006800001251146002408F1240704E000F05CF97C
:1006900030323A55641C50EA0102F7D12B463246FB
:1006A00021464046BDE8F04100F093B9000000004B
:1006B0002D0000002B0000002000000030B40021BD
:1006C00000F1240408E002F00705D208303542EAC0
:1006D0004372DB086554491C52EA0305F3D10468F0
:1006E000002310A2250708D504F020040C4304D0F1
:1006F000C46901230CA2641EC46130BC00F069B956
:1007000010B5044621461068FFF79BFE02462046BE
:10071000BDE810400023D1E7D21D22F00701D1E946
:100720000023CBE70000000030000000F0B40D46CD
:100730000188090502D5214C7C4402E01F4C7C4411
:100740000E34002100F1240608E002F00F07120920
:10075000E75D42EA03721B097754491C52EA03071A
:10076000F3D102780023120704D5702D06D009B109
:10077000022311342246F0BC00F02BB901231034BF
:10078000F8E770B504460D4621461068FFF759FE9C
:10079000024629462046BDE870400023C6E7D21D28
:1007A00022F00703D3E90023C0E70368126843F08F
:1007B000200303600823C3610023B7E7A0320000D1
:1007C0002DE9F05F894604464FF0000ADFF874B166
:1007D000FB44C0F820A02046E1688847002874D078
:1007E000252806D0D4E901219047206A401C2062C8
:1007F000F1E700265F462046E16888472028054645
:1008000007DB312D05D2781910F8200C08B106430A
:10081000F1E7B00701D526F00406C4F81CA00027B4
:10082000C4F818A02A2D09D0284601F0D3FF38B308
:1008300004EB8708303DC8F8185019E059F8041B3C
:10084000204604EB87029161E1688847012F054645
:1008500018D1E069002820DA26F020061DE0D8F83B
:10086000180000EB800005EB40003038C8F8180095
:100870002046E1688847054601F0ACFF0028EED12C
:10088000012F0AD02E2D08D12046E16888477F1C11
:100890000546022F46F02006C4DBA069002803DAD3
:1008A000404246F00106A061F00701D026F0100694
:1008B0006C2D0BD0682D09D04C2D39D06A2D35D038
:1008C000742D35D07A2D33D016E038E0E1682F460C
:1008D00020468847B842054609D16C2F26D04FF4F0
:1008E0008060E168064320468847054604E06C2F97
:1008F0001AD04FF4807006430DB3A5F141001928BA
:1009000002D8203546F400664A462946204626602D
:100910004E46FFF793FC80B101280BD0F61D26F060
:10092000070000F1080956E74020E4E78020D8E7F7
:100930000020D6E706F104094DE7284652E7206A71
:10094000BDE8F09F3032000030B5B0F10A024FEA46
:10095000900E71F100034EEA817EB0EB0E0061EB68
:1009600091014FEA101E4EEA017E10EB0E0041EBA2
:1009700011114FEA102E4EEA016E10EB0E0041EB02
:1009800011214FEA104E4EEA014E10EB0E0041EBE2
:100990001141401841F100014FEAD00040EA417096
:1009A0004FEAD10110EB80054FEA810444EA9074CC
:1009B00044EB01046D1944EB0404521BA3414FF0B6
:1009C000000348BF0A3200D530BD401C41F1000190
:1009D00030BD2DE9F0470D4699469246044600F198
:1009E00024080168880604D5E06921F0100121601F
:1009F00000E00120A84201DD471B00E00027A169BB
:100A00007A1902EB0900081AA0612078C00602D406
:100A10002046FFF7E6FC002608E0D4E901211AF899
:100A200006009047206A401C761C20624E45F4DB8D
:100A30002078C0060AD52046FFF7D3FC06E0D4E9AB
:100A4000012130209047206A401C2062381EA7F107
:100A50000107F4DC07E0D4E9012118F8050090470C
:100A6000206A401C2062281EA5F10105F3DC204607
:100A7000FFF7CDFC2078000602D50220BDE8F08704
:100A80000120FBE770472DE9FF4F0C461E464FF053
:100A9000FF378BB0D2E90001DDF860800A908A460A
:100AA000C1F30A5505B93D46002108464FF0000044
:100AB000BAF1000F00F4400005DA00EB80004FF4BB
:100AC000400101EA50004FEA9059B9F1010F00DDF1
:100AD000B9460A9850EA4A000ED044F61050A5F2E2
:100AE000FF3545432F14B8F1000F1ED07542291E63
:100AF0001EDDC9F100021CE0B8F1010F4FF000004B
:100B000001D0302103E0F24305E02154401CB04203
:100B1000FBDB30460022002121540B99C1F80880EC
:100B2000C1E900200FB0BDE8F08FBD1B6D1CDEE7F2
:100B30004A4600DA694206A800F0EEFB06AB93E8ED
:100B4000070003AB83E8070050460A9900F0A7FCB2
:100B50008DE80700A0F500501F3800900398002D85
:100B600009DD42F21F014A46084403A90390684682
:100B700000F006FF08E0A0F500504A461F3803A920
:100B80000390684600F010FF8DE807000004000C99
:100B900003D04FF0FF30410800E01046B8F1000FDD
:100BA00003D00022009215461EE0751E05D4FFF703
:100BB000CBFE303262556D1EF9D5B3460122084393
:100BC00002D000227F1C04E02078302801D10022CE
:100BD0007F1E002A099786D01DE0112D07DAFFF746
:100BE000B3FE303262556D1C50EA0102F5D1084364
:100BF00002D00098C8B10EE00021681E05E0235C19
:100C0000625C63542254401E491C8142F7DBAB46B0
:100C1000A81B401E0990002004F80B000B98099AAD
:100C2000C0F80880C0E9002B7CE711264FF00008CF
:100C300059E72DE9F04F88460446D21D22F00701FE
:100C400091B0D1E90001CDE90A0101F09DFD024614
:100C50000B98C00F01D02D2007E02068810701D537
:100C60002B2002E0202101EAC000032A099001D0D4
:100C7000072A05DB03464146204600F00DFB0BE149
:100C80002078800601D5E06900E00620B8F1650F04
:100C9000814606D0B8F1660F18D0B8F1670F70D151
:100CA00031E00020B9F1110F009001DB112301E0C8
:100CB00009F101030AAA01A90CA8FFF7E4FEDDE986
:100CC0000C70002609F10105834647E001204B46E0
:100CD00000904FF000470AAA01A90CA8FFF7D3FE25
:100CE000DDE90DB00C995D46002610B909F101004F
:100CF0000D18B9EB050003D4C0F1FF3609F1010569
:100D0000A5EB09002BE0B9F1010F01DA4FF0010961
:100D10000020B9F1110F0090484601DD112300E0D9
:100D200003460AAA01A90CA8FFF7ADFEDDE90C7085
:100D30004D4600268346207800070AD4AB4500DAEA
:100D40005D4601A8012D04DD411911F8011C30296F
:100D500007D04F4502DA17F1040F04DA012082466A
:100D60000FE06D1EEEE7002F02DCED1B3E4403E0BA
:100D7000781CA84200DD7D1CB81B00F1010A4FF071
:100D800000472078000703D4AA4501DB4FF0FF3A63
:100D90000021B7F1004F0DF143088DF8431024D026
:100DA00002202B23002F01DA7F422D230A21021E6D
:100DB000A0F1010000DC5FB197FBF1FC97FBF1F2C1
:100DC00001FB1C7C17460CF1300C08F801CDEEE756
:100DD000A8F1010003702188090501D5452100E033
:100DE0006521A0F1010800F8011C09980FA9A1EBE9
:100DF0000807FF1D00B10120411901EBEA70A1694C
:100E00003844081A401EA0612078C00602D420464B
:100E1000FFF7E7FA099828B1D4E901219047206A41
:100E2000401C20622078C00622D52046FFF7D9FA60
:100E30001EE0002E04DBB34502DD01A8805D00E06A
:100E40003020D4E901219047206A401C2062761CA2
:100E5000AAF101005FEA000A0AD100F019FAC0689D
:100E60000168405CD4E901219047206A401C20625F
:100E7000281EA5F10105DCDC07E0D4E9012118F802
:100E8000010B9047206A401C2062381EA7F1010721
:100E9000F3DC2046FFF7BBFA032011B043E6000065
:100EA0002DE9F04F04460D46D21D22F0070089B00F
:100EB000D0E900974846394601F066FC0246F80F33
:100EC00001D02D2307E02068810701D52B2302E004
:100ED000202101EAC0038DF820300BB1012000E091
:100EE0000020032A824601D0072A04DB2946204637
:100EF00000F0D2F93FE12078800601D40D2500E012
:100F0000E569C7F30A560D2D49DA00214FEA175B50
:100F100008464FF00000002F00F4400007DA00EB15
:100F200080004FF4400100EBD07001EA60008115B1
:100F3000012901DD4FF0FF3100224FEA850CBCF1A1
:100F4000180F06D31346ACF118004FF08052C24080
:100F500003E04FF4801323FA0CF30CF10C0CBCF1FA
:100F6000200F04D3ACF1200C09FA0CF001E007FAD1
:100F70000CF000294FF0004801DD18B90FE00ED148
:100F800040450CD319EB02095F4121B9404502D11C
:100F90009F4329EA0209BBEB175F00D0761C20882B
:100FA000000502D57B48784402E07A487844193835
:100FB00008AA302302F80A30037C0AF10101002E4E
:100FC0000AF1020A53546A4602DC4FF0300101E094
:100FD0004FF031014FF001088DF8001002D0A6F259
:100FE000FF3603E059EA470100D06B4E002D02DCCA
:100FF0002178090704D54FF002082E218DF8011041
:10100000C44600210BE0C7F303433F01C35C491C06
:101010006D1E02F80830052908F1010801DA002DDB
:10102000F1DC00210CE000EB1973491C1B786D1EEC
:10103000082902F808304FEA091908F1010801DA15
:10104000002DF0DC21688B0602D516E0A8F101081E
:10105000E04505DD02EB080313F8013C302BF5D029
:10106000B8F1000F09DD02EB080313F8013C2E2B49
:1010700003D1090701D4A8F10108002D05DD3E21A7
:1010800002F808106D1E08F10108407C002E02F8DD
:10109000080008F1010804DA2D20764202F8080061
:1010A00002E02B2002F808000A214FF47A708642F1
:1010B00008F101080BDB96FBF0F3303302F808303F
:1010C00096FBF0F308F1010800FB136601E0642EC3
:1010D0000CDB642096FBF0F3303302F8083096FB0B
:1010E000F0F308F1010800FB136601E00A2E06DBAD
:1010F00096FBF1F0303002F8080008F1010896FB89
:10110000F1F001FB1060303002F80800A16908F12D
:10111000010808EB050202EB0A00081AA06120781A
:10112000C00602D42046FFF75CF9216A08AE01EB45
:101130000A00206204E0D4E9012116F8010B90476F
:10114000BAF1010AF7D22078C00602D52046FFF78F
:1011500048F96E4609E016F8010B3E280FD0D4E995
:1011600001219047206A401C2062B8F10108F2D2A8
:101170002046FFF74CF909B00320BDE8F08F206A44
:101180002844206203E0D4E90121302090476D1EFD
:10119000EBD3F8E77E2A000002FCFFFF10B543699D
:1011A00013B1AFF3008001E0FFF754F9012010BD47
:1011B000127800F124010A7000224A700122EDE742
:1011C00011684FF0FF32E9E710B5436913B1AFF38F
:1011D000008001E0FFF7D6F9012010BD128800F170
:1011E000240182840022C2840122EDE711684FF0BD
:1011F000FF32E9E770B516460C46054600F040F8A8
:10120000036893F80101012806D0FF2C0FD8185D60
:1012100068B101202C7070BDD3F807013246214619
:1012200003F2071303442846BDE8704018474FF007
:10123000FF3070BD754600F0E7F8AE460500694620
:10124000534620F00700854618B020B5FFF770F828
:10125000BDE820404FF000064FF000074FF00008B7
:101260004FF0000B21F00701AC46ACE8C009ACE838
:10127000C009ACE8C009ACE8C0098D467047000061
:1012800010B500F005F8001D10BD00BF09270000D3
:1012900000487047000D00202DE9F0411F4604462C
:1012A00003260168072A01F4006004DB08B116A5D3
:1012B00005E016A503E008B115A500E015A521F08D
:1012C00010002060A069C01EA0610FB1401EA06187
:1012D0002046FFF786F84FB1D4E901213846904700
:1012E000206A401C2062C01C206206E0206AFAE7E7
:1012F000D4E9012115F8010B9047761EF8D220465B
:10130000FFF785F8BDE8F0814E414E006E616E003A
:10131000494E4600696E66002DE9F0478146164643
:101320008AB0334878440DC88DE80D0030487844C1
:10133000801C03AC0DC884E80D0041F69B300844C6
:10134000372190FBF1F290FBF1F5A5F1800501FB4F
:1013500012041B3C02D56442012000E00020DFF8AB
:1013600090A080460027FA44AAF1BE0A0DE0E007EB
:1013700009D03246684607EB47010AEB810100F0CD
:1013800013FB8DE8070064107F1C002CEFD1184F71
:101390007F44AC3F18E0E80714D007EB04100DF1D0
:1013A000180A90E80E008AE80E00C068F04201D1E9
:1013B00098190890324606A903A800F0F5FA03AB85
:1013C00083E807006D10641C002DE4D132466946A5
:1013D000B8F1000F03A802D000F0D2FA01E000F04B
:1013E000E3FAC9E90001C9F808200AB0BDE8F087AE
:1013F0009027000010B50446AFF300802046BDE8FA
:101400001040FEF780BF000000487047E00C00204D
:101410004FF0013C50F8042B51F8043B9A4221D183
:10142000A2EB0C03934313EACC1317D150F8042B0F
:1014300051F8043B9A4215D1A2EB0C03934313EAF3
:10144000CC130BD150F8042B51F8043B9A4209D12C
:10145000A2EB0C03934313EACC13DBD04FF0000054
:10146000704700BFD01A01BAB1FA81F101F018013A
:1014700022FA01F0CB40C1F12001DBB2C0B2C01AA8
:101480002CFA01F3D11A914311EAC311E6D1704746
:1014900001491820ABBEFEE72600020070475FEA54
:1014A000400C08BF91F0000F4FEA8C234FEAC12295
:1014B00043EA51514FEA1C5018BF00F5F0404FEA83
:1014C000300018BF41F000415FEA6C5C00F02980F9
:1014D000BCF1FF3F08BF40F080407047130C06BFCF
:1014E00012044FF0100C4FF0000C130E04BF120248
:1014F0000CF1080C130F04BF12010CF1040C930F34
:1015000004BF92000CF1020CD30F04BF52000CF187
:10151000010C11464FF00002A0F11F00A0EB0C00DF
:10152000704711F0004F08BF704731F000413FF4A1
:10153000D5AF0B0C06BF09044FF0100C4FF0000C98
:101540000B0E04BF09020CF1080C0B0F04BF0901BC
:101550000CF1040C8B0F04BF89000CF1020CCB0FB3
:1015600004BF49000CF1010CCCF12003A0EB0C00EE
:1015700022FA03F302FA0CF241EA030100F101003E
:10158000704720F07F4C80EA030023F07F47ACEBEC
:10159000070303F57C5300F0004003F1FF032DE93E
:1015A00080494FEA154B09B44FEA144325EA0B4E24
:1015B00024EA03480FF2042606EB132749083E7875
:1015C0005FEA320203FB0667C7F5000707FB06F672
:1015D0004FEA54374FEAD64606F1020607FB066C7F
:1015E000CCF1005C4FEA1C472CEA074C07FB06F4E1
:1015F0000CFB06F504EB15464FEA961634BF0020A7
:101600004FF000404FEAD13706FB07FC4FEA1C4C75
:101610000CFB0BF7D21B03FB0CF761EB07010CFB78
:101620000EF7B0EB074072EB17420CFB08F734BF24
:10163000A2EB0742B2EB074261EB17414FEA0C44C1
:101640004FEA910706FB07FC4FEA1C4C0CFB0BF71B
:10165000B0EBC74072EB573203FB0CF734BFA2EB81
:10166000C742B2EBC74261EB57310CFB0EF7B0EB50
:10167000C70072EB57720CFB08F734BFA2EBC7022E
:10168000B2EBC70261EB5771039F4FEA816141EAF8
:10169000921104EBCC044FEAD1374FEA826206FB89
:1016A00007FC42EA90124FEA80604FEA1C4C0CFBA8
:1016B0000BF7D21B03FB0CF761EB07010CFB0EF7DA
:1016C000B0EB074072EB17420CFB08F734BFA2EBFC
:1016D0000742B2EB074261EB17414FEA8C554FEAE4
:1016E000910704EB9C2406FB07FC4FEA1C4C0CFB07
:1016F0000BF7B0EBC74072EB573203FB0CF734BF6C
:10170000A2EBC742B2EBC74261EB57310CFB0EF7BD
:10171000B0EBC70072EB57720CFB08F734BFA2EBBB
:10172000C702B2EBC70261EB577115EB4C254FEACC
:10173000816141EA92114FEA82624FEAD13742EA6F
:10174000901206FB07FC44F100044FEA80604FEA68
:101750001C4C0CFB0BF7D21B03FB0CF761EB0701D6
:101760000CFB0EF7B0EB074072EB17420CFB08F7CF
:1017700034BFA2EB0742B2EB074261EB174115EB16
:101780001C154FEA813141EA92414FEA823242EA26
:1017900090424FEA80304FEA0C7644F1000448EA68
:1017A00003434EEA0B484FF0000EB2EB080C71EB0E
:1017B000030724BF624639464EEB0E0E4FF0000B76
:1017C0000018524149414BEB0B0BB2EB080C71EB8B
:1017D00003077BF1000B24BF624639464EEB0E0E29
:1017E0004FF0000B0018524149414BEB0B0BB2EB91
:1017F000080C71EB03077BF1000B24BF62463946EE
:101800004EEB0E0E51EA020718BF46F0010616EB2A
:101810000E7655F1000254F1000103D5BDE88901AF
:10182000BDE80088BDE88901BDE80048B61952410D
:1018300041EB0101A3F10103704780807F7E7D7C35
:101840007B7A7978777676757473727171706F6E52
:101850006E6D6C6C6B6A6A696868676666656464FD
:10186000636362616160605F5F5E5E5D5D5C5C5B87
:101870005B5A5A59595858575756565555555454F6
:10188000535352525251515050504F4F4F4E4E4D54
:101890004D4D4C4C4C4B4B4B4A4A4A4949494848A0
:1018A00048474747474646464545454444444443E0
:1018B00043434342424242414141002B26D47700F8
:1018C00021D01CB54FEA370703B44FF010004FF09A
:1018D00010014FF000000FBCBDE810400BF1010BF0
:1018E000BBF1010F08BF5FEA170722BF12F1010227
:1018F00011F101014FF0004143F1000300F00040FD
:1019000043EA00007047F9D35708DAE746EA06468B
:1019100013F1400F4FEA16461FDD13F1200FDFBF12
:1019200016430A46002120335B42C8D0C3F120078A
:1019300046EA064602FA07F74FEA164646EA07065F
:10194000C3F1200722FA03F201FA07F721FA03F1A3
:101950004FF0000342EA0702B1E746EA020646EA10
:1019600006464FEA164646EA0106BCBF46EA064668
:10197000360C4FF000034FF000024FF000019EE7DD
:101980002DE9C048934630B491E8380007C831EAE1
:10199000400C48BF34EA430C03D5FFF7F2FDFFF7D4
:1019A0008CFFF0BCBDE800882DE9C048934630B4F8
:1019B00091E8380007C810F0804F08BF13F0804F3F
:1019C00003D100F005F8FFF778FFF0BCBDE8008810
:1019D00020F07F4780EA030023F07F4C07EB0C03E5
:1019E000A3F57C5300F00040A3F1FE0392F0000F3A
:1019F00000F0B38095F0000F00F077802DE90149E9
:101A00004FEA11404FEA144621EA004800FB06FC69
:101A100024EA064708FB06F607FB08F800FB07F771
:101A200018EB06484CEB164C4FEA124B18EB0748E4
:101A30004FEA15464CEB174022EA0B4E0BFB06FC17
:101A400025EA06470EFB06F607FB0EFE0BFB07F723
:101A50001EEB064E4CEB164C4FF000061EEB074EED
:101A60004CEB174B18EB0B0840F1000018EB0E0B7A
:101A700058EB000840F100008F1A4FF000013CBF06
:101A8000C943661B14BFB5EB040C00213CBFC9431E
:101A9000F61B4FEA17444EEA8E0E27EA04454FEA3A
:101AA0001C4704FB07622CEA074C05FB07F70CFBFD
:101AB00005F604FB0CFC16EB074642EB174216EB4F
:101AC0000C4642EB1C421BEB060658EB020241415E
:101AD00046EA9E0601D5BDE80189B619524141EB9F
:101AE0000101A3F10103BDE801894FEA14454FEA62
:101AF000114724EA054621EA074C05FB07F406FBDB
:101B000007F70CFB06F105FB0CFC11EB074144EB5E
:101B100017444FEA124711EB0C4144EB1C4422EAF4
:101B2000074C05FB07F206FB07F70CFB06F605FB67
:101B30000CFC16EB074642EB174216EB0C4642EB49
:101B40001C456A1854F1000148BF7047B61952414C
:101B500041EB0101A3F10103704795F0000F37D06D
:101B60004FEA11424FEA144721EA024624EA074CA1
:101B700002FB07F106FB07F70CFB06F402FB0CFC6B
:101B800014EB074441EB17414FEA154714EB0C44A3
:101B900041EB1C4125EA074C02FB07F506FB07F762
:101BA0000CFB06F602FB0CFC16EB074645EB174553
:101BB00016EB0C4645EB1C42121951F1000148BFCF
:101BC0007047B619524141EB0101A3F1010370477F
:101BD0004FEA14454FEA114724EA054621EA074C2B
:101BE00005FB07F106FB07F70CFB06F24FF00006BA
:101BF00005FB0CFC12EB074241EB174112EB0C42C8
:101C000051EB1C4148BF7047921841EB0101A3F111
:101C10000103704700BFFEE77047000010B50820C1
:101C200000F074F8012808D10448806810B1034915
:101C300088688047082000F063F810BDC40C0020BD
:101C400010B5102000F062F8012808D10448C068DF
:101C500010B10349C8688047102000F051F810BD4A
:101C6000C40C002010B54FF4807000F04FF801282C
:101C700009D12248006810B12049086880474FF414
:101C8000807000F03DF84FF4007000F03FF801283C
:101C900009D11A48406810B11849486880474FF484
:101CA000007000F02DF8202000F030F8012808D155
:101CB0001248006910B1114908698047202000F0DE
:101CC0001FF8402000F022F8012808D10B48406995
:101CD00010B10A4948698047402000F011F880207F
:101CE00000F014F8012808D10448806910B10349B4
:101CF00088698047802000F003F810BDC40C0020E4
:101D00000149086070470000143C01400146002072
:101D1000034A12680A400AB1012000E0002070471F
:101D2000143C0140002123498279002A3AD00A4616
:101D3000126803689A430B461A600A1D126803680A
:101D40009A430B1D1A60027911440A6803681A430A
:101D50000A60184A0832126803689A43154B083320
:101D60001A601A1D126803689A43124B0C331A60EA
:101D70004279102A0ED11A1F126803681A430D4BBC
:101D800008331A601A1D126803681A43094B0C3392
:101D90001A600DE00749427911440A6803681A4342
:101DA0000A6005E0027911440A6803689A430A60F0
:101DB00070470000003C0140F0B50A4600210023B6
:101DC000002400BF3DE0012505FA01F3156805EA8E
:101DD00003049C4234D105684F000326BE40B5433E
:101DE000056015794E00B5400668354305601579E4
:101DF000012D02D01579022D16D185684F000326DA
:101E0000BE40B543856055794E00B5408668354380
:101E10008560456801268E40B543456045689679E2
:101E20008E40B6B235434560C5684F000326BE40BC
:101E3000B543C560D5794E00B540C6683543C56029
:101E4000491C1029BFD3F0BDF0B5002300244D0775
:101E5000ED0E02FA05F3CE1000F1200555F82650DC
:101E60004E07F70E0F26BE40B543CF1000F12006F7
:101E700046F82750CE1000F1200555F8265045EAC7
:101E80000304CE1000F1200545F82640F0BD418343
:101E900070470183704700BFFEE700BFFEE7704751
:101EA00070B5002100230F22C4781CB3174C24689E
:101EB00004F4E064C4F5E064C4F30721C1F1040450
:101EC000E3B20A4144789C40E1B284781440214353
:101ED0000C07210E0E4C05786155047804F01F059F
:101EE0000124AC4005786D11AD0005F1E025C5F881
:101EF000004109E0047804F01F050124AC40054DC1
:101F00000678761145F8264070BD00000CED00E023
:101F100000E400E080E100E002490143024A116070
:101F2000704700000000FA050CED00E0704700006B
:101F300029B1064A12680243044B1A6004E0034ABE
:101F400012688243014B1A6070470000303802402B
:101F500029B1064A12680243044B1A6004E0034A9E
:101F600012688243014B1A607047000040380240FB
:101F700029B1064A12680243044B1A6004E0034A7E
:101F800012688243014B1A607047000020380240FB
:101F900029B1064A12680243044B1A6004E0034A5E
:101FA00012688243014B1A607047000044380240B7
:101FB00029B1064A12680243044B1A6004E0034A3E
:101FC00012688243014B1A607047000024380240B7
:101FD00021B1028842F04002028004E002884FF6FC
:101FE000BF731A400280704710B5044624488442EB
:101FF00008D101218014FFF7DBFF0021A014FFF7B7
:10200000D7FF3CE01F48844208D101210014FFF7AC
:10201000AFFF00212014FFF7ABFF30E01A488442E5
:1020200008D10121C013FFF7A3FF0021E013FFF740
:102030009FFF24E01548844208D101214014FFF796
:10204000B7FF00216014FFF7B3FF18E01048844287
:1020500009D101210805FFF7ABFF00214FF48010E3
:10206000FFF7A6FF0BE00B48844208D10121480589
:10207000FFF79EFF00214FF40010FFF799FF10BDFE
:102080000030014000380040003C00400034014076
:1020900000500140005401400246002013890B40CB
:1020A0000BB1012000E0002070470146888970478D
:1020B0008181704710B50022028802F441520B88DA
:1020C0004C8823438C882343CC8823430C892343A7
:1020D0004C8923438C892343CC8923431A430280B0
:1020E000838B4FF2FF74234083830B8A038210BDDE
:1020F0007047000030B500228B071C0F0F2303FA36
:1021000004F20B4B8C1053F824309343084C8D1081
:1021100044F8253023468C1053F824308C07240FC4
:1021200000FA04F42343024C8D1044F8253030BDEE
:10213000083801400CB50020019000903448006838
:1021400040F480303249086000BF3148006800F434
:10215000003000900198401C0190009818B9019837
:10216000B0F5A04FF1D12A48006800F4003010B15A
:102170000120009001E0002000900098012846D145
:1021800023484030006840F08050214940310860C9
:102190002048006840F440401E4908601C48083050
:1021A00000681B49083108600846006840F4004098
:1021B00008600846006840F4A05008601648091FEF
:1021C0000860081F006840F08070091F086000BFA9
:1021D0000F48006800F000700028F9D040F2057048
:1021E0000E4908600A480830006820F003000849DA
:1021F000083108600846006840F00200086000BF2F
:1022000003480830006800F00C000828F8D10CBD25
:10221000003802400070004019544007003C024062
:1022200002480068401C01490860704720000020F7
:1022300070B500200022022300240221274D2D68C2
:1022400005F00C0020B1042806D0082834D107E09E
:10225000234D244E356033E0234D224E35602FE070
:102260001E4D2D1F2D68C5F380541C4D2D1F2D684C
:1022700005F03F0154B11C4DB5FBF1F5174E361F6B
:102280003668C6F3881605FB06F209E0144DB5FB67
:10229000F1F5124E361F3668C6F3881605FB06F2B6
:1022A0000E4D2D1F2D68C5F301456D1C6B00B2FB53
:1022B000F3F50C4E356003E0094D0A4E356000BF62
:1022C00000BF064D2D68C5F30315084E705D054D22
:1022D0002D68C540034E356070BD000008380240CF
:1022E0000024F4000000002000127A000400002006
:1022F00010B51548006840F4700013490860134891
:10230000006840F001001149086000200F490831C1
:1023100008600E4800680E4908400C4908600D48E6
:10232000091D0860081F006820F48020091F08604C
:10233000002006490C310860FFF7FCFE4FF00060FA
:1023400001498039086010BD88ED00E00038024086
:10235000FFFFF6FE103000242DE9F041002558E083
:1023600005EB45002D4901EBC004678A39462C482E
:1023700000F079F800284AD02079002839D0B4F943
:102380000010002903DAB4F90000404201E0B4F97A
:10239000000091FBF0F0A1680844A060D4E90201BC
:1023A000884203D10021284600F066FD607998B18B
:1023B000208850B9618A0022194800F065F8218A06
:1023C0002022174800F06BF904E0B4F90010284609
:1023D00000F022FD002060716688114800F040F88E
:1023E00000EB060841460E486269904700202071C4
:1023F00009E00B4800F034F8861C31460848626951
:102400009047012020713946054800F01AF8681CF1
:10241000C5B2032DA4DBBDE8F08100003C0600201E
:102420000004004030B5002301248C40A3B2048C8A
:102430009C430484048C02FA01F5ADB22C4304845D
:1024400030BDCA430282704721B1028842F00102C6
:10245000028004E002884FF6FE731A400280704743
:102460000146486A704730B5024600200023002428
:10247000158A05EA0103958905EA010413B10CB137
:10248000012000E0002030BD1AB183890B43838115
:1024900002E083898B4383817047000070B500247C
:1024A00000220023058C4FF6FE7635400584028C11
:1024B0008388048B4FF68F752C40B51E2C400D88F9
:1024C0002C43751E2A408D892A434D882A43104D7E
:1024D000A84202D00F4DA84213D14FF6F7752A40FB
:1024E000CD892A434FF6FB752A408D882A434FF643
:1024F000FF652B404FF6FF552B400D8A2B434D8A2D
:102500002B43838004838D684563028470BD000083
:1025100000000140000401400A460021018B4FF6F3
:10252000F7731940114301837047000070B5002410
:1025300000220023058C4FF6EF7635400584028C8F
:102540008388048B48F6FF752C404FF6FF452C40DE
:102550000D884FF6FF7606EA05252C434FF6DF750A
:102560002A408D8906EA05152A434D8806EA051595
:102570002A43154DA84202D0144DA8421DD14FF652
:102580007F752A40CD894FF6FF7606EA05152A4366
:102590004FF6BF752A408D8806EA05152A434FF687
:1025A000FF352B404FF2FF752B400D8A06EA85055B
:1025B0002B434D8A06EA85052B43838004838D686F
:1025C0008563028470BD00000000014000040140EA
:1025D0000A460021018B4FF2FF7319404FF6FF733B
:1025E00003EA0223194301837047000070B50024F9
:1025F00000220023058C4FF6FF6635400584028CCF
:102600008388848B4FF68F752C404FF6FC752C40D9
:102610000D882C434FF6FF552A408D894FF6FF76E3
:1026200006EA05252A434D8806EA05252A43154D65
:10263000A84202D0144DA8421DD14FF2FF752A4086
:10264000CD894FF6FF7606EA05252A434FF6FF357A
:102650002A408D8806EA05252A434EF6FF752B4051
:102660004DF6FF752B400D8A06EA05152B434D8A62
:1026700006EA05152B43838084838D68C563028435
:1026800070BD000000000140000401400A46002126
:10269000818B4FF6F773194011438183704770B5F2
:1026A0000346002000241846183001258D40ACB2A6
:1026B0001D8CA5431D8409B108290AD100EB6100D6
:1026C00005684FF68F76354005600568154305604F
:1026D0000FE00D1FC5F34E052844056848F6FF7648
:1026E0003540056005684FF6FF7606EA0226354359
:1026F000056070BD4163704781637047C163704777
:1027000000220288184B98420ED0184B98420BD0EA
:10271000B0F1804F08D0164B984205D0154B984227
:1027200002D0154B984204D14FF68F731A404B8854
:102730001A43124B984207D0114B984204D04FF6DF
:10274000FF431A400B891A4302804B68C3620B880F
:102750000385054B984202D0044B984201D18B7AF5
:10276000038601238382704700000140000401407A
:102770000004004000080040000C00400010004031
:102780000014004000BFFEE703B401984100009828
:1027900050EAC12018BF04204A0D18BF40F00100C4
:1027A00040F2FF72B2EB515F08BF40F00200012817
:1027B00008BF052002B07047C0EBC00292004FF482
:1027C0007A7302FB03F100E000BF0A1EA1F10101D0
:1027D000FAD1704730380A2801D201207047002012
:1027E0007047000000B585B001210220FFF7A0FB73
:1027F00001218803FFF7CCFB4FF4C060FFF78CFB8F
:102800004FF47E70039000208DF8100002208DF8A8
:10281000110000208DF8120001208DF8130003A98B
:102820002848FFF7C9FA03210120FFF763FC0421C0
:102830000120FFF75FFC05210120FFF75BFC06216B
:102840000120FFF757FC07210120FFF753FC082167
:102850000120FFF74FFC09210120FFF74BFC4FF44B
:102860007E70019000208DF808000C208DF8090082
:1028700001208DF80A0001A8FFF754FA17208DF8FF
:10288000000001208DF8010000208DF802000120D9
:102890008DF803006846FFF703FB0A208DF800005F
:1028A00001208DF802006846FFF7FAFA09208DF83A
:1028B000000002208DF802006846FFF7F1FA05B02B
:1028C00000BD000000040240014A42F82010704799
:1028D000C40C002001480068704700002000002060
:1028E0001CB501210420FFF723FB4FF4C0600090CA
:1028F00001208DF8040002208DF8050000208DF8DD
:10290000060002208DF8070069460948FFF754FACF
:102910004FF4C0610648FFF7BAFA002004E0002136
:10292000044A1154411CC8B20228F8DB1CBD000047
:10293000000802402400002010B5044624B94FF4DA
:1029400000710648FFF7A3FA012C03D1A102034846
:10295000FFF79DFA00200249085510BD000802400B
:102960002400002010B5044624B94FF40071064835
:10297000FFF78FFA012C03D1A1020348FFF789FA70
:1029800001200249085510BD000802402400002023
:1029900010B504460548005D18B12046FFF7CCFF8E
:1029A00002E02046FFF7DEFF10BD000024000020FB
:1029B000FFF79EFCFFF73CFCFFF792FF00F0A0FF43
:1029C000FFF710FF00F0A4F94FF478434FF6FF72C1
:1029D0000021012000F0AEFB0020FFF7C3FF012023
:1029E000FFF7AAFF3F490020FFF76EFF3E49012095
:1029F000FFF76AFF3D483E49086072E0FFF76AFF53
:102A00003C49096888426CD0FFF764FF3949086087
:102A1000084600681421B0FBF1F201FB1200002807
:102A200050D100F007FB3348016833A000F020FDCF
:102A3000002000F00DF9C468002000F009F9458875
:102A4000002000F01FF9064623462A4631462BA0F7
:102A500000F00EFD012000F0FBF8C468012000F03A
:102A6000F7F84588012000F00DF9064623462A466E
:102A7000314622A000F0FCFC22A000F0F9FC01206D
:102A800000F0DCF80446002000F0D8F805462246A5
:102A900029461DA000F0ECFC154800681349884247
:102AA00003D11BA000F0E4FC02E01BA000F0E0FC5E
:102AB0001C4801881CA000F0DBFC00F015FE0C484F
:102AC000006880470B4800684FF4FA71B0FBF1F2E0
:102AD00001FB120028B90020FFF75AFF0120FFF781
:102AE00057FF8BE7F92B0008552B0008F52B000842
:102AF0001800002014000020256400002564202513
:102B00006420256400000000256420256400000086
:102B10005374616E646279005363616E6E696E67AF
:102B200000000000180400402558000010B50020E7
:102B300000F02EF940B14FF4B4721921012000F0D9
:102B400047F902480249086010BD0000CD2B00087B
:102B50001800002010B518480068184988422AD18A
:102B60001748007818B91749002000F085F9144873
:102B70000078012804D11349C839002000F07CF9FD
:102B80000F480078022803D10F49002000F074F9A3
:102B90000B480078032803D10021084600F06CF9A7
:102BA00007490978481CC11700EB91718910A0EB07
:102BB0008101034A117010BD18000020F52B000898
:102BC0001C00002070FEFFFFE0FCFFFF10B501209D
:102BD00000F0DEF840B14FF4B472C821002000F0DC
:102BE000F7F802480249086010BD00002D2B0008CC
:102BF000180000207047000010B50D4800680D490E
:102C0000884209D14FF4B4721921012000F0E0F894
:102C10000948074908600AE00021084600F02CF93D
:102C20000021012000F028F902480149086010BD88
:102C300018000020F52B0008CD2B0008014601EB01
:102C40004100024B03EBC002906870473C06002035
:102C5000014601EB4100024A02EBC0007047000050
:102C60003C060020014609B900207047002901DA1E
:102C7000484200E00846024B93FBF0F2901EF4E756
:102C8000A0860100014601EB4100034B03EBC002AB
:102C9000B2F90000704700003C0600201CB501217D
:102CA0000620FFF745F902208DF8050000208DF879
:102CB00006008DF807004FF4E070009002208DF8B8
:102CC000040069461048FFF777F84FF46040009021
:102CD00001208DF8040069460C48FFF76DF80222C8
:102CE00006210948FFF7B0F8022207210648FFF73E
:102CF000ABF8022208210448FFF7A6F84FF4604120
:102D00000248FFF7C4F81CBD00080240000402405E
:102D100010B586B0002428E00020ADF800008DF842
:102D20000400ADF802008DF8050002900390A000A9
:102D3000ADF810000220A04080B2ADF812000CB92E
:102D40000F480590012C01D10E480590022C01D1AD
:102D50000D48059004EB44010C4A02EBC100182217
:102D60006946FDF709FB601CC4B2032CD4DBFFF7F6
:102D700095FF00F0B9F800F01BF806B010BD000098
:102D8000F5260008F9260008FD2600083C0600206C
:102D9000014601EB4100054B03EBC002D2E90203FF
:102DA000984201D1012070470020FCE73C0600203A
:102DB00008B51D208DF8000000208DF801000120CD
:102DC0008DF802008DF803006846FFF769F808BD2A
:102DD0002DE9F04105460C46164605EB45000D4928
:102DE00001EBC007C82070434FF4B471B0FBF1F899
:102DF0002146284600F040F8002C01DA604200E04D
:102E0000204694FBF0F0B96808FB0010F860BDE8BC
:102E1000F08100003C06002070B504460D46002DF0
:102E200012DD24B94FF400411248FFF732F8012CAB
:102E300003D1A1030F48FFF72CF8022C18D121036E
:102E40000C48FFF726F813E0002D11DA24B94FF4EF
:102E500000410848FFF71BF8012C03D1A1030548E6
:102E6000FFF715F8022C03D121030248FFF70FF8F2
:102E700070BD0000000402402DE9F04106460D46F9
:102E800006EB4600164901EBC0042088E0B915485E
:102E9000FFF7E6FA401D87B229463046FFF7BCFF30
:102EA0003946104862699047218A30220D48FFF761
:102EB000F6FB218A01220B48FFF7B4FA618A01224E
:102EC0000848FFF7E1FA01E00120607125802846FB
:102ED000FFF7C8FE6080A068E060BDE8F0810000F8
:102EE0003C0600200004004000B589B0012102200A
:102EF000FFF72EF840F2F710ADF818000020ADF8FB
:102F00001A004FF6FF7007900020ADF8200006A9C8
:102F10002248FFF7F5FB2020ADF804000120ADF8B2
:102F2000060000200390ADF8100001A91B48FFF730
:102F3000B5FA01211948FFF7EFFA00211748FFF70A
:102F4000D9FB002202211548FFF79EFA01A9134878
:102F5000FFF7ECFA01211148FFF73AFB00210F4877
:102F6000FFF7CAFB002204210C48FFF78DFA01A9E4
:102F70000A48FFF73BFB01210848FFF787FB0021C8
:102F80000648FFF7BBFB002208210448FFF77CFA44
:102F900001210248FFF758FA09B000BD00040040C3
:102FA00001461F48007800EB80001E4A02EB4010EB
:102FB000405C1D4A127802EB82021A4B03EB42126C
:102FC000525C904227D11648007800EB8000174AE7
:102FD00002EB801030F81100134A127802EB8202E3
:102FE000124B03EB821232F81120904213D10C489D
:102FF000007800EB80000E4A02EB801030F81100E0
:10300000094A127802EB8202094B03EB821232F872
:103010001120904201D0012070470020FCE7000001
:10302000350600208406002036060020C407002054
:10303000440A002010B5002006490870002404E06E
:10304000204600F00BF8601CC4B2034800788442AC
:10305000F6DB10BD320600203406002010B5014614
:1030600000202CE02022184B1B7803EB8303174C25
:1030700004EB4313164C247801FB04041A55154A3B
:103080001288114B1B7803EB8303134C04EB83135F
:103090000F4C247801FB040423F814200F4A1288F3
:1030A000094B1B7803EB83030D4C04EB8313084C93
:1030B000247801FB040423F81420421CD0B2044AF3
:1030C00012789042CEDB10BD350600208406002029
:1030D0003306002028060020C40700202606002012
:1030E000440A002070B504461149087800EBD071FD
:1030F0004910A0EB410131B18023A02200210846F4
:1031000000F052FA05E0A02380220021084600F0DA
:103110004BFA002507E0201200F0CAFBE0B200F0F5
:10312000C7FB681C85B2B5F5A04FF4DB70BD00008D
:103130002E0600202DE9F04104460D4616461F4696
:103140000020C2490870C24908700120C1490870B6
:10315000C14804700146087800EBD0714910A0EB1B
:10316000410109B1012100E00221BC4A1170BA49B4
:10317000087800EBD0714910A0EB410109B10221A0
:1031800000E00121B64A117000F056FA4FF4807148
:10319000B448FEF77CFE6420FFF70EFB4FF480710D
:1031A000B048FEF776FE6420FFF706FB112000F022
:1031B00057FB7820FFF700FBB12000F051FB012006
:1031C00000F076FB2C2000F073FB2D2000F070FB4C
:1031D000B22000F045FB012000F06AFB2C2000F03B
:1031E00067FB2D2000F064FBB32000F039FB0120C9
:1031F00000F05EFB2C2000F05BFB2D2000F058FB64
:10320000012000F055FB2C2000F052FB2D2000F097
:103210004FFBB42000F024FB072000F049FBC02046
:1032200000F01EFBA22000F043FB022000F040FB58
:10323000842000F03DFBC12000F012FBC52000F00F
:1032400037FBC22000F00CFB0A2000F031FB00200D
:1032500000F02EFBC32000F003FB8A2000F028FBC7
:103260002A2000F025FBC42000F0FAFA8A2000F0A2
:103270001FFBEE2000F01CFBC52000F0F1FA0E2031
:1032800000F016FB362000F0EBFA7348007830B1FE
:10329000012808D002280AD0032810D10BE0C02052
:1032A00000F006FB0BE0A02000F002FB07E000208E
:1032B00000F0FEFA03E0602000F0FAFA00BF00BF61
:1032C000E02000F0CDFA0F2000F0F2FA1A2000F012
:1032D000EFFA0F2000F0ECFA182000F0E9FA2F20A6
:1032E00000F0E6FA282000F0E3FA202000F0E0FAEF
:1032F000222000F0DDFA1F2000F0DAFA1B2000F097
:10330000D7FA232000F0D4FA372000F0D1FA0020B9
:1033100000F0CEFA072000F0CBFA022000F0C8FA45
:10332000102000F0C5FAE12000F09AFA0F2000F01A
:10333000BFFA1B2000F0BCFA0F2000F0B9FA1720EA
:1033400000F0B6FA332000F0B3FA2C2000F0B0FA07
:10335000292000F0ADFA2E2000F0AAFA302000F06B
:10336000A7FA302000F0A4FA392000F0A1FA3F209B
:1033700000F09EFA002000F09BFA072000F098FA77
:10338000032000F095FA102000F092FA2A2000F0B5
:1033900067FA002000F08CFA002000F089FA002083
:1033A00000F086FA7F2000F083FA2B2000F058FA14
:1033B000002000F07DFA002000F07AFA002000F0F2
:1033C00077FA9F2000F074FAF02000F049FA01200B
:1033D00000F06EFAF62000F043FA002000F068FAE0
:1033E0003A2000F03DFA052000F062FA292000F0B2
:1033F00037FA2C2000F034FA284600F061F8304605
:1034000000F014F9384600F00BF92846FFF76AFE81
:10341000204604EBD0714910A4EB410109B11421FD
:1034200000E01021104A1170204604EBD0714910C1
:10343000A4EB410109B1082100E00A210B4A1170F7
:10344000FFF7F8FD00F050F9BDE8F08132060020EA
:1034500035060020360600202E0600202C0600200F
:103460002D06002000000240330600203406002014
:103470000FB400B5C1B043A8009001A8009A4299CA
:10348000FCF768FF0020009001AA0B48017800209B
:1034900000F01CF808480078401C074908700846EE
:1034A000007806490978884202DB0020024908704A
:1034B00041B05DF814FB0000320600203406002005
:1034C000014908807047000026060020F0B5034639
:1034D0002C4D2D7801FB0535E8B2002447E0157826
:1034E0000A2D07D00D2D04D05B2D0ED05D2D15D1EA
:1034F0000CE000BF234D2D7890FBF5F56D1C214E9F
:10350000367805FB0635E8B22FE000BF15785B2D55
:1035100001D1012500E000252C4626E015781A4E41
:10352000367806EB8606194F07EB4616355414B16C
:10353000174D2D8801E0174D2D88134E367806EB78
:103540008606154F07EB861626F81050134D2F8868
:103550000D4D2D7805EB8505114E06EB851C0546B6
:10356000461CF0B22CF8157000BF00BF521C157835
:103570003DB1044D2D780B4E367815FB06F585428E
:10358000ADDCF0BD330600203506002084060020A7
:103590002A06002028060020C40700202606002056
:1035A000440A0020340600202DE9F04104460D466F
:1035B00016461F462A2000F053F9002000F078F943
:1035C000154909782144C8B200F072F9002000F0D2
:1035D0006FF9A119104A12781144C8B200F068F9C5
:1035E0002B2000F03DF9002000F062F90B4909782A
:1035F0002944C8B200F05CF9002000F059F9E9193B
:10360000064A12781144C8B200F052F92C2000F09A
:1036100027F9BDE8F08100002C0600202D060020CF
:1036200001490880704700002A06002001490880EF
:10363000704700002806002000B587B0012108036C
:10364000FEF7A6FC01210846FEF772FCA0200590BB
:1036500002208DF818008DF8190000208DF81A004E
:103660008DF81B0005A91E48FEF7A6FB0522114692
:103670001B48FEF7E9FB052207211948FEF7E4FB8A
:103680004FF4A870059001208DF8180005A9144882
:10369000FEF792FB1348FEF7A7FC0020ADF80000F0
:1036A0004FF48270ADF802000020ADF80400022053
:1036B000ADF806000120ADF808004002ADF80A00A0
:1036C0000820ADF80C000020ADF80E006946054852
:1036D000FEF7F0FC01210348FEF77AFC07B000BDBD
:1036E00000000240003001402DE9F05F0025002677
:1036F00000275248007808B9BDE8F09F002481E017
:10370000E0B2FFF74DFC00287BD0012500BF4C48FC
:10371000007894FBF0F100FB1140284448490978F7
:10372000884208DA29466A1C15B22144C8B2FFF75C
:1037300037FC0028EBD14248007894FBF0F04FF6BC
:10374000FF7101EA00183E48007894FBF0F100FB9D
:1037500011404FF6FF7101EAC00B0120C0EBC5001C
:1037600082B20F2341465846FFF71EFF002744E070
:103770003448007800EB8000334901EB4010A11978
:10378000405C2038314901EB00194FF0080829E06E
:1037900019F80700A8F10101084100F0010050B13B
:1037A0002848007800EB8000294901EB8010A1191E
:1037B00030F8110009E02348007800EB800025492B
:1037C00001EB8010A11930F8110082464FEA2A203F
:1037D00000F06EF80AF0FF0000F06AF8A8F10100AE
:1037E00000F0FF08B8F1000FD2DC701CC0B2064632
:1037F000A84202D10026781CC7B2102FB8DB681E81
:103800000444641C0E4800781349097810FB01F049
:10381000A0423FF775AF0B48007808B9012000E0DF
:103820000020084908700D48007808B9012000E020
:1038300000200A49087000BF5EE700002F06002044
:1038400033060020350600208406002026000020D4
:10385000C4070020440A0020340600203606002059
:1038600010B5044610211048FEF711FB40210E4808
:10387000FEF70DFB00BF02210C48FEF70DFC0028EF
:10388000F9D021460948FEF713FC00BF0121074883
:10389000FEF702FC0028F9D00448FEF706FC1021D0
:1038A0000148FEF7F6FA10BD00000240003001406A
:1038B00010B5044610211048FEF7E9FA40210E48E1
:1038C000FEF7E7FA00BF02210C48FEF7E5FB0028EF
:1038D000F9D021460948FEF7EBFB00BF012107485C
:1038E000FEF7DAFB0028F9D00448FEF7DEFB1021D2
:1038F0000148FEF7CEFA10BD000002400030014042
:1039000030B5154800684FF47A72B0FBF2F1481EEA
:10391000B0F1807F00D31BE0481E4FF0E0225061E1
:1039200050170F22002807DA13071D0E0B4B00F06B
:103930000F04241F1D5503E013071C0E084B1C54D5
:1039400000BF00204FF0E02290610720106100BF0F
:1039500000200449086030BD0000002018ED00E0A0
:1039600000E400E02000002010B500290AD008780B
:10397000002807D005487844FDF74AFD002801D00B
:10398000002010BD0248784410BD00007A010000FC
:103990007201000010B500290AD00878002807D06D
:1039A00005487844FDF734FD002801D0002010BD03
:1039B0000248784410BD00006A0100006201000066
:1039C0004FF04070E1EE100A7047FDF732B9FDF795
:1039D00067BA000000000000000000003031323300
:1039E0003435363738394142434445464030580033
:1039F0003031323334353637383961626364656665
:103A000040307800040000080000000000000002C0
:103A10000001000010303132333435363738396127
:103A2000626364656678700030313233343536371E
:103A30003839414243444546585000000240000096
:103A4000000000A00000000005400000000000C8C9
:103A5000000000000C4000000000409C000000003E
:103A6000194000000020BCBE0000000034400000EF
:103A7000BFC91B8E00000004B5400000504BCFD0E2
:103A80006607E2CF010000006C4100003E8251AAAF
:103A9000DFEEA73401000000D9420000DCB5A0E24F
:103AA0003A301F97FFFFFFFFB4450000FD25A0C877
:103AB000E9A3C14FFFFFFFFFFF3F000000000080B0
:103AC00000000000FF3F0000000000800000000038
:103AD0001C3C0008000000203C060000C401000857
:103AE000E03E00083C060020040D00002002000813
:103AF0001C00000043000000F8FFFFFF0C00000066
:103B00000E0000000F0000002E0000001001000059
:103B100043000000F8FFFFFF0040404040404040AD
:103B20004040414141414140404040404040404090
:103B30004040404040404040400502020202020234
:103B40000202020202020202022020202020202083
:103B50002020200202020202020290909090909097
:103B60001010101010101010101010101010101055
:103B700010101010020202020202888888888888C9
:103B800008080808080808080808080808080808B5
:103B900008080808020202024000000000000000BD
:103BA0000000000000000000000000000000000015
:103BB0000000000000000000000000000000000005
:103BC00000000000000000000000000000000000F5
:103BD00000000000000000000000000000000000E5
:103BE00000000000000000000000000000000000D5
:103BF00000000000000000000000000000000000C5
:103C000000000000000000000000000000000000B4
:103C100000000000000000000000000011847A0392
:103C20000A00092401020304060708091008183CC9
:103C30003C3C181818190341E5666666243D6C6C17
:103C4000FE6C04392E580B187CC6C2C07C0686C692
:103C50007C31216009C2C60C183060C686500B3812
:103C60006C6C3876DCCCCCCC76D530303060192C0E
:103C7000390163180C19093901931830AE663CFFFD
:103C80003C66A37B187E6D89149931110A11FED808
:103C900079322B0206A063C080580B7CC6C6CED6F4
:103CA000D6E6C6C67C281B38784C19016A7E2049A6
:103CB0002F5AC65419106E063C060606301F0C1CFF
:103CC0003C6CCCFEB15A1E7B8EC0C0C0FC0E201BCB
:103CD0003860101AC60159101AFE4049F479802A3A
:103CE000C6046920290C1A7E60BB0C78BA99F15978
:103CF0001069EF399FA530180C0619AB59AE313950
:103D00001C292479601A0CDE895119115EDEDEDE71
:103D1000DCC0802F10386CC6C6FE91611EFC666642
:103D2000667C046366FC1C3C66C2E265C0C2663CFD
:103D30002BF86C1D5D66666CF87C580966626878C5
:103D4000686062668259109C6060F04066DEC6C69C
:103D5000663A296A396F59701A3C9D390159602BAE
:103D60001E0C0165CCCCCC781FE6666C6C7878753F
:103D700062E61AF05B190179709EC6EEFEFED6501F
:103D80008FC6E6F6FEDECE1029DF29019B6C38E0F7
:103D9000294259A04A7C1F7ED6DE7C0C0E2029E4E5
:103DA00059701920600860380C06C6C67CBC7E7E3F
:103DB0005AB0493F19015920590E9C6C3810106EA9
:103DC000D6D6FE6C6C101E6C6C38386C9661196A15
:103DD0009B663C50580AFEC6860C183060C2C6E08E
:103DE0005B3C3001592011580A80C0E070381C0E2D
:103DF0000602205A0C0139201A10EF011922FF0483
:103E0000123030186008780C7CCCCCCC762EE06078
:103E100060786C9592DC6E7CC6C0C0C0E01A1C6AEB
:103E20001A6C2F693039208AFE201F386C6460F0CC
:103E3000600192F02A762F4ECC7C0CCC78602B6CF3
:103E4000766062E61318181A38FE5B1818E013063D
:103E5000063B0E06012B66661319301C666C7893C0
:103E60005930492D8930312CECFED601912ADC5F86
:103E70009B6666A0290159A079207A7CA369A05B82
:103E80000C1E20BB7662C06E7CC660380C401E10D3
:103E90003030FC300193361C393F93CC76395F9338
:103EA0003C18197D8DD6D6FE6C10AF6C3838386C46
:103EB000C6201901657E060CF86008FECC1830603B
:103EC000C6FE1A0EEB2A70F0620E290B39055960F6
:103ED000291C29245B1870CDC2DCCAFF01A1C201D4
:040000050800018965
:00000001FF
