:020000040800F2
:10000000381800209D010008530A00084F0A000814
:10001000510A0008E1080008F1140008000000007F
:10002000000000000000000000000000130E0008A7
:100030006D09000800000000C90A0008150E00083C
:10004000B7010008B7010008B7010008B7010008B0
:10005000B7010008B7010008B7010008B7010008A0
:10006000B7010008B7010008B7010008B701000890
:10007000B7010008B7010008B7010008B701000880
:10008000B7010008B7010008B7010008B701000870
:10009000B7010008B7010008B7010008B701000860
:1000A000B7010008B7010008B7010008B701000850
:1000B000B7010008B7010008C90F0008B701000820
:1000C000B7010008B7010008B7010008E50B0008F8
:1000D000190C00081112000871120008D112000852
:1000E000B7010008B7010008B7010008B701000810
:1000F000B7010008B7010008B7010008B701000800
:10010000B7010008B7010008251000084D0C0008D1
:1001100051110008B1110008B7010008B70100082B
:10012000B7010008B7010008B7010008B7010008CF
:10013000B7010008B7010008B7010008B7010008BF
:10014000B7010008B7010008B7010008B7010008AF
:10015000B7010008B7010008B70100083113000813
:10016000B7010008B7010008B7010008B70100088F
:10017000B7010008B7010008B7010008B70100087F
:10018000B7010008B7010008DFF80CD000F036FA1C
:10019000004800472D2300083818002006488047F3
:1001A00006480047FEE7FEE7FEE7FEE7FEE7FEE75C
:1001B000FEE7FEE7FEE7FEE7A90E0008890100085A
:1001C0002DE9F05F0546002092469B46884606468C
:1001D000814640241BE0284641464746224600F01F
:1001E00045F853465A46C01A914110D31146184655
:1001F000224600F02CF82D1A67EB01084F462246E4
:100200000120002100F023F817EB00094E41201EC9
:10021000A4F10104DFDC484631462A464346BDE8E6
:10022000F09F30B50B46014600202022012409E052
:1002300021FA02F59D4205D303FA02F5491B04FA9F
:1002400002F52844151EA2F10102F1DC30BD202A7E
:1002500004DB203A00FA02F1002070479140C2F11D
:10026000200320FA03F3194390407047202A04DB4F
:10027000203A21FA02F00021704721FA02F3D0401F
:10028000C2F1200291400843194670472DE9FE4F04
:10029000804681EA0300C00F0C46009021F0004127
:1002A00023F00045B8EB0200A94105D240462146A3
:1002B00090461C460B46024623F00040104347D0B0
:1002C000270DC7F30A00C3F30A510290401A0190A8
:1002D00040286BDAC3F3130040F4801B0098924669
:1002E00020B10023D2EB030A63EB0B0B01985946B4
:1002F000C0F140025046FFF7AAFF06460D465046A1
:100300005946019A00F08CF910EB08006141002475
:1003100087EA115284EAE7731A4340D0009A62B325
:10032000019A012A4FEA075215DC001B61EB02011A
:100330004FF0004202EA0752CDE90042001C41F5AD
:10034000801132462B4600F08CF903B0BDE8F08FE7
:1003500040462146F9E7001B61EB0201001C41F514
:10036000801300185B412018A2F5001747EB03012A
:1003700040EAD570B6196D4111E06D084FEA3606B6
:1003800045EAC0754FEA0752001B61EB0201001CF1
:1003900041F5801149084FEA3000001951413246B9
:1003A0002B4603B0BDE8F04F00F04CB90098012295
:1003B00040000023D0EB020263EBE073009821467B
:1003C0004FEAE074B8EB000061EB0401E9E783F069
:1003D00000435BE781F0004158E72DE9FE4F81EAD9
:1003E000030404F0004421F0004100944FF0000B9E
:1003F00023F0004350EA01045ED052EA03045BD0CC
:10040000C3F30A54C1F30A552C44A4F2F334019403
:10041000A0FB0254C1F3130141F48011C3F3130391
:1004200043F4801301FB024400FB034E840A970A45
:1004300044EA815447EA8357A4FB076802958D0A72
:1004400005FB07854FEA932C04FB0C542705029DFE
:100450004FEA065847EA1637B5EB08056EEB070C6E
:10046000870E920E47EA811742EA8312A7FB020128
:10047000B6EB0B0164EB00042B0D43EA0C335E1862
:1004800044EB1C50DA465146E7FB0201C5F3130466
:100490004FEA0B3343EA14534FEA0432019C43EA18
:1004A0000603A4F10C040294009CCDE900B400F012
:1004B000D8F803B0BDE8F08F00200146F9E72DE938
:1004C000F04D81EA030404F0004B21F0004514468E
:1004D0004FF0000A23F0004150EA050220D054EA10
:1004E00001021DD0C5F30A570246C5F31303C1F339
:1004F0001300C1F30A5640F4801543F48013A7EBB0
:100500000608101BD64608F2FD3873EB050002D32F
:1005100008F1010801E092185B41B8F1000F03DA1D
:1005200000200146BDE8F08D00204FF48011064602
:1005300084460EE0171B73EB050705D3121B63EB14
:10054000050306434CEA010C49084FEA30009218B3
:100550005B4150EA0107EDD152EA030012D082EA72
:10056000040083EA0501084305D0101BAB4106D205
:100570000122002306E000224FF0004302E06FF06A
:10058000010253101AEB06004CEB085110EB0A0065
:1005900041EB0B01BDE8F04D00F054B8C1F30A5235
:1005A000C1F3130140F2FF3341F480119A4202DAA1
:1005B00000200146704740F233439A42A2F2334290
:1005C00002DC5242FFF752BEFFF741BE30B5041EB7
:1005D00071F1000404DB4FF00044404264EB010180
:1005E000141E73F1000405DB1C464FF00043524219
:1005F00063EB0403994208BF904230BD064C074D9F
:1006000006E0E06840F0010394E8070098471034E2
:10061000AC42F6D3FFF7BCFDD8350008F83500082A
:10062000202A06DBCB17203A41FA02F043EAE073B6
:1006300006E041FA02F3D040C2F1200291400843A3
:100640001946704710B5141E73F1000408DA401CF7
:1006500041F1000192185B411A4301D120F00100E1
:1006600010BD2DE9F04D92469B4611B1B1FA81F2D1
:1006700002E0B0FA80F220329046FFF7E8FD04462F
:100680000F4640EA0A0041EA0B0153465A46084326
:1006900013D0114653EA010019D0C8F14002504668
:1006A000FFF7E4FD05460E46504659464246FFF721
:1006B000CEFD084305D0012004E020463946BDE8C0
:1006C000F08D0020054346EAE0762C4337430A9834
:1006D0006305E40AA0EB08000022FD0A44EA47543F
:1006E0000A3002D500200146E9E7010510196941E9
:1006F000DDE9084500196941BDE8F04DA2E770B594
:100700008C1810F8015B15F0070301D110F8013BBC
:100710002A1106D110F8012B03E010F8016B01F843
:10072000016B5B1EF9D12B0705D40023521E0DD49B
:1007300001F8013BFAE710F8013BCB1A921C03E0E9
:1007400013F8015B01F8015B521EF9D5A142D8D321
:10075000002070BD0029816814BF41F0010121F023
:100760000101816070470000084AD2F80413084B69
:100770001940D0E9003C43EA0C03D0E902C04CEA3E
:10078000000018430843C2F80403704700200140EA
:10079000E030FCFF0029816814BF41F4807121F42E
:1007A0008071816070470029816814BF41F4007135
:1007B00021F400718160704710B4426891F804C060
:1007C00022F4807222F040720B6842EA0C221A4333
:1007D000426082680C4B4C791A40D1E903C343EA6A
:1007E0000C03D1F808C04CEA440C43EA0C031A434A
:1007F0008260C26A097D22F47002491EC9B242EACF
:100800000151C16210BC7047FDF7FFC030B407252D
:1008100009290CD9C468A1F10A0C0CEB4C0C05FA9F
:100820000CF5AC4303FA0CF32343C36009E00469FD
:1008300001EB410C05FA0CF5AC4303FA0CF323432E
:1008400003614FF01F0C072A0CD2436B521E02EBC0
:1008500082020CFA02FC23EA0C0391401943416323
:1008600030BC70470D2A0CD2036BD21F02EB820200
:100870000CFA02FC23EA0C0391401943016330BCDB
:100880007047C36A0D3A02EB82020CFA02FC23EABB
:100890000C0391401943C16230BC7047816841F03C
:1008A000804181607047000005490028D1F80403A9
:1008B00014BF40F4000020F40000C1F804037047A6
:1008C0000020014005490028D1F8040314BF40F47A
:1008D000800020F48000C1F804037047002001402C
:1008E000FEE70029016814BF41F0010121F0010178
:1008F0000160704710B402681B4BD1F80CC01A405D
:100900000B6843EA0C03D1E905C44CEA040C43EA42
:100910000C03D1F81CC043EA0C03D1F820C043EA11
:100920000C03D1F824C043EA0C03D1F828C043EAF1
:100930000C03D1F834C043EA0C03D1F838C043EAC1
:100940000C031A4302604269D1E90B3C22F0070212
:1009500043EA0C031A4342610A6942604A688260B2
:100960008968C16010BC70473F801CF070472DE95A
:10097000F0010022012603270B6806FA02FC03EAB5
:100980000C03634538D10568530007FA03F4A54307
:1009900005600D79D0F800809D4045EA08050560A6
:1009A0000D79012D18BF022D17D18568A5438560EB
:1009B0004D79D0F808809D4045EA08058560456876
:1009C00025EA0C0CC0F804C0D0F804C08D7995401D
:1009D000ADB24CEA050CC0F804C0D0F80CC02CEA4B
:1009E000040CC0F80CC091F807C00CFA03F3D0F85F
:1009F0000CC043EA0C03C360521C102ABCD3BDE8F0
:100A0000F00170474B07DB0E9A40C90800EB8100EC
:100A1000016A4FF00F0C0CFA03F399430162016A6B
:100A20001143016270470246002012690A4218BF52
:100A30000120704741837047018370474FF6FF7173
:100A400001600021017141718171C1717047FEE740
:100A5000FEE7704710B4C27801784FF00F0C012404
:100A60001AB3184A126801F1E02102F4E062C2F5FB
:100A7000E062C2F30722C2F104032CFA02FC4278BE
:100A80009A40837803EA0C031A43120181F8002488
:100A9000007800F01F0104FA01F14009800000F124
:100AA000E020C0F8001110BC704701F01F0004FAEC
:100AB00000F04909890001F1E021C1F8800110BC72
:100AC000704700000CED00E070470000044A002968
:100AD000116814BF084321EA00001060704700004D
:100AE00030380240044A0029116814BF084321EA43
:100AF000000010607047000040380240044A00299E
:100B0000116814BF084321EA00001060704700001C
:100B100020380240044A0029116814BF084321EA22
:100B2000000010607047000044380240044A002969
:100B3000116814BF084321EA0000106070470000EC
:100B400024380240DFF88CC030B4DCF80010224DAD
:100B500011F00C0106D06C10042908BF046002D00B
:100B600008291DD00560DCF800100F221B4B02EA9B
:100B70001111595C026822FA01F14160DCF8002091
:100B8000072404EA92229A5C21FA02F28260DCF8DD
:100B9000002004EA52329A5CD140C16030BC7047F8
:100BA0000F4A1168C1F380531168002B01F03F0117
:100BB00014BFB4FBF1F1B5FBF1F113681268C3F394
:100BC00088135943C2F30142521C5200B1FBF2F1A7
:100BD0000160C8E7083802400024F400000000204B
:100BE0000438024010B50A4C6021204600F0C3F8DA
:100BF000012818BF10BD204600F0D4F80549C0B246
:100C00000968002908BF10BDBDE810400847000072
:100C1000003001405C09002010B50A4C60212046DC
:100C200000F0A9F8012818BF10BD204600F0BAF85E
:100C30000549C0B24968002908BF10BDBDE8104091
:100C400008470000003800405C09002010B50A4C3D
:100C50006021204600F08FF8012818BF10BD204603
:100C600000F0A0F80549C0B28968002908BF10BD8E
:100C7000BDE8104008470000003C00405C0900202F
:100C80000029018814BF41F4005121F40051018072
:100C900070470029018814BF41F0400121F0400154
:100CA0000180704710B5A0F18041B1F5983124D092
:100CB000A0F18041B1F560512AD0A0F18041B1F599
:100CC000705130D0A0F18041B1F59A3136D0A0F109
:100CD0008041B1F5A8313CD0A0F18041B1F5AA31F5
:100CE00018BF10BD01214805FFF720FFBDE81040E7
:100CF00000214FF40010FFF719BF01210803FFF78F
:100D000015FFBDE8104000214FF48050FFF70EBFE3
:100D100001218803FFF7F2FEBDE8104000214FF4E7
:100D20008040FFF7EBBE0121C803FFF7E7FEBDE8F7
:100D3000104000214FF40040FFF7E0BE01214803BE
:100D4000FFF7F4FEBDE8104000214FF40050FFF71C
:100D5000EDBE01210805FFF7E9FEBDE810400021C6
:100D60004FF48010FFF7E2BE0246002012890A42CB
:100D700018BF0120704701F00F034FF0010C0CFA6F
:100D800003F3002209090CFA01F1B0F804C09BB288
:100D900089B200890CEA010118421CBF0029012216
:100DA00010467047808970478181704710B402886F
:100DB0000B88B1F802C0CC8843EA0C03B1F804C038
:100DC00002F441524CEA040C43EA0C03B1F808C0A7
:100DD00043EA0C03B1F80AC043EA0C03B1F80CC0B3
:100DE00043EA0C03B1F80EC043EA0C031A43028035
:100DF000828B22F400628283098A018210BC7047D0
:100E00000029818814BF41F0040121F00401818090
:100E10007047704702480168491C01607047000034
:100E20001000002030B41B4C20681B4D1B4910F0F3
:100E30000C0008D04FEA650C042808BFC1F800C0B8
:100E400002D008280BD00D602068154AC0F30310AB
:100E5000105C0A6822FA00F0086030BC7047114A42
:100E60001068C0F380531068002B00F03F0014BFDF
:100E7000BCFBF0F0B5FBF0F013681268C3F3881305
:100E80005843C2F30142521C5200B0FBF2F008601A
:100E9000DAE70000083802400024F40014000020C3
:100EA00018000020043802403D4882B0016841F437
:100EB000700101603B48016841F0010101603A495D
:100EC0004FF0000CC1F800C0026822F4102222F09A
:100ED00080720260031D354A1A60026822F4802283
:100EE00002600A1DC2F800C0CDF800C0CDF804C0F1
:100EF000026842F480320260026802F40032019219
:100F0000009A521C0092019A1AB9009AB2F5A04FA9
:100F1000F2D1026812F4003F1ABF01220192CDF80B
:100F200004C0234AD2F800C04CF0805CC2F800C074
:100F3000204AD2F800C04CF4404CC2F800C00A6805
:100F40000A600A6842F400420A600A6842F4A05249
:100F50000A60019A012A1CBF1748186000D0FEE7FA
:100F6000164A1A60026842F080720260026812F04B
:100F7000007FFBD0124A40F205701060086820F034
:100F800003000860086840F002000860086800F08C
:100F90000C000828FAD10B490006086002B070471F
:100FA00088ED00E00038024008380240103000248C
:100FB00040380240007000400854000708544007C1
:100FC000003C024008ED00E070B5134C01212046C2
:100FD00000F069F8002808BF70BD0121204600F02C
:100FE00056F80E4D4FF480712846FFF725FD052079
:100FF00000F0AEFAA9152846FFF71CFD084A516813
:10100000491E516018BF70BD00222046BDE87040E7
:10101000012100F053B80000000800400010024019
:10102000FC06002070B5124C0121204600F03BF870
:10103000002808BF70BD0121204600F028F80D4DA2
:1010400001212846FFF7F8FC052000F081FA012174
:101050002846FFF7EFFC084A1168491E116018BFC7
:1010600070BD00222046BDE87040012100F026B886
:10107000000C004000100240FC06002000290188FE
:1010800014BF41F0800121F0800101807047C94305
:10109000018270470029018814BF41F0010121F04D
:1010A000010101807047038A002280890B4200EA17
:1010B00001001CBF0028012210467047002A8289C7
:1010C00014BF114322EA010181817047C162704758
:1010D00010B402881C4BDFF874C0984218BF6045FA
:1010E00011D0B0F1804F1CBFA0F18044B4F58064F2
:1010F00009D0A0F18044B4F500641CBFA0F1804485
:10110000B4F5406403D14C8822F070022243A0F170
:101110008044B4F580541CBFA0F18044B4F5A054C1
:1011200003D00C8922F44072224302804A68C262D2
:101130000A880285984212BF6045897A018601219A
:10114000818210BC70470000000001400004014093
:1011500070B5154D40F22551284600F030F90128B0
:1011600011D040F22661284600F029F9012818BF65
:1011700070BD032002F086F82846BDE8704040F2BA
:10118000266100F005B9094CE06828B1284600F056
:10119000ABF9E168C0B288472846BDE8704040F22C
:1011A000255100F0F5B80000004C00404409002033
:1011B00070B5154D40F22551284600F000F9012880
:1011C00011D040F22661284600F0F9F8012818BF36
:1011D00070BD042002F056F82846BDE8704040F289
:1011E000266100F0D5B8094C206928B1284600F0E6
:1011F0007BF92169C0B288472846BDE8704040F2BB
:10120000255100F0C5B800000050004044090020FE
:1012100070B5154D40F22551284600F0D0F8012850
:1012200011D040F22661284600F0C9F8012818BF05
:1012300070BD002002F026F82846BDE8704040F25C
:10124000266100F0A5B8094C206828B1284600F0B6
:101250004BF92168C0B288472846BDE8704040F28B
:10126000255100F095B8000000100140440900200D
:1012700070B5154D40F22551284600F0A0F8012820
:1012800011D040F22661284600F099F8012818BFD5
:1012900070BD012001F0F6FF2846BDE8704040F225
:1012A000266100F075B8094C606828B1284600F046
:1012B0001BF96168C0B288472846BDE8704040F21B
:1012C000255100F065B800000044004044090020AA
:1012D00070B5154D40F22551284600F070F80128F0
:1012E00011D040F22661284600F069F8012818BFA5
:1012F00070BD022001F0C6FF2846BDE8704040F2F4
:10130000266100F045B8094CA06828B1284600F0D5
:10131000EBF8A168C0B288472846BDE8704040F2AB
:10132000255100F035B80000004800404409002075
:1013300070B5154D40F22551284600F040F80128BF
:1013400011D040F22661284600F039F8012818BF74
:1013500070BD052001F096FF2846BDE8704040F2C0
:10136000266100F015B8094C606928B1284600F0E4
:10137000BBF86169C0B288472846BDE8704040F2BA
:10138000255100F005B80000001401404409002078
:10139000090A012202FA01F1C943018070470029BC
:1013A000818914BF41F4005121F4005181817047BB
:1013B0000246002012880A4218BF0120704710B46C
:1013C00001F01F020124C1F3421304FA02F24FF0AC
:1013D000000C012B04BF83891A4004D0022B0CBFE0
:1013E000038A838A1A40090A008804FA01F1084036
:1013F000002A1CBF00284FF0010C604610BC70474B
:10140000C1F3421301F01F014FF0010C0CFA01F17E
:10141000012B08BF0C3003D0022B0CBF103014304E
:10142000002A026814BF114322EA010101607047DB
:1014300030B50446008A85B00D46C98820F4405076
:1014400008432082A089A9882A8920F403701143C7
:101450006A8920F4A05010430843A081A08AA9897A
:1014600020F440700843A0826846FFF76BFBA4F1AC
:101470008040B0F588301BBFA4F18040B0F58A30C1
:1014800003980298A18911F4004F00EBC00101EB11
:101490000010296814BF49008900B0FBF1F0114A1F
:1014A0006FF0180CA2FB0031490909010B0903FB7D
:1014B0000CF300EB8300A38913F4004F4FF03203C9
:1014C00014BF03EBC00003EB0010A2FB00204FEAA7
:1014D000501014BF00F0070000F00F0008432081F7
:1014E00005B030BD1F85EB518088C0F30800704700
:1014F000FEE7000037B514460846064B6A4621460B
:1015000000F0F6F804466946002000F088FC20460A
:101510003EBD00001F1E000802E008C8121F08C1DF
:10152000002AFAD170477047002001E001C1121F64
:10153000002AFBD1704781B046F6605148430090C5
:1015400001E000BF0846411E0091FAD201B0704789
:1015500081B0C0EBC0008000009001E000BF0846F1
:10156000411E0091FAD201B0704700002DE9FF5FE3
:1015700082B00021DDE90430020DDDF840B0034304
:1015800018D044F61050A2F2FF32424315141198BD
:1015900001281FD0A5EB0B00401C5FEA000A4FF0AA
:1015A00000064E4FDFF83891B046504615D5CAF1C7
:1015B000000413E0119801244AA3012801D16FEA25
:1015C0000B010298119AC0E90031C0E9024206B04D
:1015D000BDE8F09FCBF10000DFE704460021404A60
:1015E000491842EB0450CDE9001012E0E00707D0A3
:1015F00032463B4640464946FEF7EFFE8046894666
:1016000032463B4610461946FEF7E7FE06460F46B1
:101610006410002CEAD1DDE90401DDE90023BAF110
:10162000000F06DAFEF7D9FE42464B46FEF7D5FE1E
:1016300005E0FEF744FF42464B46FEF740FF0446F6
:101640000E460022284BFEF7C1FF03D84FF0FF30B3
:10165000014607E00022254B20463146FEF716FEE4
:10166000FEF79CFF102409E0002C0ADB0A2200236D
:10167000FEF7A6FD039B30321A55641E50EA0102A4
:10168000F2D1641C039AC4F111031444119A012A83
:1016900003D0012208430DD10AE0084304D0002002
:1016A0004FF0110B119072E7A3EB0B056D1E0DE0CF
:1016B0005B4504DD4FF0000205F1010504E003DAAB
:1016C0004FF00002A5F10105002AECD00298119913
:1016D000C0E90231C0E9004579E70000000014408C
:1016E0000000F03F300000000000F0430000E03F49
:1016F0002DE9FF4F95B09B468946064600250FE22F
:10170000252877D100242746F84A0121059400E0D6
:10171000044316F8013F203B01FA03F01042F7D1D1
:1017200030782A2811D06FF02F033078A0F13002E2
:10173000092A16D8059A44F0020402EB820203EB50
:1017400042021044761C0590EFE759F8042B0592ED
:10175000002A03DA504244F40054059044F0020495
:10176000761C30782E2816D116F8010F44F00404A8
:101770002A280DD06FF02F023078A0F13003092B0A
:1017800009D807EB870302EB4303C718761CF3E77E
:1017900059F8047B761C30786C280FD006DC4C2876
:1017A00017D068280DD06A2814D104E0742810D00E
:1017B0007A280FD10DE044F400140AE044F48014B8
:1017C00001E044F440147278824202D104F580149E
:1017D000761C761C307866280BD013DC582877D01E
:1017E00009DC002875D04528F6D04628F4D04728D3
:1017F0001AD19DE118E0632835D0642879D0652896
:1018000012D195E1702873D008DC6728F1D06928DF
:101810006FD06E280DD06F2806D1B5E073282CD07C
:10182000752875D0782874D05A46179990476D1C42
:1018300075E1C4F30250022809D003280DD0D9F86D
:10184000001004280DD00D6009F1040967E1D9F8F2
:101850000010EA17C1E90052F6E7D9F800100D8030
:10186000F2E70D70F0E719F8041B8DF80010002066
:101870008DF80100EA46012003E059F804AB4FF06F
:10188000FF3061074FF0000102D40DE008F10101C3
:101890008846B9420FDA8045F8DB1AF808100029AB
:1018A000F4D108E008F1010188468142FADB1AF818
:1018B00008100029F6D105985B46A0EB08072146E1
:1018C0003846179A00F094FA284400EB080507E020
:1018D0004DE029E10DE01AF8010B5A46179990479F
:1018E000B8F10108F7D25B4621463846179A13E152
:1018F00042E00A220092C4F302524FF0000A022A88
:1019000008D059F804CB032A4FEAEC710AD00DE055
:1019100029E02AE009F1070121F00702F2E802C1FB
:10192000914609E00FFA8CFC4FEAEC71042A03D1CE
:101930004FFA8CFC4FEAEC71002907DA0A460021C5
:10194000DCF1000C61EB02012D2202E0220504D53E
:101950002B228DF80420012203E0E20701D020228F
:10196000F7E7904659E00A2102E010220DE010212D
:101970004FF0000A00910BE010224FF0000A44F0F3
:1019800004040827009203E008224FF0000A0092A6
:10199000C4F30252022A05D059F804CB0021032ACD
:1019A00008D009E009F1070121F00702F2E802C1BD
:1019B000914605E01FFA8CFC042A01D10CF0FF0CC3
:1019C0004FF00008220728D5702806D0009B83F02E
:1019D000100353EA0A0305D00EE040228DF80420DC
:1019E000012208E05CEA010206D030228DF80420D2
:1019F0008DF8050002229046009B83F0080353EA0D
:101A00000A030AD15CEA010201D1620705D530223E
:101A10008DF804204FF001087F1E582804D034A010
:101A200003900EA802900DE036A0F9E753466046F9
:101A3000009AFEF7C5FB84460398825C0298401E1C
:101A4000029002705CEA0100F0D1029806A9081A1F
:101A500000F1200A600702D524F4803400E0012759
:101A6000574502DDA7EB0A0000E0002000EB0A0169
:101A7000009005984144401A0590E00306D45B4667
:101A80002146179A059800F0B3F90544002706E0AF
:101A900001A85A46C05D179990476D1C7F1C4745A9
:101AA000F6DBE0030CD55B462146179A059800F05B
:101AB0009FF9054404E030205A46179990476D1C61
:101AC0000099481E00900029F5DC08E00298029970
:101AD0005A460078491C0291179990476D1CBAF13B
:101AE0000001AAF1010AF1DC65E10000092801000A
:101AF0003031323334353637383961626364656684
:101B00000000000030313233343536373839414245
:101B1000434445460000000000F058F90544761C97
:101B2000307800287FF4ECAD19B02846BDE8F08F7E
:101B3000620700D4062709F1070222F0070CFCE82F
:101B40000223E14603F000485FEA080C02D00FF2DE
:101B5000702C0DE05FEA045C02D50FF2682C07E000
:101B60005FEAC47C02D00FF2602C01E0AFF2700C8F
:101B70004FF0FF3823F00043CDF850C065280CD05B
:101B800006DC452809D046281DD047283DD13DE038
:101B9000662818D067287ED138E00021112F01DB9C
:101BA000112000E0781CCDE9000106A90EA8FFF77E
:101BB000DDFCDDE90F010E9A03910021009207F18F
:101BC000010A04914DE04FF000400097CDE901106B
:101BD00006A90EA8FFF7CAFCDDE90F0203920E9BCF
:101BE00011990022DDF80CA00093049211B9791C20
:101BF00000EB010AB7EB0A0004D4C0F1FF3007F193
:101C0000010A0490AAEB0700019044E0012F00DADA
:101C100001270021112F01DD112000E03846CDE918
:101C2000000106A90EA8FFF7A1FCDDE90F010E9A3D
:101C30000391002104910092BA4621070CD4039924
:101C4000514500DA8A46BAF1010F05DD009AAAF182
:101C50000101515C302908D0B84202DA10F1040FBA
:101C600006DA0121CDE9011015E0AAF10101E9E749
:101C7000002805DC049901440491AAEB000102E06C
:101C8000411C514500DD8A460499401A401C0190D0
:101C90004FF000400290200704D40198504501DB2A
:101CA000CDF8048000208DF84F0002980DF14F0709
:101CB000B0F1004F25D02B200E9002984FF0020873
:101CC00000280CDA404202902D200E9007E00A21F5
:101CD0000298FEF7A6FA3031029007F8011DB8F11C
:101CE0000001A8F10108F2DC02980028EFD1791E6A
:101CF0000E980870307800F0200040F0450007F89A
:101D0000020D12A8C01B00F107081498007800B15A
:101D1000012000EB0A01019801EBE07105984144B4
:101D2000401A401E0590E00306D45B462146179AF0
:101D3000059800F05DF805441498007818B15A46EB
:101D4000179990476D1CE00324D55B462146179AEE
:101D5000059800F04DF805441CE00498002807DBC6
:101D6000DDE90301884203DD0098405C179901E03A
:101D7000179930205A469047049805F10105401CF8
:101D800004900198401E019004D12E205A461799C4
:101D900090476D1CBAF10001AAF1010ADDDC05E0F3
:101DA00017F8010B5A46179990476D1CB8F10001BE
:101DB000A8F10108F4DC5B462146179A0598ABE6CA
:101DC0002D0000002B000000200000002DE9F04154
:101DD000044600251E461746880404D405E039460B
:101DE0002020B0476D1C641EF9D52846BDE8F0815F
:101DF0002DE9F041044600251E469046C80301D552
:101E0000302700E02027880404D505E04146384605
:101E1000B0476D1C641EF9D52846BDE8F0810A68FC
:101E2000531C0B60107070472DE9F04FDFF86C9178
:101E30009DB0002404EB440009EBC0050121686853
:101E4000FEF768FE01216869FEF740FE601CC4B21F
:101E5000022CEFD30024DFF848A1264604EB44050A
:101E60005AF8250000F0DCF9009603225AF8250004
:101E70000123114600F091F9601CC4B20A2CEDD385
:101E800018961A96199618A81B96FEF76DFC012055
:101E90008DF84D0014968DF84C00129615961696F6
:101EA00081020596CDE90761C102099141030A91BA
:101EB00001020B9141040C91CDE90D604FF0000837
:101EC000DFF8E0B00F964746109607EB4704002571
:101ED00059F83400584512D10120FEF7E5FC0120E5
:101EE000FEF7F0FC02250723012210215846FEF7D9
:101EF0008DFC0723022211215846FEF787FC00269D
:101F000006EB46000AEB800159F8342048689042FD
:101F100006D16A1CD5B2097A07232A46FEF776FC59
:101F2000701CC6B20A2EEBD38DF85C5059F8340001
:101F300012A9FEF741FC09EBC40602A93069029020
:101F400059F8340006954C300390174800EB4800D0
:101F50000490F068FEF7CEFC0121F068FEF7C1FCAA
:101F600059F834000121FEF71EFC59F83400012114
:101F7000FEF710FC59F834000121FEF7EBFB59F88D
:101F80003400FEF78BFC08EB05001FFA80F8781C84
:101F9000C7B2022F99D31DB0BDE8F08FA03300085F
:101FA00028330008002001400407002070B5094DC7
:101FB000002455F8340000F033F905EBC400017932
:101FC00055F8340000F0FDF8601CC4B2072CF0D3C3
:101FD00070BD0000A0350008014A42F8201070478B
:101FE000840900202DE9F047DFF8A080002408F1E3
:101FF0003807254EA7F11C09A246A7F1540506EBA8
:10200000C4000079012856F8340009D000F061F9C5
:1020100000B10120002855F824002CD038B10BE085
:1020200000F057F9002818BF0020F3D1F1E758F865
:102030002400002818BF804757F8340080B107EB10
:10204000C40155F82420B1F904309A4208D9B1F9F5
:102050000610B2FBF1F301FB1321002908BF8047F2
:1020600055F82400401C45F82400601CC4B2072C1D
:10207000C5D3BDE8F08700281EBF59F8240000280A
:10208000804745F824A0F0E7A03500088409002027
:1020900010B5054800F0C4F80222BDE81040002148
:1020A000014800F0A2B80000683500088088802848
:1020B00004BF072070471EDC082804BF03207047B8
:1020C0000CDC012804BF00207047022804BF012057
:1020D0007047042804BF0220704731E0102804BF75
:1020E00004207047202804BF05207047402804BF03
:1020F0000620704724E0B0F5006F04BF0B20704746
:102100000FDCB0F5807F04BF08207047B0F5007F7A
:1021100004BF09207047B0F5806F04BF0A207047E4
:102120000EE0B0F5805F04BF0C207047B0F5005F93
:1021300004BF0D207047B0F5804F04BF0E207047DC
:102140000F207047014931F8100070470407002044
:10215000F0B583B004461F4616460D466846FEF7A6
:102160006DFCA088009003208DF8050002208DF8FA
:1021700004008DF806508DF807602046FFF796FFA3
:10218000D4F800C001463A466046FEF73BFC69467B
:102190002068FEF7ECFB03B0F0BD10B582B0848878
:1021A0008DF805208DF80410DDF810C08DF806308C
:1021B00000948DF807C000686946FEF7D8FB02B0AE
:1021C00010BD30B583B004460D466846FEF736FCB8
:1021D00000208DF80400A08800908DF80750694613
:1021E0002068FEF7C4FB03B030BD70B582B0044672
:1021F00016460D466846FEF721FC01208DF80400C6
:1022000003208DF80500A0888DF8065000908DF809
:10221000076069462068FEF7AAFB02B070BD0000A7
:1022200000681B4A811A904226D00FDCA0F50030CE
:10223000B0F1804018D0B0F5806F19D0B0F5006FC4
:1022400018BF704701210420FEF740BCB1F5806F34
:1022500016D0B1F5006F17D0B1F5406F18BF7047B9
:1022600001214020FEF732BC01210846FEF72EBCBA
:1022700001210220FEF72ABC01210820FEF726BC1E
:1022800001211020FEF722BC01212020FEF71EBCF8
:10229000000C024010B501210846FEF717FC012191
:1022A0000220FEF713FC01210420FEF70FFC0121A0
:1022B0000820FEF70BFC01211020FEF707FC01218E
:1022C0002020FEF703FC0121BDE810404020FEF76E
:1022D000FDBB81880068FEF7A6BB10B50820FFF79C
:1022E00031FFB0F5346F84BF002010BD42F2107191
:1022F000484347F60501B0FBF1F0643010BDFFF72D
:1023000093BD000070B5084D002455F82400FFF778
:1023100087FF55F8240002220021FFF766FF601CAA
:10232000C4B2022CF1D370BDEC060020FEF7BCFD58
:10233000FEF778FDFFF7AEFF00F0FAFE00214FF444
:1023400078434FF6FF72084600F08AFBFFF7DAFF8A
:10235000FFF79EFEFFF72AFEFFF7D1FF00F0CEF950
:1023600028490020FFF738FE27490120FFF734FEF7
:102370004FF4E131002000F0F9FE4121002000F08F
:1023800055FF234C214E234DDFF88C80234FA66050
:10239000286861688842FBD028686060A8FB00213B
:1023A0000909494201EB810110EB8100F0D100F0F5
:1023B000F3FA1BA0616800F0DDFC012000F098F941
:1023C0008146002000F094F901464A4617A000F02B
:1023D000D1FCFFF782FF014617A000F0CBFCD7E944
:1023E000001218A000F0C6FCA068B04214BF17A0ED
:1023F00019A000F0BFFC00F05FFDFFF7F3FDA0683F
:102400008047C5E7212500088D2400081D25000808
:102410002800002010000020CDCCCCCCFC060020F1
:1024200054696D653A2025640000000056656C3AD9
:102430002020256420256400446973743A202564B3
:102440000000000025642025640000005363616ED5
:102450006E696E67000000005374616E64627900FB
:1024600007480068002818BF704710B54FF4B472D1
:102470001921012000F0AEF903490248886010BD1F
:10248000FC060020F12400082800002010B5134CA1
:102490001349A068884218BF10BD207818B91149A7
:1024A000002000F025FA2078012803D10E490020F1
:1024B00000F01EFA2078022803D10C49002000F019
:1024C00017FA2078032803D10021084600F010FAFB
:1024D0002078401C00F00300207010BD2800002070
:1024E0001D25000870FEFFFFA8FDFFFFE0FCFFFFB9
:1024F00007484068002818BF704710B54FF4B47201
:10250000C821002000F066F903490248886010BD28
:10251000FC0600206124000828000020704700000D
:1025200070B50C4C0C4DA068A84208D14FF4B472A1
:102530001921012000F04EF90848A06070BD00216B
:10254000084600F0D5F90021012000F0D1F9A5607E
:1025500070BD0000280000201D250008F12400089F
:102560002DE9F0470546404886B016460F4685429D
:1025700008BF00240DD0A5F18042B2F5605208BF1B
:10258000012406D0A5F18042B2F570520CBF02249E
:10259000FF243649854251F824004FF0010102D151
:1025A000FEF7B8FA01E0FEF79DFADFF8C48058F8AC
:1025B0002400002818BFFFF733FEDFF8B8A05AF850
:1025C0002400002818BFFFF72BFEDFF8AC9059F865
:1025D0002400002818BFFFF723FE58F82400DFF876
:1025E0009C8028B1002218F804301146FFF7B0FD96
:1025F0005AF8240028B1002218F804301146FFF7D9
:10260000A7FD59F8240028B1002218F8043011461B
:10261000FFF79EFD2846FEF745FB0020ADF80400BD
:102620000221ADF806100121ADF80810ADF8000048
:102630004902ADF80C60ADF80A10ADF80E00ADF827
:10264000027069462846FEF7B1FB01212846FEF7D5
:1026500020FB00212846FEF713FB00212846FEF749
:10266000CFFB06B0BDE8F08700300140C00000207D
:10267000B4000020A80000209C000020940000204E
:1026800070B50D46044602212046FEF76DFB00287A
:10269000F9D029462046FEF787FBA4F18041204669
:1026A000B1F5983108BF00200DD0A0F18041B1F5FF
:1026B000605108BF012006D0A4F18041B1F57051EE
:1026C0000CBF0220FF20094951F8200000281CBF40
:1026D000002070BD01212046FEF746FB0028F9D0FE
:1026E0002046BDE87040FEF75DBB00005C0900209D
:1026F000014931F810007047F6060020F0B587B0A8
:1027000001211020FEF7E2F901258DF81450022670
:102710008DF81560002440F203302B4F8DF81640E1
:1027200004908DF8174004A93846FEF720F93220AE
:102730008DF80C008DF80D608DF80E408DF80F505F
:1027400003A8FEF787F91E208DF80C008DF80E50B7
:1027500003A8FEF77FF901210820FEF7C3F940F234
:102760008F60ADF80000ADF80840ADF802408DF87C
:102770000A4040F6B830154C019069462046FEF7F5
:10278000A7FC01212046FEF779FC01212046FEF737
:102790007EFC01210420FEF7A5F90D4C6946204678
:1027A000FEF796FC01212046FEF768FC0121204639
:1027B000FEF76DFC02213846FEF73CF961153846FC
:1027C000FEF738F907B0F0BD00100240000C0040E1
:1027D0000008004070B5040025480E464FF4B4715F
:1027E0000088154602FB00F0B0FBF1F02149224AB7
:1027F00041F824004FF0010000EBE67302D0012CF9
:102800000ED01CE013B1012B05D018E002211046B8
:10281000FEF710F913E002211046FEF70DF90EE065
:1028200013B1012B06D00AE04FF400711046FEF7F9
:1028300001F904E04FF400711046FEF7FDF8B1B263
:10284000204600F01FF82CB1012C18BF70BD0B48BA
:1028500015B907E00A482DB1BDE8704001221146C4
:10286000FEF72CBCBDE8704000220121FEF726BC1B
:10287000F4060020FC060020001002400008004082
:10288000000C004010B5B1F5487F88BF10BD144A58
:10289000144B4FF4D26C22F81010921E1B68128851
:1028A0004A4328B1012818BF10BD0F4811B912E0E2
:1028B0000E4881B1B3FBFCF1C1EB01118900B1FB02
:1028C000F2F189B20446FEF701FC2046BDE8104053
:1028D0000121FEF7DFBBBDE810400021FEF7DABBA7
:1028E000F60600201400002000080040000C004004
:1028F00070B50C46244905006FF0004041F82500F2
:102900004FF00100214A00EBE47102D0012D0ED0FE
:102910001CE011B1012905D018E002211046FEF794
:1029200089F813E002211046FEF786F80EE011B197
:10293000012906D00AE04FF400711046FEF77AF83C
:1029400004E04FF400711046FEF776F8002CB4BF97
:102950006042204681B22846FFF794FF2DB1012D39
:1029600018BF70BD0A4814B907E00A482CB1BDE889
:10297000704001221146FEF7A1BBBDE87040002265
:102980000121FEF79BBB0000FC0600200010024066
:1029900000080040000C00402DE9F04F1C490020C9
:1029A0000246887091F806B0BBF1000F98BFBDE8F1
:1029B000F08F4FF02009DFF85CE0C8790EF5A074C5
:1029C00004F52073B1F80CC000EB8005B1F80A8063
:1029D000497904EB851403EB851700201346002981
:1029E00088BF03FB01E60DD900EB451A06F80A90F3
:1029F00003FB010A401C24F81AC0C0B227F81A8051
:102A00008142F1D8581CC2B29345E6D8BDE8F08F98
:102A1000CC000020F409002070B505460F4800786E
:102A200010F0010F06D000218023A022084600F0FC
:102A30000BFA05E00021A0238022084600F004FAEA
:102A400000242E0A304600F057FBE8B200F054FB99
:102A5000601C84B2B4F5A04FF4D370BDCC0000204C
:102A60002DE9F0410546C04C0E46BE48BF49C4E9B9
:102A70000610BF4961610021A170E171012121723D
:102A800005F001011F4690462570002914BF012161
:102A90000221E17014BF0221012121714FF00802CF
:102AA0004FF48271FFF75CFD2069FFF7B9FB6069A5
:102AB000FFF7B6FBA069FFF7B3FB002211462069C0
:102AC000FFF793FB002211466069FFF78EFB00229F
:102AD0001146A069FFF789FB206981880068FDF72E
:102AE000A9FF6420FEF727FD206981880068FDF7B3
:102AF000A3FF6420FEF71FFD112000F0E1FA78200B
:102B0000FEF719FDB12000F0DBFA012000F0F4FA25
:102B10002C2000F0F1FA2D2000F0EEFAB22000F0A7
:102B2000CFFA012000F0E8FA2C2000F0E5FA2D2081
:102B300000F0E2FAB32000F0C3FA012000F0DCFA62
:102B40002C2000F0D9FA2D2000F0D6FA012000F058
:102B5000D3FA2C2000F0D0FA2D2000F0CDFAB420CA
:102B600000F0AEFA072000F0C7FAC02000F0A8FA83
:102B7000A22000F0C1FA022000F0BEFA842000F08A
:102B8000BBFAC12000F09CFAC52000F0B5FAC220C3
:102B900000F096FA0A2000F0AFFA002000F0ACFA3C
:102BA000C32000F08DFA8A2000F0A6FA2A2000F057
:102BB000A3FAC42000F084FA8A2000F09DFAEE20E7
:102BC00000F09AFAC52000F07BFA0E2000F094FA8B
:102BD000362000F075FA2078002808BFC0200BD0FE
:102BE000012808BFA02007D0022808BF002003D07A
:102BF000032808BF602001D100F07EFAE02000F039
:102C00005FFA0F2000F078FA1A2000F075FA0F2012
:102C100000F072FA182000F06FFA2F2000F06CFA22
:102C2000282000F069FA202000F066FA222000F047
:102C300063FA1F2000F060FA1B2000F05DFA2320E9
:102C400000F05AFA372000F057FA002000F054FA4A
:102C5000072000F051FA022000F04EFA102000F098
:102C60004BFAE12000F02CFA0F2000F045FA1B206F
:102C700000F042FA0F2000F03FFA172000F03CFA73
:102C8000332000F039FA2C2000F036FA292000F029
:102C900033FA2E2000F030FA302000F02DFA3020E8
:102CA00000F02AFA392000F027FA3F2000F024FA39
:102CB000002000F021FA072000F01EFA032000F0A7
:102CC0001BFA102000F018FA2A2000F0F9F9002071
:102CD00000F012FA002000F00FFA002000F00CFAC9
:102CE0007F2000F009FA2B2000F0EAF9002000F024
:102CF00003FA002000F000FA002000F0FDF99F2008
:102D000000F0FAF9F02000F0DBF9012000F0F4F90E
:102D1000F62000F0D5F9002000F0EEF93A2000F09E
:102D2000CFF9052000F0E8F9292000F0C9F92C209E
:102D300000F0C6F96681A4F80C80E7813046FFF701
:102D40006BFE05F00100002814BF142010206071F4
:102D500014BF08200A20A071FFF71EFEBDE8F04155
:102D600000F0AAB800300140CC0000206834000810
:102D7000783400080FB430B5C1B045AA684644990C
:102D8000FEF7B8FB094C00256A46A178284600F0FA
:102D90000FF8A078401CC0B2A070A179884228BF6B
:102DA000A57041B030BC5DF814FB0000CC000020E1
:102DB0002DE9F00F224D95F805C011FB0C012B46B3
:102DC000204EDB7906F5A07703EB830306EB43196E
:102DD00006F5707607EB831806EB8316B5F80EB090
:102DE000B5F80CA06F89AB79C9B200241CFB03F5C0
:102DF0001EE00A2B18BF0D2B13D05B2B08BF01243C
:102E000015D05D2B08BF002411D009F80130002C2B
:102E100014BF5B46534628F8113026F81170491C40
:102E200004E0B1FBFCF1491C01FB0C01C9B2521CCE
:102E30001378002B18BF8D42DBD8BDE8F00F704728
:102E4000CC000020F40900202DE9F04105461F4682
:102E500090460C462A2000F033F9002000F04CF98F
:102E6000144EF0782844C0B200F046F9002000F07B
:102E700043F9F17805EB08000844C0B200F03CF9D2
:102E80002B2000F01DF9002000F036F930792044A5
:102E9000C0B200F031F9002000F02EF93179E019CC
:102EA0000844C0B200F028F9BDE8F0412C2000F041
:102EB00007B90000CC0000202DE9F05F7C484FF0FE
:102EC00000094178002908BFBDE8F09F0024784838
:102ED0004179807911FB00F0002840F3DA80744BCF
:102EE000744EE0B2D97901EB8102197A06EB421CEB
:102EF00001EB810106EB41131CF800501F5CBD4241
:102F000017D106F5A07505EB821705EB811537F88B
:102F1000107035F81050AF420BD106F5707505EB07
:102F2000821705EB811537F8107035F810008742CD
:102F30007DD061485E4E00EB821800EB811700F5F2
:102F4000207000EB811A7179012500EB821294FB4D
:102F5000F1F001FB10402844884215DA6019C0B234
:102F60006D1C1CF800B013F800E02DB2F345EED153
:102F700038F810B037F810E0F345E8D132F810B067
:102F80003AF810008345E2D194FBF1F001FB1042C6
:102F900094FBF1F14FF6FF7000EAC20700EA011856
:102FA0004FF0FF3000EBC50A2A2000F089F800201E
:102FB00000F0A2F8F0783844C0B200F09DF800208C
:102FC00000F09AF8F17807EB0A000844C0B200F06C
:102FD00093F82B2000F074F8002000F08DF8307981
:102FE0004044C0B200F088F8002000F085F8317944
:102FF00008F10F000844C0B200F07EF82C2000F069
:103000005FF800272A4904EB0908C87900EB800221
:10301000284800EB421010F8082001F1200000EBD6
:103020000210A0F5007A08201AF8071000E027E047
:10303000A0F1010B21FA0BF010F0010F1C48C07930
:1030400000EB800114BF1C481C4800EB811030F8D5
:103050001860300A00F050F8F0B200F04DF81BF0A4
:10306000FF00E1D109F1010000F0FF09A94503D1FA
:10307000781C4FF00009C7B2102FC3D36019441E4B
:103080000B484179807911FB00F0641CA0423FF7A6
:1030900026AF0749C87900280CBF01200020C8715D
:1030A000087A00280CBF012000200872BDE8F09FBC
:1030B000CC000020F4090020340B0020B40D0020C7
:1030C00070B50C4C0546A1698A8808681146FDF761
:1030D000B1FC61698A8808681146FDF7ABFC294696
:1030E000E069FFF7CDFAA06981880068BDE870400B
:1030F000FDF7A2BCCC00002070B50C4C0546A169C0
:103100008A8808681146FDF795FC61698A88086815
:103110001146FDF791FC2946E069FFF7B1FAA06975
:1031200081880068BDE87040FDF786BCCC000020B7
:103130000B484FF47A7100220068B0FBF1F0401E9A
:10314000B0F1807F09D24FF0E0214861054BF020BB
:1031500083F8140D8A6107200861034802607047F4
:10316000140000200FE000E010000020F0B52E4E0B
:1031700000EB800506EB850485B00F466068FFF71D
:103180004FF8A068FFF74CF8207C012802D00228F5
:1031900005D0FEE70121E068FDF7A4FC03E0012172
:1031A000E068FDF7B7FC637C012200216068FEF750
:1031B000CFFF637C01220021A068FEF7C9FF002039
:1031C000ADF80400ADF80600ADF80800ADF80C004D
:1031D0000C200097ADF80A0056F825006946FEF766
:1031E00027F956F825000121FEF7D9F8A07C8DF8C3
:1031F000100001208DF811008DF812008DF81300D9
:1032000004A8FDF727FC56F82500012240F22551BD
:10321000FEF7F6F856F82500012240F22661FEF787
:10322000EFF805B0F0BD0000D033000870B50446DB
:10323000124D00EB84000E4655F820008021FEF769
:10324000B7F850B90E4904EB440001EB80008088C8
:10325000002808BF04EB840405D031462046BDE8B1
:10326000704000F043B855F824008021FEF7A0F824
:103270000028F8D055F82400868070BDD0330008AF
:103280003400002070B50446154E00EB8405802103
:1032900056F82500FEF78CF8012818BF70BD04EB26
:1032A0004402DFF840C00CEB82018888002808BF88
:1032B00070BD3CF822308868C05C56F82530988094
:1032C0003CF82200084B401C53F82430B0FBF3F4C8
:1032D00003FB14002CF822008888401E888070BDF3
:1032E000D0330008340000207C0000200C4A00EBA2
:1032F000400302EB8302B2F802C0936803F80C109B
:103300005188084B491C53F82030B1FBF3FC03FBF8
:103310001C1151809188491C9180FFF7B3BF0000B8
:10332000340000207C000020D03400080020014040
:103330000A000000D8340008002001400B00000003
:10334000E0340008002001400C000000E8340008D0
:10335000002001400D000000F03400080020014072
:103360000E000000F8340008002001400F000000AB
:10337000703500080022014009000000783500087F
:10338000002201400E0000008035000800220140AC
:103390000F000000883500080022014004000000F2
:1033A000002001400001000000640240106402405F
:1033B0000000000000004000002201400004000066
:1033C0000064024028640240000000040000400045
:1033D00000100140903400089834000810000000EC
:1033E00002072500004400405834000860340008FB
:1033F000000002000107260000480040A834000831
:10340000B03400080000040001072700004C004011
:103410004834000850340008000008000108340057
:10342000005000401035000838350008000010003A
:103430000108350000140140983500089035000857
:1034400020000000020847000000024001000000C8
:1034500000000240020000000000024004000000E2
:1034600000000240080000000000024010000000C0
:103470000000024020000000000002404000000068
:103480000000024080000000000002400001000037
:1034900000000240000200000000024000040000A2
:1034A000000402402000000000040240000400006C
:1034B0000004024000080000000402400020000058
:1034C00000040240004000000004024000800000B0
:1034D0000008024001000000000802400200000055
:1034E000000802400400000000080240080000003C
:1034F0000008024010000000000802402000000008
:10350000000802400004000000080240000800001B
:1035100000080240001000000008024000400000C7
:103520000008024000800000000C02400100000082
:10353000000C024002000000000C024004000000E9
:10354000000C024008000000000C024010000000C7
:10355000000C024020000000000C0240400000006F
:10356000000C024080000000001402400400000033
:103570000014024008000000001402401000000087
:10358000001402402000000000140240400000002F
:103590000018024000020000001802400040000035
:1035A00058350008010000006035000801000000E7
:1035B0002835000801000000303500080100000037
:1035C00040350008010000004835000801000000F7
:1035D0005035000801000000F83500080000002008
:1035E00004070000FE060008143900080407002044
:1035F0003411000028150008412D01020304045570
:1036000006070809847A030AB918F1131C078220F7
:103610009A4E0C8B7A080C9AAC0C9ADE0C1310099B
:10362000332032232C012908A90427050506232469
:10363000331370341B08B80413083542081AC00C41
:103640001AA0041A80041AC8041129183210324032
:103650002A80ADE12A8824011D1008183C3C3C1842
:103660001818190341E5666666243D6C6CFE6C040F
:10367000392E580B187CC6C2C07C0686C67C312108
:103680006009C2C60C183060C686500B386C6C38A6
:1036900076DCCCCCCC76D530303060192C39016357
:1036A000180C19093901931830AE663CFF3C66A32B
:1036B0007B187E6D89149931110A11FED879322B4D
:1036C0000206A063C080580B7CC6C6CED6D6E6C61E
:1036D000C67C281B38784C19016A7E20492F5AC6AF
:1036E0005419106E063C060606301F0C1C3C6CCCB0
:1036F000FEB15A1E7B8EC0C0C0FC0E201B3860106D
:103700001AC60159101AFE4049F479802AC6046984
:1037100020290C1A7E60BB0C78BA99F1591069EF18
:10372000399FA530180C0619AB59AE31391C292424
:1037300079601A0CDE895119115EDEDEDEDCC08094
:103740002F10386CC6C6FE91611EFC6666667C044E
:103750006366FC1C3C66C2E265C0C2663C2BF86C2A
:103760001D5D66666CF87C58096662687868606200
:10377000668259109C6060F04066DEC6C6663A29D3
:103780006A396F59701A3C9D390159602B1E0C0122
:1037900065CCCCCC781FE6666C6C78787562E61ADE
:1037A000F05B190179709EC6EEFEFED6508FC6E61C
:1037B000F6FEDECE1029DF29019B6C38E029425944
:1037C000A04A7C1F7ED6DE7C0C0E2029E45970199D
:1037D00020600860380C06C6C67CBC7E7E5AB049A4
:1037E0003F19015920590E9C6C3810106ED6D6FE28
:1037F0006C6C101E6C6C38386C9661196A9B663C58
:1038000050580AFEC6860C183060C2C6E05B3C30D9
:1038100001592011580A80C0E070381C0E060220A1
:103820005A0C0139201A10EF011922FF041230300E
:10383000186008780C7CCCCCCC762EE06060786C7C
:103840009592DC6E7CC6C0C0C0E01A1C6A1A6C2F50
:10385000693039208AFE201F386C6460F060019264
:10386000F02A762F4ECC7C0CCC78602B6C76606284
:10387000E61318181A38FE5B1818E01306063B0EFC
:1038800006012B66661319301C666C789359304913
:103890002D8930312CECFED601912ADC5F9B6666C7
:1038A000A0290159A079207A7CA369A05B0C1E2075
:1038B000BB7662C06E7CC660380C401E103030FC97
:1038C000300193361C393F93CC76395F933C1819FD
:1038D0007D8DD6D6FE6C10AF6C3838386CC620198A
:1038E00001657E060CF86008FECC183060C6FE1A32
:1038F0000EEB2A70F0620E290B39055960291C293C
:10390000245B1870CDC2DCCAFF01111318351B08E7
:043910002004F2C8D5
:040000050800018965
:00000001FF
