:020000040800F2
:100000000804002045010008630300085F0300089E
:10001000610300088D010008FD04000800000000D5
:1000200000000000000000000000000009040008BB
:100030008F01000800000000ED0300080B04000819
:100040005F0100085F0100085F0100085F01000810
:100050005F0100085F010008910100085F010008CE
:100060005F0100085F0100085F0100085F010008F0
:100070005F0100085F0100085F0100085F010008E0
:100080005F0100085F0100085F0100085F010008D0
:100090005F0100085F0100085F0100085F010008C0
:1000A0005F0100085F0100085F0100085F010008B0
:1000B0005F0100085F0100085F0100085F010008A0
:1000C0005F0100085F0100085F0100085F01000890
:1000D0005F0100085F0100085F0100085F01000880
:1000E0005F0100085F0100085F0100085F01000870
:1000F0005F0100085F0100085F0100085F01000860
:100100005F0100085F0100085F0100085F0100084F
:100110005F0100085F0100085F0100085F0100083F
:100120005F0100085F0100085F0100085F0100082F
:10013000DFF80CD000F018F8004800471D05000853
:10014000080400200648804706480047FEE7FEE70F
:10015000FEE7FEE7FEE7FEE7FEE7FEE7FEE7FEE777
:100160000D04000831010008064C074D06E0E06868
:1001700040F0010394E8070098471034AC42F6D3EE
:10018000FFF7DAFFDC050008FC050008FEE7704712
:1001900010B5012000F020F8002808BF10BD084865
:1001A0004FF00102016811F0010F0CBF054B064B27
:1001B0001A60491C0160BDE81040012000F006B83B
:1001C00000000020140C0140100C0140014908609F
:1001D0007047000014040140054A00211268054BD5
:1001E00002401B6803421CBF002A012108467047D9
:1001F0000004014014040140837921490268002B66
:1002000034D00B6823EA02020A60091D0A680368F9
:100210009A430A60017901F1804101F582310A684F
:1002200003681A430A60174B196802689143196002
:100230001A1D1168D0F800C021EA0C011160417943
:10024000102908D001F1804101F582310A68006867
:100250001043086070471968D0F800C041EA0C01EB
:10026000196011680068084310607047007900F158
:10027000804000F5823001689143016070470000C2
:1002800000040140080401408A0721F0030101F144
:10029000804101F58031120F0F23D1F808C093403F
:1002A0002CEA03038B608B6890401843886070478A
:1002B0002DE9F001CB78002203F00F0C13F0100FA2
:1002C0001CBF8B7843EA0C0C0B784FF00F0613F031
:1002D000FF0F4FF0010518BF046819D00F8805FA09
:1002E00002F31F409F420FD1970006FA07F824EA55
:1002F00008040CFA07F73C43CF78282F08BF436166
:1003000002D0482F08BF0361521C082AE6D30460BC
:100310000A88FF2A87BF44680022BDE8F0017047C1
:1003200002F108030F8805FA03F31F409F420FD123
:10033000970006FA07F824EA08040CFA07F73C438A
:10034000CF78282F08BF4361CF78482F08BF0361BB
:10035000521C082AE4D34460BDE8F0017047FEE770
:10036000FEE7704710B4C27801784FF00F0C0123FC
:1003700022B3184A126801F1E02102F4E062C2F5EA
:10038000E062120AC2F104042CFA02F290F801C0F1
:100390000CFA04FC8478224042EA0C02120181F833
:1003A0000024007800F01F0103FA01F140098000E9
:1003B00000F1E020C0F8001110BC704701F01F00F0
:1003C00003FA00F04909890001F1E021C1F8800138
:1003D00010BC70470CED00E0034940F0FD7040F0A8
:1003E00080600860704700000CED00E0704700007E
:1003F000044A0029916914BF084321EA0000906172
:10040000704700000010024070477047374882B0C4
:10041000016841F0010101604168354A11404160C5
:10042000016821F4102121F080710160016821F43C
:1004300080210160416821F4FE0141604FF41F01F9
:100440008160002201920092016841F480310160D4
:10045000016801F4003100910199491C0191009952
:1004600019B90199B1F5A06FF2D1016811F4003FFB
:1004700008BF009233D0012100911E490A6842F062
:1004800010020A600A6822F003020A600A6842F059
:1004900002020A604168416041684160416841F47C
:1004A00080614160416821F47C114160416841F400
:1004B000E8114160016841F080710160016811F04C
:1004C000007FFBD0416821F003014160416841F0A9
:1004D00002014160416801F00C010829FAD1064986
:1004E0004FF00060086002B070470000001002404A
:1004F0000000FFF80020024008ED00E0FEE702E007
:1005000008C8121F08C1002AFAD17047704700209E
:1005100001E001C1121F002AFBD1704784B0012104
:100520000820FFF765FF2327ADF8007010208DF835
:10053000030003208DF8020069462448FFF7B8FE47
:1005400001210420FFF754FF01211020FFF750FF85
:100550000125ADF8005004208DF8030069461C48C1
:10056000FFF7A6FE68031B4CADF800006946204665
:10057000FFF79EFE01210420FFF786FE00268DF87E
:1005800004600C208DF8050000958DF80650684633
:10059000FFF732FE4FF4C060FFF71EFF06208DF814
:1005A00008008DF809608DF80A608DF80B5002A8DC
:1005B000FFF7D8FE08490F600B1D0222A06810F457
:1005C000005F14BF1A600A60F8E70000000C0140E9
:1005D0000008014000100140100C0140FC0500081B
:1005E0000000002004000000FE04000800060008CF
:1005F00004000020040400000E05000800000000B4
:0400000508000131BD
:00000001FF
